{
  "_format": "hh-sol-artifact-1",
  "contractName": "MockStabilityModule",
  "sourceName": "contracts/mocks/MockStabilityModule.sol",
  "abi": [
    {
      "inputs": [
        {
          "internalType": "address",
          "name": "_governance",
          "type": "address"
        }
      ],
      "stateMutability": "nonpayable",
      "type": "constructor"
    },
    {
      "inputs": [
        {
          "internalType": "address",
          "name": "_staker",
          "type": "address"
        }
      ],
      "name": "getGovernanceStake",
      "outputs": [
        {
          "components": [
            {
              "internalType": "uint256",
              "name": "amount",
              "type": "uint256"
            },
            {
              "internalType": "uint256",
              "name": "startTime",
              "type": "uint256"
            },
            {
              "internalType": "uint256",
              "name": "endTime",
              "type": "uint256"
            },
            {
              "internalType": "uint256",
              "name": "withdrawAmount",
              "type": "uint256"
            },
            {
              "internalType": "uint256",
              "name": "lastGovContractCall",
              "type": "uint256"
            }
          ],
          "internalType": "struct MockStabilityModule.Stake",
          "name": "",
          "type": "tuple"
        }
      ],
      "stateMutability": "view",
      "type": "function"
    },
    {
      "inputs": [],
      "name": "getTotalPoolAmount",
      "outputs": [
        {
          "internalType": "uint256",
          "name": "",
          "type": "uint256"
        }
      ],
      "stateMutability": "view",
      "type": "function"
    },
    {
      "inputs": [
        {
          "internalType": "address",
          "name": "",
          "type": "address"
        }
      ],
      "name": "governanceStakes",
      "outputs": [
        {
          "internalType": "uint256",
          "name": "amount",
          "type": "uint256"
        },
        {
          "internalType": "uint256",
          "name": "startTime",
          "type": "uint256"
        },
        {
          "internalType": "uint256",
          "name": "endTime",
          "type": "uint256"
        },
        {
          "internalType": "uint256",
          "name": "withdrawAmount",
          "type": "uint256"
        },
        {
          "internalType": "uint256",
          "name": "lastGovContractCall",
          "type": "uint256"
        }
      ],
      "stateMutability": "view",
      "type": "function"
    },
    {
      "inputs": [
        {
          "internalType": "uint256",
          "name": "_amount",
          "type": "uint256"
        }
      ],
      "name": "requestWithdraw",
      "outputs": [],
      "stateMutability": "nonpayable",
      "type": "function"
    },
    {
      "inputs": [
        {
          "internalType": "uint256",
          "name": "_amount",
          "type": "uint256"
        }
      ],
      "name": "stake",
      "outputs": [],
      "stateMutability": "nonpayable",
      "type": "function"
    },
    {
      "inputs": [
        {
          "internalType": "address",
          "name": "_voter",
          "type": "address"
        }
      ],
      "name": "updateLastGovContractCall",
      "outputs": [],
      "stateMutability": "nonpayable",
      "type": "function"
    },
    {
      "inputs": [
        {
          "internalType": "address",
          "name": "_collateralType",
          "type": "address"
        }
      ],
      "name": "withdrawStake",
      "outputs": [],
      "stateMutability": "nonpayable",
      "type": "function"
    }
  ],
  "bytecode": "0x608060405234801561001057600080fd5b5060405162001139380380620011398339818101604052810190610034919061008f565b806000806101000a81548173ffffffffffffffffffffffffffffffffffffffff021916908373ffffffffffffffffffffffffffffffffffffffff16021790555050610101565b600081519050610089816100ea565b92915050565b6000602082840312156100a157600080fd5b60006100af8482850161007a565b91505092915050565b60006100c3826100ca565b9050919050565b600073ffffffffffffffffffffffffffffffffffffffff82169050919050565b6100f3816100b8565b81146100fe57600080fd5b50565b61102880620001116000396000f3fe608060405234801561001057600080fd5b506004361061007d5760003560e01c80638bf7dd301161005b5780638bf7dd30146100ea578063a694fc3a14610108578063c1a0d1cd14610124578063c23a5cea146101585761007d565b80631054a8241461008257806355f3aef0146100b2578063745400c9146100ce575b600080fd5b61009c60048036038101906100979190610a3a565b610174565b6040516100a99190610cb7565b60405180910390f35b6100cc60048036038101906100c79190610a3a565b6101ff565b005b6100e860048036038101906100e39190610a8c565b6102a1565b005b6100f2610341565b6040516100ff9190610cd2565b60405180910390f35b610122600480360381019061011d9190610a8c565b61034b565b005b61013e60048036038101906101399190610a3a565b6104b1565b60405161014f959493929190610ced565b60405180910390f35b610172600480360381019061016d9190610a3a565b6104e7565b005b61017c6109b7565b600260008373ffffffffffffffffffffffffffffffffffffffff1673ffffffffffffffffffffffffffffffffffffffff1681526020019081526020016000206040518060a0016040529081600082015481526020016001820154815260200160028201548152602001600382015481526020016004820154815250509050919050565b60008054906101000a900473ffffffffffffffffffffffffffffffffffffffff1673ffffffffffffffffffffffffffffffffffffffff163373ffffffffffffffffffffffffffffffffffffffff161461025757600080fd5b42600260008373ffffffffffffffffffffffffffffffffffffffff1673ffffffffffffffffffffffffffffffffffffffff1681526020019081526020016000206004018190555050565b6000600260003373ffffffffffffffffffffffffffffffffffffffff1673ffffffffffffffffffffffffffffffffffffffff1681526020019081526020016000209050806000015482111561032b576040517f08c379a000000000000000000000000000000000000000000000000000000000815260040161032290610c97565b60405180910390fd5b4281600201819055508181600301819055505050565b6000600154905090565b6000600260003373ffffffffffffffffffffffffffffffffffffffff1673ffffffffffffffffffffffffffffffffffffffff16815260200190815260200160002090504281600101819055507fffffffffffffffffffffffffffffffffffffffffffffffffffffffffffffffff8160020181905550818160000160008282546103d49190610d51565b9250508190555042816004018190555081600160008282546103f69190610d51565b9250508190555060008054906101000a900473ffffffffffffffffffffffffffffffffffffffff1673ffffffffffffffffffffffffffffffffffffffff166323b872dd3330856040518463ffffffff1660e01b815260040161045a93929190610bf7565b602060405180830381600087803b15801561047457600080fd5b505af1158015610488573d6000803e3d6000fd5b505050506040513d601f19601f820116820180604052508101906104ac9190610a63565b505050565b60026020528060005260406000206000915090508060000154908060010154908060020154908060030154908060040154905085565b6000600260003373ffffffffffffffffffffffffffffffffffffffff1673ffffffffffffffffffffffffffffffffffffffff168152602001908152602001600020905062278d0081600201544261053e9190610e32565b1161054857600080fd5b80600301548160000160008282546105609190610e32565b925050819055504281600201819055508060030154600160008282546105869190610e32565b925050819055506000806106516105a38460000154600154610871565b60008054906101000a900473ffffffffffffffffffffffffffffffffffffffff1673ffffffffffffffffffffffffffffffffffffffff166370a08231306040518263ffffffff1660e01b81526004016105fc9190610bdc565b60206040518083038186803b15801561061457600080fd5b505afa158015610628573d6000803e3d6000fd5b505050506040513d601f19601f8201168201806040525081019061064c9190610ab5565b6108ad565b905060006106f66106688560000154600154610871565b8673ffffffffffffffffffffffffffffffffffffffff166370a08231306040518263ffffffff1660e01b81526004016106a19190610bdc565b60206040518083038186803b1580156106b957600080fd5b505afa1580156106cd573d6000803e3d6000fd5b505050506040513d601f19601f820116820180604052508101906106f19190610ab5565b6108ad565b90508184600301546107089190610d51565b92506000846003018190555060008060009054906101000a900473ffffffffffffffffffffffffffffffffffffffff1673ffffffffffffffffffffffffffffffffffffffff1663a9059cbb33866040518363ffffffff1660e01b8152600401610772929190610c2e565b602060405180830381600087803b15801561078c57600080fd5b505af11580156107a0573d6000803e3d6000fd5b505050506040513d601f19601f820116820180604052508101906107c49190610a63565b9050806107d057600080fd5b8573ffffffffffffffffffffffffffffffffffffffff1663a9059cbb33846040518363ffffffff1660e01b815260040161080b929190610c2e565b602060405180830381600087803b15801561082557600080fd5b505af1158015610839573d6000803e3d6000fd5b505050506040513d601f19601f8201168201806040525081019061085d9190610a63565b90508061086957600080fd5b505050505050565b60008161089b61088985670de0b6b3a76400006108f1565b6002856108969190610da7565b61095e565b6108a59190610da7565b905092915050565b6000670de0b6b3a76400006108df6108c585856108f1565b6002670de0b6b3a76400006108da9190610da7565b61095e565b6108e99190610da7565b905092915050565b60008082148061091957508282838561090a9190610dd8565b9250826109179190610da7565b145b610958576040517f08c379a000000000000000000000000000000000000000000000000000000000815260040161094f90610c57565b60405180910390fd5b92915050565b600082828461096d9190610d51565b91508110156109b1576040517f08c379a00000000000000000000000000000000000000000000000000000000081526004016109a890610c77565b60405180910390fd5b92915050565b6040518060a0016040528060008152602001600081526020016000815260200160008152602001600081525090565b6000813590506109f581610fad565b92915050565b600081519050610a0a81610fc4565b92915050565b600081359050610a1f81610fdb565b92915050565b600081519050610a3481610fdb565b92915050565b600060208284031215610a4c57600080fd5b6000610a5a848285016109e6565b91505092915050565b600060208284031215610a7557600080fd5b6000610a83848285016109fb565b91505092915050565b600060208284031215610a9e57600080fd5b6000610aac84828501610a10565b91505092915050565b600060208284031215610ac757600080fd5b6000610ad584828501610a25565b91505092915050565b610ae781610e66565b82525050565b6000610afa601483610d40565b9150610b0582610f0c565b602082019050919050565b6000610b1d601483610d40565b9150610b2882610f35565b602082019050919050565b6000610b40602683610d40565b9150610b4b82610f5e565b604082019050919050565b60a082016000820151610b6c6000850182610bbe565b506020820151610b7f6020850182610bbe565b506040820151610b926040850182610bbe565b506060820151610ba56060850182610bbe565b506080820151610bb86080850182610bbe565b50505050565b610bc781610ea4565b82525050565b610bd681610ea4565b82525050565b6000602082019050610bf16000830184610ade565b92915050565b6000606082019050610c0c6000830186610ade565b610c196020830185610ade565b610c266040830184610bcd565b949350505050565b6000604082019050610c436000830185610ade565b610c506020830184610bcd565b9392505050565b60006020820190508181036000830152610c7081610aed565b9050919050565b60006020820190508181036000830152610c9081610b10565b9050919050565b60006020820190508181036000830152610cb081610b33565b9050919050565b600060a082019050610ccc6000830184610b56565b92915050565b6000602082019050610ce76000830184610bcd565b92915050565b600060a082019050610d026000830188610bcd565b610d0f6020830187610bcd565b610d1c6040830186610bcd565b610d296060830185610bcd565b610d366080830184610bcd565b9695505050505050565b600082825260208201905092915050565b6000610d5c82610ea4565b9150610d6783610ea4565b9250827fffffffffffffffffffffffffffffffffffffffffffffffffffffffffffffffff03821115610d9c57610d9b610eae565b5b828201905092915050565b6000610db282610ea4565b9150610dbd83610ea4565b925082610dcd57610dcc610edd565b5b828204905092915050565b6000610de382610ea4565b9150610dee83610ea4565b9250817fffffffffffffffffffffffffffffffffffffffffffffffffffffffffffffffff0483118215151615610e2757610e26610eae565b5b828202905092915050565b6000610e3d82610ea4565b9150610e4883610ea4565b925082821015610e5b57610e5a610eae565b5b828203905092915050565b6000610e7182610e84565b9050919050565b60008115159050919050565b600073ffffffffffffffffffffffffffffffffffffffff82169050919050565b6000819050919050565b7f4e487b7100000000000000000000000000000000000000000000000000000000600052601160045260246000fd5b7f4e487b7100000000000000000000000000000000000000000000000000000000600052601260045260246000fd5b7f64732d6d6174682d6d756c2d6f766572666c6f77000000000000000000000000600082015250565b7f64732d6d6174682d6164642d6f766572666c6f77000000000000000000000000600082015250565b7f63616e2774207769746864726177206d6f7265207468616e2063757272656e7460008201527f207374616b650000000000000000000000000000000000000000000000000000602082015250565b610fb681610e66565b8114610fc157600080fd5b50565b610fcd81610e78565b8114610fd857600080fd5b50565b610fe481610ea4565b8114610fef57600080fd5b5056fea2646970667358221220c459ca0b91943d208af70976913810ff3847a0ce6a82fc6c30e718573fc3dd3e64736f6c63430008040033",
  "linkReferences": {},
  "deployedLinkReferences": {}
}