{
  "_format": "hh-sol-artifact-1",
  "contractName": "Governance",
  "sourceName": "contracts/Governance.sol",
  "abi": [
    {
      "inputs": [
        {
          "internalType": "address",
          "name": "_team",
          "type": "address"
        }
      ],
      "stateMutability": "nonpayable",
      "type": "constructor"
    },
    {
      "anonymous": false,
      "inputs": [
        {
          "indexed": true,
          "internalType": "address",
          "name": "owner",
          "type": "address"
        },
        {
          "indexed": true,
          "internalType": "address",
          "name": "spender",
          "type": "address"
        },
        {
          "indexed": false,
          "internalType": "uint256",
          "name": "value",
          "type": "uint256"
        }
      ],
      "name": "Approval",
      "type": "event"
    },
    {
      "anonymous": false,
      "inputs": [
        {
          "indexed": true,
          "internalType": "address",
          "name": "from",
          "type": "address"
        },
        {
          "indexed": true,
          "internalType": "address",
          "name": "to",
          "type": "address"
        },
        {
          "indexed": false,
          "internalType": "uint256",
          "name": "value",
          "type": "uint256"
        }
      ],
      "name": "Transfer",
      "type": "event"
    },
    {
      "inputs": [
        {
          "internalType": "address",
          "name": "owner",
          "type": "address"
        },
        {
          "internalType": "address",
          "name": "spender",
          "type": "address"
        }
      ],
      "name": "allowance",
      "outputs": [
        {
          "internalType": "uint256",
          "name": "",
          "type": "uint256"
        }
      ],
      "stateMutability": "view",
      "type": "function"
    },
    {
      "inputs": [
        {
          "internalType": "address",
          "name": "spender",
          "type": "address"
        },
        {
          "internalType": "uint256",
          "name": "amount",
          "type": "uint256"
        }
      ],
      "name": "approve",
      "outputs": [
        {
          "internalType": "bool",
          "name": "",
          "type": "bool"
        }
      ],
      "stateMutability": "nonpayable",
      "type": "function"
    },
    {
      "inputs": [
        {
          "internalType": "address",
          "name": "account",
          "type": "address"
        }
      ],
      "name": "balanceOf",
      "outputs": [
        {
          "internalType": "uint256",
          "name": "",
          "type": "uint256"
        }
      ],
      "stateMutability": "view",
      "type": "function"
    },
    {
      "inputs": [],
      "name": "decimals",
      "outputs": [
        {
          "internalType": "uint8",
          "name": "",
          "type": "uint8"
        }
      ],
      "stateMutability": "view",
      "type": "function"
    },
    {
      "inputs": [
        {
          "internalType": "address",
          "name": "spender",
          "type": "address"
        },
        {
          "internalType": "uint256",
          "name": "subtractedValue",
          "type": "uint256"
        }
      ],
      "name": "decreaseAllowance",
      "outputs": [
        {
          "internalType": "bool",
          "name": "",
          "type": "bool"
        }
      ],
      "stateMutability": "nonpayable",
      "type": "function"
    },
    {
      "inputs": [
        {
          "internalType": "uint256",
          "name": "_voteCount",
          "type": "uint256"
        }
      ],
      "name": "executeVote",
      "outputs": [],
      "stateMutability": "nonpayable",
      "type": "function"
    },
    {
      "inputs": [
        {
          "internalType": "address",
          "name": "spender",
          "type": "address"
        },
        {
          "internalType": "uint256",
          "name": "addedValue",
          "type": "uint256"
        }
      ],
      "name": "increaseAllowance",
      "outputs": [
        {
          "internalType": "bool",
          "name": "",
          "type": "bool"
        }
      ],
      "stateMutability": "nonpayable",
      "type": "function"
    },
    {
      "inputs": [
        {
          "internalType": "address",
          "name": "_chrysus",
          "type": "address"
        },
        {
          "internalType": "address",
          "name": "_swapSolution",
          "type": "address"
        },
        {
          "internalType": "address",
          "name": "_lending",
          "type": "address"
        },
        {
          "internalType": "address",
          "name": "_stabilityModule",
          "type": "address"
        }
      ],
      "name": "init",
      "outputs": [],
      "stateMutability": "nonpayable",
      "type": "function"
    },
    {
      "inputs": [],
      "name": "lastMintTimestamp",
      "outputs": [
        {
          "internalType": "uint256",
          "name": "",
          "type": "uint256"
        }
      ],
      "stateMutability": "view",
      "type": "function"
    },
    {
      "inputs": [],
      "name": "mintDaily",
      "outputs": [],
      "stateMutability": "nonpayable",
      "type": "function"
    },
    {
      "inputs": [],
      "name": "name",
      "outputs": [
        {
          "internalType": "string",
          "name": "",
          "type": "string"
        }
      ],
      "stateMutability": "view",
      "type": "function"
    },
    {
      "inputs": [
        {
          "internalType": "address",
          "name": "_contract",
          "type": "address"
        },
        {
          "internalType": "bytes4",
          "name": "_function",
          "type": "bytes4"
        },
        {
          "internalType": "bytes",
          "name": "_data",
          "type": "bytes"
        }
      ],
      "name": "proposeVote",
      "outputs": [],
      "stateMutability": "nonpayable",
      "type": "function"
    },
    {
      "inputs": [],
      "name": "symbol",
      "outputs": [
        {
          "internalType": "string",
          "name": "",
          "type": "string"
        }
      ],
      "stateMutability": "view",
      "type": "function"
    },
    {
      "inputs": [],
      "name": "team",
      "outputs": [
        {
          "internalType": "address",
          "name": "",
          "type": "address"
        }
      ],
      "stateMutability": "view",
      "type": "function"
    },
    {
      "inputs": [],
      "name": "totalSupply",
      "outputs": [
        {
          "internalType": "uint256",
          "name": "",
          "type": "uint256"
        }
      ],
      "stateMutability": "view",
      "type": "function"
    },
    {
      "inputs": [
        {
          "internalType": "address",
          "name": "to",
          "type": "address"
        },
        {
          "internalType": "uint256",
          "name": "amount",
          "type": "uint256"
        }
      ],
      "name": "transfer",
      "outputs": [
        {
          "internalType": "bool",
          "name": "",
          "type": "bool"
        }
      ],
      "stateMutability": "nonpayable",
      "type": "function"
    },
    {
      "inputs": [
        {
          "internalType": "address",
          "name": "from",
          "type": "address"
        },
        {
          "internalType": "address",
          "name": "to",
          "type": "address"
        },
        {
          "internalType": "uint256",
          "name": "amount",
          "type": "uint256"
        }
      ],
      "name": "transferFrom",
      "outputs": [
        {
          "internalType": "bool",
          "name": "",
          "type": "bool"
        }
      ],
      "stateMutability": "nonpayable",
      "type": "function"
    },
    {
      "inputs": [
        {
          "internalType": "uint256",
          "name": "_voteCount",
          "type": "uint256"
        },
        {
          "internalType": "bool",
          "name": "_supports",
          "type": "bool"
        },
        {
          "internalType": "bool",
          "name": "_abstains",
          "type": "bool"
        }
      ],
      "name": "vote",
      "outputs": [],
      "stateMutability": "nonpayable",
      "type": "function"
    },
    {
      "inputs": [],
      "name": "voteCount",
      "outputs": [
        {
          "internalType": "uint256",
          "name": "",
          "type": "uint256"
        }
      ],
      "stateMutability": "view",
      "type": "function"
    },
    {
      "inputs": [
        {
          "internalType": "uint256",
          "name": "",
          "type": "uint256"
        }
      ],
      "name": "voteInfo",
      "outputs": [
        {
          "internalType": "uint256",
          "name": "startTime",
          "type": "uint256"
        },
        {
          "internalType": "uint256",
          "name": "tallyTime",
          "type": "uint256"
        },
        {
          "internalType": "uint256",
          "name": "amountSupporting",
          "type": "uint256"
        },
        {
          "internalType": "uint256",
          "name": "amountAgainst",
          "type": "uint256"
        },
        {
          "internalType": "uint256",
          "name": "amountAbstained",
          "type": "uint256"
        },
        {
          "internalType": "bool",
          "name": "executed",
          "type": "bool"
        },
        {
          "internalType": "bool",
          "name": "result",
          "type": "bool"
        },
        {
          "internalType": "bytes4",
          "name": "voteFunction",
          "type": "bytes4"
        },
        {
          "internalType": "address",
          "name": "voteAddress",
          "type": "address"
        },
        {
          "internalType": "address",
          "name": "initiator",
          "type": "address"
        },
        {
          "internalType": "bytes",
          "name": "data",
          "type": "bytes"
        }
      ],
      "stateMutability": "view",
      "type": "function"
    }
  ],
  "bytecode": "0x60806040526000600a553480156200001657600080fd5b50604051620046493803806200464983398181016040528101906200003c9190620003c7565b6040518060400160405280601281526020017f4368727973757320476f7665726e616e636500000000000000000000000000008152506040518060400160405280600381526020017f43475400000000000000000000000000000000000000000000000000000000008152508160039080519060200190620000c092919062000300565b508060049080519060200190620000d992919062000300565b505050600073ffffffffffffffffffffffffffffffffffffffff168173ffffffffffffffffffffffffffffffffffffffff1614156200011757600080fd5b62000135816b025391ee35a05c54d00000006200017d60201b60201c565b80600960006101000a81548173ffffffffffffffffffffffffffffffffffffffff021916908373ffffffffffffffffffffffffffffffffffffffff16021790555050620005ed565b600073ffffffffffffffffffffffffffffffffffffffff168273ffffffffffffffffffffffffffffffffffffffff161415620001f0576040517f08c379a0000000000000000000000000000000000000000000000000000000008152600401620001e7906200042b565b60405180910390fd5b6200020460008383620002f660201b60201c565b80600260008282546200021891906200047b565b92505081905550806000808473ffffffffffffffffffffffffffffffffffffffff1673ffffffffffffffffffffffffffffffffffffffff16815260200190815260200160002060008282546200026f91906200047b565b925050819055508173ffffffffffffffffffffffffffffffffffffffff16600073ffffffffffffffffffffffffffffffffffffffff167fddf252ad1be2c89b69c2b068fc378daa952ba7f163c4a11628f55a4df523b3ef83604051620002d691906200044d565b60405180910390a3620002f260008383620002fb60201b60201c565b5050565b505050565b505050565b8280546200030e9062000516565b90600052602060002090601f0160209004810192826200033257600085556200037e565b82601f106200034d57805160ff19168380011785556200037e565b828001600101855582156200037e579182015b828111156200037d57825182559160200191906001019062000360565b5b5090506200038d919062000391565b5090565b5b80821115620003ac57600081600090555060010162000392565b5090565b600081519050620003c181620005d3565b92915050565b600060208284031215620003da57600080fd5b6000620003ea84828501620003b0565b91505092915050565b600062000402601f836200046a565b91506200040f82620005aa565b602082019050919050565b62000425816200050c565b82525050565b600060208201905081810360008301526200044681620003f3565b9050919050565b60006020820190506200046460008301846200041a565b92915050565b600082825260208201905092915050565b600062000488826200050c565b915062000495836200050c565b9250827fffffffffffffffffffffffffffffffffffffffffffffffffffffffffffffffff03821115620004cd57620004cc6200054c565b5b828201905092915050565b6000620004e582620004ec565b9050919050565b600073ffffffffffffffffffffffffffffffffffffffff82169050919050565b6000819050919050565b600060028204905060018216806200052f57607f821691505b602082108114156200054657620005456200057b565b5b50919050565b7f4e487b7100000000000000000000000000000000000000000000000000000000600052601160045260246000fd5b7f4e487b7100000000000000000000000000000000000000000000000000000000600052602260045260246000fd5b7f45524332303a206d696e7420746f20746865207a65726f206164647265737300600082015250565b620005de81620004d8565b8114620005ea57600080fd5b50565b61404c80620005fd6000396000f3fe608060405234801561001057600080fd5b506004361061012c5760003560e01c80638494ff35116100ad578063a9059cbb11610071578063a9059cbb14610351578063c638407114610381578063dd62ed3e1461039f578063df133bca146103cf578063f98a4eca146103eb5761012c565b80638494ff351461028d57806385f2aef2146102c75780638e80ff5d146102e557806395d89b4114610303578063a457c2d7146103215761012c565b806323b872dd116100f457806323b872dd146101d5578063313ce56714610205578063395093511461022357806370a0823114610253578063785946f4146102835761012c565b806306552ff31461013157806306fdde031461014d578063095ea7b31461016b57806318160ddd1461019b5780631d7ce898146101b9575b600080fd5b61014b60048036038101906101469190612cdf565b610407565b005b610155610669565b6040516101629190613390565b60405180910390f35b61018560048036038101906101809190612df8565b6106fb565b6040516101929190613375565b60405180910390f35b6101a361071e565b6040516101b09190613642565b60405180910390f35b6101d360048036038101906101ce9190612d91565b610728565b005b6101ef60048036038101906101ea9190612d42565b610f2d565b6040516101fc9190613375565b60405180910390f35b61020d610f5c565b60405161021a919061370f565b60405180910390f35b61023d60048036038101906102389190612df8565b610f65565b60405161024a9190613375565b60405180910390f35b61026d60048036038101906102689190612c7a565b610f9c565b60405161027a9190613642565b60405180910390f35b61028b610fe4565b005b6102a760048036038101906102a29190612e5d565b6111c1565b6040516102be9b9a9998979695949392919061365d565b60405180910390f35b6102cf61130a565b6040516102dc919061335a565b60405180910390f35b6102ed611330565b6040516102fa9190613642565b60405180910390f35b61030b611336565b6040516103189190613390565b60405180910390f35b61033b60048036038101906103369190612df8565b6113c8565b6040516103489190613375565b60405180910390f35b61036b60048036038101906103669190612df8565b61143f565b6040516103789190613375565b60405180910390f35b610389611462565b6040516103969190613642565b60405180910390f35b6103b960048036038101906103b49190612ca3565b611468565b6040516103c69190613642565b60405180910390f35b6103e960048036038101906103e49190612eaf565b6114ef565b005b61040560048036038101906104009190612e5d565b611a6a565b005b600960009054906101000a900473ffffffffffffffffffffffffffffffffffffffff1673ffffffffffffffffffffffffffffffffffffffff163373ffffffffffffffffffffffffffffffffffffffff1614610497576040517f08c379a000000000000000000000000000000000000000000000000000000000815260040161048e906135a2565b60405180910390fd5b60001515600560009054906101000a900460ff161515146104b757600080fd5b83600560016101000a81548173ffffffffffffffffffffffffffffffffffffffff021916908373ffffffffffffffffffffffffffffffffffffffff16021790555082600660006101000a81548173ffffffffffffffffffffffffffffffffffffffff021916908373ffffffffffffffffffffffffffffffffffffffff16021790555081600860006101000a81548173ffffffffffffffffffffffffffffffffffffffff021916908373ffffffffffffffffffffffffffffffffffffffff16021790555080600760006101000a81548173ffffffffffffffffffffffffffffffffffffffff021916908373ffffffffffffffffffffffffffffffffffffffff1602179055506001600560006101000a81548160ff021916908315150217905550600760009054906101000a900473ffffffffffffffffffffffffffffffffffffffff1673ffffffffffffffffffffffffffffffffffffffff166355f3aef0336040518263ffffffff1660e01b8152600401610631919061335a565b600060405180830381600087803b15801561064b57600080fd5b505af115801561065f573d6000803e3d6000fd5b5050505050505050565b606060038054610678906139b0565b80601f01602080910402602001604051908101604052809291908181526020018280546106a4906139b0565b80156106f15780601f106106c6576101008083540402835291602001916106f1565b820191906000526020600020905b8154815290600101906020018083116106d457829003601f168201915b5050505050905090565b60008061070661236f565b9050610713818585612377565b600191505092915050565b6000600254905090565b6276a7004261073791906138b9565b600760009054906101000a900473ffffffffffffffffffffffffffffffffffffffff1673ffffffffffffffffffffffffffffffffffffffff16631054a824336040518263ffffffff1660e01b8152600401610792919061335a565b60a06040518083038186803b1580156107aa57600080fd5b505afa1580156107be573d6000803e3d6000fd5b505050506040513d601f19601f820116820180604052508101906107e29190612e34565b6020015111806108ad57506276a700426107fc91906138b9565b600760009054906101000a900473ffffffffffffffffffffffffffffffffffffffff1673ffffffffffffffffffffffffffffffffffffffff16631054a824336040518263ffffffff1660e01b8152600401610857919061335a565b60a06040518083038186803b15801561086f57600080fd5b505afa158015610883573d6000803e3d6000fd5b505050506040513d601f19601f820116820180604052508101906108a79190612e34565b60800151115b6108ec576040517f08c379a00000000000000000000000000000000000000000000000000000000081526004016108e390613602565b60405180910390fd5b62278d00426108fb91906138b9565b600760009054906101000a900473ffffffffffffffffffffffffffffffffffffffff1673ffffffffffffffffffffffffffffffffffffffff16631054a824336040518263ffffffff1660e01b8152600401610956919061335a565b60a06040518083038186803b15801561096e57600080fd5b505afa158015610982573d6000803e3d6000fd5b505050506040513d601f19601f820116820180604052508101906109a69190612e34565b60200151106109ea576040517f08c379a00000000000000000000000000000000000000000000000000000000081526004016109e1906134e2565b60405180910390fd5b600560009054906101000a900460ff16610a0357600080fd5b610b036040518060400160405280600681526020017f7374616b65200000000000000000000000000000000000000000000000000000815250670de0b6b3a7640000600760009054906101000a900473ffffffffffffffffffffffffffffffffffffffff1673ffffffffffffffffffffffffffffffffffffffff16631054a824336040518263ffffffff1660e01b8152600401610aa0919061335a565b60a06040518083038186803b158015610ab857600080fd5b505afa158015610acc573d6000803e3d6000fd5b505050506040513d601f19601f82011682018060405250810190610af09190612e34565b60000151610afe919061382e565b612542565b610c006040518060400160405280601381526020017f746f74616c20706f6f6c20616d6f756e742c2000000000000000000000000000815250670de0b6b3a7640000600a600760009054906101000a900473ffffffffffffffffffffffffffffffffffffffff1673ffffffffffffffffffffffffffffffffffffffff16638bf7dd306040518163ffffffff1660e01b815260040160206040518083038186803b158015610baf57600080fd5b505afa158015610bc3573d6000803e3d6000fd5b505050506040513d601f19601f82011682018060405250810190610be79190612e86565b610bf1919061382e565b610bfb919061382e565b612542565b600a600760009054906101000a900473ffffffffffffffffffffffffffffffffffffffff1673ffffffffffffffffffffffffffffffffffffffff16638bf7dd306040518163ffffffff1660e01b815260040160206040518083038186803b158015610c6a57600080fd5b505afa158015610c7e573d6000803e3d6000fd5b505050506040513d601f19601f82011682018060405250810190610ca29190612e86565b610cac919061382e565b600760009054906101000a900473ffffffffffffffffffffffffffffffffffffffff1673ffffffffffffffffffffffffffffffffffffffff16631054a824336040518263ffffffff1660e01b8152600401610d07919061335a565b60a06040518083038186803b158015610d1f57600080fd5b505afa158015610d33573d6000803e3d6000fd5b505050506040513d601f19601f82011682018060405250810190610d579190612e34565b6000015111610d9b576040517f08c379a0000000000000000000000000000000000000000000000000000000008152600401610d9290613522565b60405180910390fd5b600b6000815480929190610dae90613a13565b91905055506000600b5490506000600c60008381526020019081526020016000209050338160060160006101000a81548173ffffffffffffffffffffffffffffffffffffffff021916908373ffffffffffffffffffffffffffffffffffffffff160217905550428160000181905550848160050160066101000a81548173ffffffffffffffffffffffffffffffffffffffff021916908373ffffffffffffffffffffffffffffffffffffffff160217905550838160050160026101000a81548163ffffffff021916908360e01c021790555082816007019080519060200190610e98929190612a7e565b50600760009054906101000a900473ffffffffffffffffffffffffffffffffffffffff1673ffffffffffffffffffffffffffffffffffffffff166355f3aef0336040518263ffffffff1660e01b8152600401610ef4919061335a565b600060405180830381600087803b158015610f0e57600080fd5b505af1158015610f22573d6000803e3d6000fd5b505050505050505050565b600080610f3861236f565b9050610f458582856125de565b610f5085858561266a565b60019150509392505050565b60006012905090565b600080610f7061236f565b9050610f91818585610f828589611468565b610f8c91906137d8565b612377565b600191505092915050565b60008060008373ffffffffffffffffffffffffffffffffffffffff1673ffffffffffffffffffffffffffffffffffffffff168152602001908152602001600020549050919050565b600062015180600a5442610ff891906138b9565b611002919061382e565b90506000811415611048576040517f08c379a000000000000000000000000000000000000000000000000000000000815260040161103f906134c2565b60405180910390fd5b611089600560019054906101000a900473ffffffffffffffffffffffffffffffffffffffff1682693f870857a3e0e3800000611084919061385f565b6128eb565b6110ca600660009054906101000a900473ffffffffffffffffffffffffffffffffffffffff1682693f870857a3e0e38000006110c5919061385f565b6128eb565b61110b600860009054906101000a900473ffffffffffffffffffffffffffffffffffffffff1682693f870857a3e0e3800000611106919061385f565b6128eb565b61112a308269152d02c7e14af6800000611125919061385f565b6128eb565b42600a81905550600760009054906101000a900473ffffffffffffffffffffffffffffffffffffffff1673ffffffffffffffffffffffffffffffffffffffff166355f3aef0336040518263ffffffff1660e01b815260040161118c919061335a565b600060405180830381600087803b1580156111a657600080fd5b505af11580156111ba573d6000803e3d6000fd5b5050505050565b600c6020528060005260406000206000915090508060000154908060010154908060020154908060030154908060040154908060050160009054906101000a900460ff16908060050160019054906101000a900460ff16908060050160029054906101000a900460e01b908060050160069054906101000a900473ffffffffffffffffffffffffffffffffffffffff16908060060160009054906101000a900473ffffffffffffffffffffffffffffffffffffffff1690806007018054611287906139b0565b80601f01602080910402602001604051908101604052809291908181526020018280546112b3906139b0565b80156113005780601f106112d557610100808354040283529160200191611300565b820191906000526020600020905b8154815290600101906020018083116112e357829003601f168201915b505050505090508b565b600960009054906101000a900473ffffffffffffffffffffffffffffffffffffffff1681565b600a5481565b606060048054611345906139b0565b80601f0160208091040260200160405190810160405280929190818152602001828054611371906139b0565b80156113be5780601f10611393576101008083540402835291602001916113be565b820191906000526020600020905b8154815290600101906020018083116113a157829003601f168201915b5050505050905090565b6000806113d361236f565b905060006113e18286611468565b905083811015611426576040517f08c379a000000000000000000000000000000000000000000000000000000000815260040161141d906135c2565b60405180910390fd5b6114338286868403612377565b60019250505092915050565b60008061144a61236f565b905061145781858561266a565b600191505092915050565b600b5481565b6000600160008473ffffffffffffffffffffffffffffffffffffffff1673ffffffffffffffffffffffffffffffffffffffff16815260200190815260200160002060008373ffffffffffffffffffffffffffffffffffffffff1673ffffffffffffffffffffffffffffffffffffffff16815260200190815260200160002054905092915050565b6276a700426114fe91906138b9565b600760009054906101000a900473ffffffffffffffffffffffffffffffffffffffff1673ffffffffffffffffffffffffffffffffffffffff16631054a824336040518263ffffffff1660e01b8152600401611559919061335a565b60a06040518083038186803b15801561157157600080fd5b505afa158015611585573d6000803e3d6000fd5b505050506040513d601f19601f820116820180604052508101906115a99190612e34565b60200151118061167457506276a700426115c391906138b9565b600760009054906101000a900473ffffffffffffffffffffffffffffffffffffffff1673ffffffffffffffffffffffffffffffffffffffff16631054a824336040518263ffffffff1660e01b815260040161161e919061335a565b60a06040518083038186803b15801561163657600080fd5b505afa15801561164a573d6000803e3d6000fd5b505050506040513d601f19601f8201168201806040525081019061166e9190612e34565b60800151115b6116b3576040517f08c379a00000000000000000000000000000000000000000000000000000000081526004016116aa90613602565b60405180910390fd5b62278d00426116c291906138b9565b600760009054906101000a900473ffffffffffffffffffffffffffffffffffffffff1673ffffffffffffffffffffffffffffffffffffffff16631054a824336040518263ffffffff1660e01b815260040161171d919061335a565b60a06040518083038186803b15801561173557600080fd5b505afa158015611749573d6000803e3d6000fd5b505050506040513d601f19601f8201168201806040525081019061176d9190612e34565b60200151106117b1576040517f08c379a00000000000000000000000000000000000000000000000000000000081526004016117a8906134e2565b60405180910390fd5b600560009054906101000a900460ff166117ca57600080fd5b600b5483111561180f576040517f08c379a0000000000000000000000000000000000000000000000000000000008152600401611806906135e2565b60405180910390fd5b6000600c60008581526020019081526020016000209050600081600101541461186d576040517f08c379a000000000000000000000000000000000000000000000000000000000815260040161186490613402565b60405180910390fd5b8060080160003373ffffffffffffffffffffffffffffffffffffffff1673ffffffffffffffffffffffffffffffffffffffff16815260200190815260200160002060009054906101000a900460ff16156118fc576040517f08c379a00000000000000000000000000000000000000000000000000000000081526004016118f390613502565b60405180910390fd5b60018160080160003373ffffffffffffffffffffffffffffffffffffffff1673ffffffffffffffffffffffffffffffffffffffff16815260200190815260200160002060006101000a81548160ff02191690831515021790555081156119845761196533610f9c565b81600401600082825461197891906137d8565b925050819055506119d7565b82156119b25761199333610f9c565b8160020160008282546119a691906137d8565b925050819055506119d6565b6119bb33610f9c565b8160030160008282546119ce91906137d8565b925050819055505b5b600760009054906101000a900473ffffffffffffffffffffffffffffffffffffffff1673ffffffffffffffffffffffffffffffffffffffff166355f3aef0336040518263ffffffff1660e01b8152600401611a32919061335a565b600060405180830381600087803b158015611a4c57600080fd5b505af1158015611a60573d6000803e3d6000fd5b5050505050505050565b6276a70042611a7991906138b9565b600760009054906101000a900473ffffffffffffffffffffffffffffffffffffffff1673ffffffffffffffffffffffffffffffffffffffff16631054a824336040518263ffffffff1660e01b8152600401611ad4919061335a565b60a06040518083038186803b158015611aec57600080fd5b505afa158015611b00573d6000803e3d6000fd5b505050506040513d601f19601f82011682018060405250810190611b249190612e34565b602001511180611bef57506276a70042611b3e91906138b9565b600760009054906101000a900473ffffffffffffffffffffffffffffffffffffffff1673ffffffffffffffffffffffffffffffffffffffff16631054a824336040518263ffffffff1660e01b8152600401611b99919061335a565b60a06040518083038186803b158015611bb157600080fd5b505afa158015611bc5573d6000803e3d6000fd5b505050506040513d601f19601f82011682018060405250810190611be99190612e34565b60800151115b611c2e576040517f08c379a0000000000000000000000000000000000000000000000000000000008152600401611c2590613602565b60405180910390fd5b62278d0042611c3d91906138b9565b600760009054906101000a900473ffffffffffffffffffffffffffffffffffffffff1673ffffffffffffffffffffffffffffffffffffffff16631054a824336040518263ffffffff1660e01b8152600401611c98919061335a565b60a06040518083038186803b158015611cb057600080fd5b505afa158015611cc4573d6000803e3d6000fd5b505050506040513d601f19601f82011682018060405250810190611ce89190612e34565b6020015110611d2c576040517f08c379a0000000000000000000000000000000000000000000000000000000008152600401611d23906134e2565b60405180910390fd5b600560009054906101000a900460ff16611d4557600080fd5b6000600c60008381526020019081526020016000209050611dbd6040518060400160405280600481526020017f746f702000000000000000000000000000000000000000000000000000000000815250826004015483600301548460020154611dae91906137d8565b611db891906137d8565b612542565b611eb36040518060400160405280600781526020017f626f74746f6d200000000000000000000000000000000000000000000000000081525060046003600760009054906101000a900473ffffffffffffffffffffffffffffffffffffffff1673ffffffffffffffffffffffffffffffffffffffff16638bf7dd306040518163ffffffff1660e01b815260040160206040518083038186803b158015611e6257600080fd5b505afa158015611e76573d6000803e3d6000fd5b505050506040513d601f19601f82011682018060405250810190611e9a9190612e86565b611ea4919061385f565b611eae919061382e565b612542565b60046003600760009054906101000a900473ffffffffffffffffffffffffffffffffffffffff1673ffffffffffffffffffffffffffffffffffffffff16638bf7dd306040518163ffffffff1660e01b815260040160206040518083038186803b158015611f1f57600080fd5b505afa158015611f33573d6000803e3d6000fd5b505050506040513d601f19601f82011682018060405250810190611f579190612e86565b611f61919061385f565b611f6b919061382e565b816004015482600301548360020154611f8491906137d8565b611f8e91906137d8565b11611fce576040517f08c379a0000000000000000000000000000000000000000000000000000000008152600401611fc590613582565b60405180910390fd5b8060050160009054906101000a900460ff1615612020576040517f08c379a000000000000000000000000000000000000000000000000000000000815260040161201790613442565b60405180910390fd5b6000816001015414612067576040517f08c379a000000000000000000000000000000000000000000000000000000000815260040161205e90613402565b60405180910390fd5b600b548211156120ac576040517f08c379a00000000000000000000000000000000000000000000000000000000081526004016120a3906135e2565b60405180910390fd5b60006202a3009050808260000154426120c591906138b9565b11612105576040517f08c379a00000000000000000000000000000000000000000000000000000000081526004016120fc90613462565b60405180910390fd5b60646033600760009054906101000a900473ffffffffffffffffffffffffffffffffffffffff1673ffffffffffffffffffffffffffffffffffffffff16638bf7dd306040518163ffffffff1660e01b815260040160206040518083038186803b15801561217157600080fd5b505afa158015612185573d6000803e3d6000fd5b505050506040513d601f19601f820116820180604052508101906121a99190612e86565b6121b3919061385f565b6121bd919061382e565b826002015411156122bf5760018260050160016101000a81548160ff02191690831515021790555060008260050160069054906101000a900473ffffffffffffffffffffffffffffffffffffffff169050600060608273ffffffffffffffffffffffffffffffffffffffff168560050160029054906101000a900460e01b8660070160405160200161225092919061331b565b60405160208183030381529060405260405161226c9190613343565b6000604051808303816000865af19150503d80600081146122a9576040519150601f19603f3d011682016040523d82523d6000602084013e6122ae565b606091505b5080925081935050505050506122dd565b60008260050160016101000a81548160ff0219169083151502179055505b600760009054906101000a900473ffffffffffffffffffffffffffffffffffffffff1673ffffffffffffffffffffffffffffffffffffffff166355f3aef0336040518263ffffffff1660e01b8152600401612338919061335a565b600060405180830381600087803b15801561235257600080fd5b505af1158015612366573d6000803e3d6000fd5b50505050505050565b600033905090565b600073ffffffffffffffffffffffffffffffffffffffff168373ffffffffffffffffffffffffffffffffffffffff1614156123e7576040517f08c379a00000000000000000000000000000000000000000000000000000000081526004016123de90613562565b60405180910390fd5b600073ffffffffffffffffffffffffffffffffffffffff168273ffffffffffffffffffffffffffffffffffffffff161415612457576040517f08c379a000000000000000000000000000000000000000000000000000000000815260040161244e90613422565b60405180910390fd5b80600160008573ffffffffffffffffffffffffffffffffffffffff1673ffffffffffffffffffffffffffffffffffffffff16815260200190815260200160002060008473ffffffffffffffffffffffffffffffffffffffff1673ffffffffffffffffffffffffffffffffffffffff168152602001908152602001600020819055508173ffffffffffffffffffffffffffffffffffffffff168373ffffffffffffffffffffffffffffffffffffffff167f8c5be1e5ebec7d5bd14f71427d1e84f3dd0314c0f7b2291e5b200ac8c7c3b925836040516125359190613642565b60405180910390a3505050565b6125da82826040516024016125589291906133b2565b6040516020818303038152906040527f9710a9d0000000000000000000000000000000000000000000000000000000007bffffffffffffffffffffffffffffffffffffffffffffffffffffffff19166020820180517bffffffffffffffffffffffffffffffffffffffffffffffffffffffff8381831617835250505050612a4b565b5050565b60006125ea8484611468565b90507fffffffffffffffffffffffffffffffffffffffffffffffffffffffffffffffff81146126645781811015612656576040517f08c379a000000000000000000000000000000000000000000000000000000000815260040161264d90613482565b60405180910390fd5b6126638484848403612377565b5b50505050565b600073ffffffffffffffffffffffffffffffffffffffff168373ffffffffffffffffffffffffffffffffffffffff1614156126da576040517f08c379a00000000000000000000000000000000000000000000000000000000081526004016126d190613542565b60405180910390fd5b600073ffffffffffffffffffffffffffffffffffffffff168273ffffffffffffffffffffffffffffffffffffffff16141561274a576040517f08c379a0000000000000000000000000000000000000000000000000000000008152600401612741906133e2565b60405180910390fd5b612755838383612a74565b60008060008573ffffffffffffffffffffffffffffffffffffffff1673ffffffffffffffffffffffffffffffffffffffff168152602001908152602001600020549050818110156127db576040517f08c379a00000000000000000000000000000000000000000000000000000000081526004016127d2906134a2565b60405180910390fd5b8181036000808673ffffffffffffffffffffffffffffffffffffffff1673ffffffffffffffffffffffffffffffffffffffff16815260200190815260200160002081905550816000808573ffffffffffffffffffffffffffffffffffffffff1673ffffffffffffffffffffffffffffffffffffffff168152602001908152602001600020600082825461286e91906137d8565b925050819055508273ffffffffffffffffffffffffffffffffffffffff168473ffffffffffffffffffffffffffffffffffffffff167fddf252ad1be2c89b69c2b068fc378daa952ba7f163c4a11628f55a4df523b3ef846040516128d29190613642565b60405180910390a36128e5848484612a79565b50505050565b600073ffffffffffffffffffffffffffffffffffffffff168273ffffffffffffffffffffffffffffffffffffffff16141561295b576040517f08c379a000000000000000000000000000000000000000000000000000000000815260040161295290613622565b60405180910390fd5b61296760008383612a74565b806002600082825461297991906137d8565b92505081905550806000808473ffffffffffffffffffffffffffffffffffffffff1673ffffffffffffffffffffffffffffffffffffffff16815260200190815260200160002060008282546129ce91906137d8565b925050819055508173ffffffffffffffffffffffffffffffffffffffff16600073ffffffffffffffffffffffffffffffffffffffff167fddf252ad1be2c89b69c2b068fc378daa952ba7f163c4a11628f55a4df523b3ef83604051612a339190613642565b60405180910390a3612a4760008383612a79565b5050565b60008151905060006a636f6e736f6c652e6c6f679050602083016000808483855afa5050505050565b505050565b505050565b828054612a8a906139b0565b90600052602060002090601f016020900481019282612aac5760008555612af3565b82601f10612ac557805160ff1916838001178555612af3565b82800160010185558215612af3579182015b82811115612af2578251825591602001919060010190612ad7565b5b509050612b009190612b04565b5090565b5b80821115612b1d576000816000905550600101612b05565b5090565b6000612b34612b2f8461374f565b61372a565b905082815260208101848484011115612b4c57600080fd5b612b5784828561396e565b509392505050565b600081359050612b6e81613fba565b92915050565b600081359050612b8381613fd1565b92915050565b600081359050612b9881613fe8565b92915050565b600082601f830112612baf57600080fd5b8135612bbf848260208601612b21565b91505092915050565b600060a08284031215612bda57600080fd5b612be460a061372a565b90506000612bf484828501612c65565b6000830152506020612c0884828501612c65565b6020830152506040612c1c84828501612c65565b6040830152506060612c3084828501612c65565b6060830152506080612c4484828501612c65565b60808301525092915050565b600081359050612c5f81613fff565b92915050565b600081519050612c7481613fff565b92915050565b600060208284031215612c8c57600080fd5b6000612c9a84828501612b5f565b91505092915050565b60008060408385031215612cb657600080fd5b6000612cc485828601612b5f565b9250506020612cd585828601612b5f565b9150509250929050565b60008060008060808587031215612cf557600080fd5b6000612d0387828801612b5f565b9450506020612d1487828801612b5f565b9350506040612d2587828801612b5f565b9250506060612d3687828801612b5f565b91505092959194509250565b600080600060608486031215612d5757600080fd5b6000612d6586828701612b5f565b9350506020612d7686828701612b5f565b9250506040612d8786828701612c50565b9150509250925092565b600080600060608486031215612da657600080fd5b6000612db486828701612b5f565b9350506020612dc586828701612b89565b925050604084013567ffffffffffffffff811115612de257600080fd5b612dee86828701612b9e565b9150509250925092565b60008060408385031215612e0b57600080fd5b6000612e1985828601612b5f565b9250506020612e2a85828601612c50565b9150509250929050565b600060a08284031215612e4657600080fd5b6000612e5484828501612bc8565b91505092915050565b600060208284031215612e6f57600080fd5b6000612e7d84828501612c50565b91505092915050565b600060208284031215612e9857600080fd5b6000612ea684828501612c65565b91505092915050565b600080600060608486031215612ec457600080fd5b6000612ed286828701612c50565b9350506020612ee386828701612b74565b9250506040612ef486828701612b74565b9150509250925092565b612f07816138ed565b82525050565b612f16816138ff565b82525050565b612f258161390b565b82525050565b612f3c612f378261390b565b613a5c565b82525050565b6000612f4d82613795565b612f5781856137ab565b9350612f6781856020860161397d565b612f7081613b22565b840191505092915050565b6000612f8682613795565b612f9081856137bc565b9350612fa081856020860161397d565b80840191505092915050565b60008154612fb9816139b0565b612fc381866137bc565b94506001821660008114612fde5760018114612fef57613022565b60ff19831686528186019350613022565b612ff885613780565b60005b8381101561301a57815481890152600182019150602081019050612ffb565b838801955050505b50505092915050565b6000613036826137a0565b61304081856137c7565b935061305081856020860161397d565b61305981613b22565b840191505092915050565b60006130716023836137c7565b915061307c82613b33565b604082019050919050565b6000613094601d836137c7565b915061309f82613b82565b602082019050919050565b60006130b76022836137c7565b91506130c282613bab565b604082019050919050565b60006130da6021836137c7565b91506130e582613bfa565b604082019050919050565b60006130fd601f836137c7565b915061310882613c49565b602082019050919050565b6000613120601d836137c7565b915061312b82613c72565b602082019050919050565b60006131436026836137c7565b915061314e82613c9b565b604082019050919050565b6000613166601a836137c7565b915061317182613cea565b602082019050919050565b60006131896023836137c7565b915061319482613d13565b604082019050919050565b60006131ac6018836137c7565b91506131b782613d62565b602082019050919050565b60006131cf6036836137c7565b91506131da82613d8b565b604082019050919050565b60006131f26025836137c7565b91506131fd82613dda565b604082019050919050565b60006132156024836137c7565b915061322082613e29565b604082019050919050565b6000613238601e836137c7565b915061324382613e78565b602082019050919050565b600061325b601b836137c7565b915061326682613ea1565b602082019050919050565b600061327e6025836137c7565b915061328982613eca565b604082019050919050565b60006132a16013836137c7565b91506132ac82613f19565b602082019050919050565b60006132c4602f836137c7565b91506132cf82613f42565b604082019050919050565b60006132e7601f836137c7565b91506132f282613f91565b602082019050919050565b61330681613957565b82525050565b61331581613961565b82525050565b60006133278285612f2b565b6004820191506133378284612fac565b91508190509392505050565b600061334f8284612f7b565b915081905092915050565b600060208201905061336f6000830184612efe565b92915050565b600060208201905061338a6000830184612f0d565b92915050565b600060208201905081810360008301526133aa818461302b565b905092915050565b600060408201905081810360008301526133cc818561302b565b90506133db60208301846132fd565b9392505050565b600060208201905081810360008301526133fb81613064565b9050919050565b6000602082019050818103600083015261341b81613087565b9050919050565b6000602082019050818103600083015261343b816130aa565b9050919050565b6000602082019050818103600083015261345b816130cd565b9050919050565b6000602082019050818103600083015261347b816130f0565b9050919050565b6000602082019050818103600083015261349b81613113565b9050919050565b600060208201905081810360008301526134bb81613136565b9050919050565b600060208201905081810360008301526134db81613159565b9050919050565b600060208201905081810360008301526134fb8161317c565b9050919050565b6000602082019050818103600083015261351b8161319f565b9050919050565b6000602082019050818103600083015261353b816131c2565b9050919050565b6000602082019050818103600083015261355b816131e5565b9050919050565b6000602082019050818103600083015261357b81613208565b9050919050565b6000602082019050818103600083015261359b8161322b565b9050919050565b600060208201905081810360008301526135bb8161324e565b9050919050565b600060208201905081810360008301526135db81613271565b9050919050565b600060208201905081810360008301526135fb81613294565b9050919050565b6000602082019050818103600083015261361b816132b7565b9050919050565b6000602082019050818103600083015261363b816132da565b9050919050565b600060208201905061365760008301846132fd565b92915050565b600061016082019050613673600083018e6132fd565b613680602083018d6132fd565b61368d604083018c6132fd565b61369a606083018b6132fd565b6136a7608083018a6132fd565b6136b460a0830189612f0d565b6136c160c0830188612f0d565b6136ce60e0830187612f1c565b6136dc610100830186612efe565b6136ea610120830185612efe565b8181036101408301526136fd8184612f42565b90509c9b505050505050505050505050565b6000602082019050613724600083018461330c565b92915050565b6000613734613745565b905061374082826139e2565b919050565b6000604051905090565b600067ffffffffffffffff82111561376a57613769613af3565b5b61377382613b22565b9050602081019050919050565b60008190508160005260206000209050919050565b600081519050919050565b600081519050919050565b600082825260208201905092915050565b600081905092915050565b600082825260208201905092915050565b60006137e382613957565b91506137ee83613957565b9250827fffffffffffffffffffffffffffffffffffffffffffffffffffffffffffffffff0382111561382357613822613a66565b5b828201905092915050565b600061383982613957565b915061384483613957565b92508261385457613853613a95565b5b828204905092915050565b600061386a82613957565b915061387583613957565b9250817fffffffffffffffffffffffffffffffffffffffffffffffffffffffffffffffff04831182151516156138ae576138ad613a66565b5b828202905092915050565b60006138c482613957565b91506138cf83613957565b9250828210156138e2576138e1613a66565b5b828203905092915050565b60006138f882613937565b9050919050565b60008115159050919050565b60007fffffffff0000000000000000000000000000000000000000000000000000000082169050919050565b600073ffffffffffffffffffffffffffffffffffffffff82169050919050565b6000819050919050565b600060ff82169050919050565b82818337600083830152505050565b60005b8381101561399b578082015181840152602081019050613980565b838111156139aa576000848401525b50505050565b600060028204905060018216806139c857607f821691505b602082108114156139dc576139db613ac4565b5b50919050565b6139eb82613b22565b810181811067ffffffffffffffff82111715613a0a57613a09613af3565b5b80604052505050565b6000613a1e82613957565b91507fffffffffffffffffffffffffffffffffffffffffffffffffffffffffffffffff821415613a5157613a50613a66565b5b600182019050919050565b6000819050919050565b7f4e487b7100000000000000000000000000000000000000000000000000000000600052601160045260246000fd5b7f4e487b7100000000000000000000000000000000000000000000000000000000600052601260045260246000fd5b7f4e487b7100000000000000000000000000000000000000000000000000000000600052602260045260246000fd5b7f4e487b7100000000000000000000000000000000000000000000000000000000600052604160045260246000fd5b6000601f19601f8301169050919050565b7f45524332303a207472616e7366657220746f20746865207a65726f206164647260008201527f6573730000000000000000000000000000000000000000000000000000000000602082015250565b7f566f74652068617320616c7265616479206265656e2074616c6c696564000000600082015250565b7f45524332303a20617070726f766520746f20746865207a65726f20616464726560008201527f7373000000000000000000000000000000000000000000000000000000000000602082015250565b7f446973707574652068617320616c7265616479206265656e206578656375746560008201527f6400000000000000000000000000000000000000000000000000000000000000602082015250565b7f54696d6520666f7220766f74696e6720686173206e6f7420656c617073656400600082015250565b7f45524332303a20696e73756666696369656e7420616c6c6f77616e6365000000600082015250565b7f45524332303a207472616e7366657220616d6f756e742065786365656473206260008201527f616c616e63650000000000000000000000000000000000000000000000000000602082015250565b7f6e756d626572206f6620646179732063616e6e6f742062652030000000000000600082015250565b7f7374616b65206d757374206265206174206c656173742033302064617973206f60008201527f6c64210000000000000000000000000000000000000000000000000000000000602082015250565b7f53656e6465722068617320616c726561647920766f7465640000000000000000600082015250565b7f75736572206e6565647320746f207374616b65206d6f726520746f6b656e732060008201527f696e20706f6f6c20746f20737461727420766f74652100000000000000000000602082015250565b7f45524332303a207472616e736665722066726f6d20746865207a65726f20616460008201527f6472657373000000000000000000000000000000000000000000000000000000602082015250565b7f45524332303a20617070726f76652066726f6d20746865207a65726f2061646460008201527f7265737300000000000000000000000000000000000000000000000000000000602082015250565b7f373525206f6620706f6f6c20686173206e6f7420766f74656420796574210000600082015250565b7f63616e206f6e6c7920626520696e6974746564206279207465616d0000000000600082015250565b7f45524332303a2064656372656173656420616c6c6f77616e63652062656c6f7760008201527f207a65726f000000000000000000000000000000000000000000000000000000602082015250565b7f566f746520646f6573206e6f7420657869737400000000000000000000000000600082015250565b7f7374616b6520697320696e6163746976652c206861736e2774206265656e207560008201527f73656420696e2033206d6f6e7468730000000000000000000000000000000000602082015250565b7f45524332303a206d696e7420746f20746865207a65726f206164647265737300600082015250565b613fc3816138ed565b8114613fce57600080fd5b50565b613fda816138ff565b8114613fe557600080fd5b50565b613ff18161390b565b8114613ffc57600080fd5b50565b61400881613957565b811461401357600080fd5b5056fea2646970667358221220fa3fcd9dfdea6853ccc3b0609577d14a14bb69b8c7569646e44d6b942dba7c4664736f6c63430008040033",
  "linkReferences": {},
  "deployedLinkReferences": {}
}