{
  "_format": "hh-sol-artifact-1",
  "contractName": "Governance",
  "sourceName": "contracts/Governance.sol",
  "abi": [
    {
      "inputs": [
        {
          "internalType": "address",
          "name": "_team",
          "type": "address"
        }
      ],
      "stateMutability": "nonpayable",
      "type": "constructor"
    },
    {
      "anonymous": false,
      "inputs": [
        {
          "indexed": true,
          "internalType": "address",
          "name": "owner",
          "type": "address"
        },
        {
          "indexed": true,
          "internalType": "address",
          "name": "spender",
          "type": "address"
        },
        {
          "indexed": false,
          "internalType": "uint256",
          "name": "value",
          "type": "uint256"
        }
      ],
      "name": "Approval",
      "type": "event"
    },
    {
      "anonymous": false,
      "inputs": [
        {
          "indexed": true,
          "internalType": "address",
          "name": "from",
          "type": "address"
        },
        {
          "indexed": true,
          "internalType": "address",
          "name": "to",
          "type": "address"
        },
        {
          "indexed": false,
          "internalType": "uint256",
          "name": "value",
          "type": "uint256"
        }
      ],
      "name": "Transfer",
      "type": "event"
    },
    {
      "inputs": [
        {
          "internalType": "address",
          "name": "owner",
          "type": "address"
        },
        {
          "internalType": "address",
          "name": "spender",
          "type": "address"
        }
      ],
      "name": "allowance",
      "outputs": [
        {
          "internalType": "uint256",
          "name": "",
          "type": "uint256"
        }
      ],
      "stateMutability": "view",
      "type": "function"
    },
    {
      "inputs": [
        {
          "internalType": "address",
          "name": "spender",
          "type": "address"
        },
        {
          "internalType": "uint256",
          "name": "amount",
          "type": "uint256"
        }
      ],
      "name": "approve",
      "outputs": [
        {
          "internalType": "bool",
          "name": "",
          "type": "bool"
        }
      ],
      "stateMutability": "nonpayable",
      "type": "function"
    },
    {
      "inputs": [
        {
          "internalType": "address",
          "name": "account",
          "type": "address"
        }
      ],
      "name": "balanceOf",
      "outputs": [
        {
          "internalType": "uint256",
          "name": "",
          "type": "uint256"
        }
      ],
      "stateMutability": "view",
      "type": "function"
    },
    {
      "inputs": [],
      "name": "decimals",
      "outputs": [
        {
          "internalType": "uint8",
          "name": "",
          "type": "uint8"
        }
      ],
      "stateMutability": "view",
      "type": "function"
    },
    {
      "inputs": [
        {
          "internalType": "address",
          "name": "spender",
          "type": "address"
        },
        {
          "internalType": "uint256",
          "name": "subtractedValue",
          "type": "uint256"
        }
      ],
      "name": "decreaseAllowance",
      "outputs": [
        {
          "internalType": "bool",
          "name": "",
          "type": "bool"
        }
      ],
      "stateMutability": "nonpayable",
      "type": "function"
    },
    {
      "inputs": [
        {
          "internalType": "uint256",
          "name": "_voteCount",
          "type": "uint256"
        }
      ],
      "name": "executeVote",
      "outputs": [],
      "stateMutability": "nonpayable",
      "type": "function"
    },
    {
      "inputs": [
        {
          "internalType": "address",
          "name": "spender",
          "type": "address"
        },
        {
          "internalType": "uint256",
          "name": "addedValue",
          "type": "uint256"
        }
      ],
      "name": "increaseAllowance",
      "outputs": [
        {
          "internalType": "bool",
          "name": "",
          "type": "bool"
        }
      ],
      "stateMutability": "nonpayable",
      "type": "function"
    },
    {
      "inputs": [
        {
          "internalType": "address",
          "name": "_chrysus",
          "type": "address"
        },
        {
          "internalType": "address",
          "name": "_swapSolution",
          "type": "address"
        },
        {
          "internalType": "address",
          "name": "_lending",
          "type": "address"
        },
        {
          "internalType": "address",
          "name": "_stabilityModule",
          "type": "address"
        }
      ],
      "name": "init",
      "outputs": [],
      "stateMutability": "nonpayable",
      "type": "function"
    },
    {
      "inputs": [],
      "name": "lastMintTimestamp",
      "outputs": [
        {
          "internalType": "uint256",
          "name": "",
          "type": "uint256"
        }
      ],
      "stateMutability": "view",
      "type": "function"
    },
    {
      "inputs": [],
      "name": "mintDaily",
      "outputs": [],
      "stateMutability": "nonpayable",
      "type": "function"
    },
    {
      "inputs": [],
      "name": "name",
      "outputs": [
        {
          "internalType": "string",
          "name": "",
          "type": "string"
        }
      ],
      "stateMutability": "view",
      "type": "function"
    },
    {
      "inputs": [
        {
          "internalType": "address",
          "name": "_contract",
          "type": "address"
        },
        {
          "internalType": "bytes4",
          "name": "_function",
          "type": "bytes4"
        },
        {
          "internalType": "bytes",
          "name": "_data",
          "type": "bytes"
        }
      ],
      "name": "proposeVote",
      "outputs": [],
      "stateMutability": "nonpayable",
      "type": "function"
    },
    {
      "inputs": [],
      "name": "symbol",
      "outputs": [
        {
          "internalType": "string",
          "name": "",
          "type": "string"
        }
      ],
      "stateMutability": "view",
      "type": "function"
    },
    {
      "inputs": [],
      "name": "team",
      "outputs": [
        {
          "internalType": "address",
          "name": "",
          "type": "address"
        }
      ],
      "stateMutability": "view",
      "type": "function"
    },
    {
      "inputs": [],
      "name": "totalSupply",
      "outputs": [
        {
          "internalType": "uint256",
          "name": "",
          "type": "uint256"
        }
      ],
      "stateMutability": "view",
      "type": "function"
    },
    {
      "inputs": [
        {
          "internalType": "address",
          "name": "to",
          "type": "address"
        },
        {
          "internalType": "uint256",
          "name": "amount",
          "type": "uint256"
        }
      ],
      "name": "transfer",
      "outputs": [
        {
          "internalType": "bool",
          "name": "",
          "type": "bool"
        }
      ],
      "stateMutability": "nonpayable",
      "type": "function"
    },
    {
      "inputs": [
        {
          "internalType": "address",
          "name": "from",
          "type": "address"
        },
        {
          "internalType": "address",
          "name": "to",
          "type": "address"
        },
        {
          "internalType": "uint256",
          "name": "amount",
          "type": "uint256"
        }
      ],
      "name": "transferFrom",
      "outputs": [
        {
          "internalType": "bool",
          "name": "",
          "type": "bool"
        }
      ],
      "stateMutability": "nonpayable",
      "type": "function"
    },
    {
      "inputs": [
        {
          "internalType": "uint256",
          "name": "_voteCount",
          "type": "uint256"
        },
        {
          "internalType": "bool",
          "name": "_supports",
          "type": "bool"
        },
        {
          "internalType": "bool",
          "name": "_abstains",
          "type": "bool"
        }
      ],
      "name": "vote",
      "outputs": [],
      "stateMutability": "nonpayable",
      "type": "function"
    },
    {
      "inputs": [],
      "name": "voteCount",
      "outputs": [
        {
          "internalType": "uint256",
          "name": "",
          "type": "uint256"
        }
      ],
      "stateMutability": "view",
      "type": "function"
    },
    {
      "inputs": [
        {
          "internalType": "uint256",
          "name": "",
          "type": "uint256"
        }
      ],
      "name": "voteInfo",
      "outputs": [
        {
          "internalType": "uint256",
          "name": "startTime",
          "type": "uint256"
        },
        {
          "internalType": "uint256",
          "name": "tallyTime",
          "type": "uint256"
        },
        {
          "internalType": "uint256",
          "name": "amountSupporting",
          "type": "uint256"
        },
        {
          "internalType": "uint256",
          "name": "amountAgainst",
          "type": "uint256"
        },
        {
          "internalType": "uint256",
          "name": "amountAbstained",
          "type": "uint256"
        },
        {
          "internalType": "bool",
          "name": "executed",
          "type": "bool"
        },
        {
          "internalType": "bool",
          "name": "result",
          "type": "bool"
        },
        {
          "internalType": "bytes4",
          "name": "voteFunction",
          "type": "bytes4"
        },
        {
          "internalType": "address",
          "name": "voteAddress",
          "type": "address"
        },
        {
          "internalType": "address",
          "name": "initiator",
          "type": "address"
        },
        {
          "internalType": "bytes",
          "name": "data",
          "type": "bytes"
        }
      ],
      "stateMutability": "view",
      "type": "function"
    }
  ],
  "bytecode": "0x60806040526000600a553480156200001657600080fd5b50604051620045993803806200459983398181016040528101906200003c9190620003c7565b6040518060400160405280601281526020017f4368727973757320476f7665726e616e636500000000000000000000000000008152506040518060400160405280600381526020017f43475400000000000000000000000000000000000000000000000000000000008152508160039080519060200190620000c092919062000300565b508060049080519060200190620000d992919062000300565b505050600073ffffffffffffffffffffffffffffffffffffffff168173ffffffffffffffffffffffffffffffffffffffff1614156200011757600080fd5b62000135816b025391ee35a05c54d00000006200017d60201b60201c565b80600960006101000a81548173ffffffffffffffffffffffffffffffffffffffff021916908373ffffffffffffffffffffffffffffffffffffffff16021790555050620005ed565b600073ffffffffffffffffffffffffffffffffffffffff168273ffffffffffffffffffffffffffffffffffffffff161415620001f0576040517f08c379a0000000000000000000000000000000000000000000000000000000008152600401620001e7906200042b565b60405180910390fd5b6200020460008383620002f660201b60201c565b80600260008282546200021891906200047b565b92505081905550806000808473ffffffffffffffffffffffffffffffffffffffff1673ffffffffffffffffffffffffffffffffffffffff16815260200190815260200160002060008282546200026f91906200047b565b925050819055508173ffffffffffffffffffffffffffffffffffffffff16600073ffffffffffffffffffffffffffffffffffffffff167fddf252ad1be2c89b69c2b068fc378daa952ba7f163c4a11628f55a4df523b3ef83604051620002d691906200044d565b60405180910390a3620002f260008383620002fb60201b60201c565b5050565b505050565b505050565b8280546200030e9062000516565b90600052602060002090601f0160209004810192826200033257600085556200037e565b82601f106200034d57805160ff19168380011785556200037e565b828001600101855582156200037e579182015b828111156200037d57825182559160200191906001019062000360565b5b5090506200038d919062000391565b5090565b5b80821115620003ac57600081600090555060010162000392565b5090565b600081519050620003c181620005d3565b92915050565b600060208284031215620003da57600080fd5b6000620003ea84828501620003b0565b91505092915050565b600062000402601f836200046a565b91506200040f82620005aa565b602082019050919050565b62000425816200050c565b82525050565b600060208201905081810360008301526200044681620003f3565b9050919050565b60006020820190506200046460008301846200041a565b92915050565b600082825260208201905092915050565b600062000488826200050c565b915062000495836200050c565b9250827fffffffffffffffffffffffffffffffffffffffffffffffffffffffffffffffff03821115620004cd57620004cc6200054c565b5b828201905092915050565b6000620004e582620004ec565b9050919050565b600073ffffffffffffffffffffffffffffffffffffffff82169050919050565b6000819050919050565b600060028204905060018216806200052f57607f821691505b602082108114156200054657620005456200057b565b5b50919050565b7f4e487b7100000000000000000000000000000000000000000000000000000000600052601160045260246000fd5b7f4e487b7100000000000000000000000000000000000000000000000000000000600052602260045260246000fd5b7f45524332303a206d696e7420746f20746865207a65726f206164647265737300600082015250565b620005de81620004d8565b8114620005ea57600080fd5b50565b613f9c80620005fd6000396000f3fe608060405234801561001057600080fd5b506004361061012c5760003560e01c80638494ff35116100ad578063a9059cbb11610071578063a9059cbb14610351578063c638407114610381578063dd62ed3e1461039f578063df133bca146103cf578063f98a4eca146103eb5761012c565b80638494ff351461028d57806385f2aef2146102c75780638e80ff5d146102e557806395d89b4114610303578063a457c2d7146103215761012c565b806323b872dd116100f457806323b872dd146101d5578063313ce56714610205578063395093511461022357806370a0823114610253578063785946f4146102835761012c565b806306552ff31461013157806306fdde031461014d578063095ea7b31461016b57806318160ddd1461019b5780631d7ce898146101b9575b600080fd5b61014b60048036038101906101469190612c9b565b610407565b005b610155610669565b6040516101629190613329565b60405180910390f35b61018560048036038101906101809190612db4565b6106fb565b604051610192919061330e565b60405180910390f35b6101a361071e565b6040516101b091906135bb565b60405180910390f35b6101d360048036038101906101ce9190612d4d565b610728565b005b6101ef60048036038101906101ea9190612cfe565b610f2d565b6040516101fc919061330e565b60405180910390f35b61020d610f5c565b60405161021a9190613688565b60405180910390f35b61023d60048036038101906102389190612db4565b610f65565b60405161024a919061330e565b60405180910390f35b61026d60048036038101906102689190612c36565b610f9c565b60405161027a91906135bb565b60405180910390f35b61028b610fe4565b005b6102a760048036038101906102a29190612e19565b61117d565b6040516102be9b9a999897969594939291906135d6565b60405180910390f35b6102cf6112c6565b6040516102dc91906132f3565b60405180910390f35b6102ed6112ec565b6040516102fa91906135bb565b60405180910390f35b61030b6112f2565b6040516103189190613329565b60405180910390f35b61033b60048036038101906103369190612db4565b611384565b604051610348919061330e565b60405180910390f35b61036b60048036038101906103669190612db4565b6113fb565b604051610378919061330e565b60405180910390f35b61038961141e565b60405161039691906135bb565b60405180910390f35b6103b960048036038101906103b49190612c5f565b611424565b6040516103c691906135bb565b60405180910390f35b6103e960048036038101906103e49190612e6b565b6114ab565b005b61040560048036038101906104009190612e19565b611a26565b005b600960009054906101000a900473ffffffffffffffffffffffffffffffffffffffff1673ffffffffffffffffffffffffffffffffffffffff163373ffffffffffffffffffffffffffffffffffffffff1614610497576040517f08c379a000000000000000000000000000000000000000000000000000000000815260040161048e9061351b565b60405180910390fd5b60001515600560009054906101000a900460ff161515146104b757600080fd5b83600560016101000a81548173ffffffffffffffffffffffffffffffffffffffff021916908373ffffffffffffffffffffffffffffffffffffffff16021790555082600660006101000a81548173ffffffffffffffffffffffffffffffffffffffff021916908373ffffffffffffffffffffffffffffffffffffffff16021790555081600860006101000a81548173ffffffffffffffffffffffffffffffffffffffff021916908373ffffffffffffffffffffffffffffffffffffffff16021790555080600760006101000a81548173ffffffffffffffffffffffffffffffffffffffff021916908373ffffffffffffffffffffffffffffffffffffffff1602179055506001600560006101000a81548160ff021916908315150217905550600760009054906101000a900473ffffffffffffffffffffffffffffffffffffffff1673ffffffffffffffffffffffffffffffffffffffff166355f3aef0336040518263ffffffff1660e01b815260040161063191906132f3565b600060405180830381600087803b15801561064b57600080fd5b505af115801561065f573d6000803e3d6000fd5b5050505050505050565b60606003805461067890613929565b80601f01602080910402602001604051908101604052809291908181526020018280546106a490613929565b80156106f15780601f106106c6576101008083540402835291602001916106f1565b820191906000526020600020905b8154815290600101906020018083116106d457829003601f168201915b5050505050905090565b60008061070661232b565b9050610713818585612333565b600191505092915050565b6000600254905090565b6276a700426107379190613832565b600760009054906101000a900473ffffffffffffffffffffffffffffffffffffffff1673ffffffffffffffffffffffffffffffffffffffff16631054a824336040518263ffffffff1660e01b815260040161079291906132f3565b60a06040518083038186803b1580156107aa57600080fd5b505afa1580156107be573d6000803e3d6000fd5b505050506040513d601f19601f820116820180604052508101906107e29190612df0565b6020015111806108ad57506276a700426107fc9190613832565b600760009054906101000a900473ffffffffffffffffffffffffffffffffffffffff1673ffffffffffffffffffffffffffffffffffffffff16631054a824336040518263ffffffff1660e01b815260040161085791906132f3565b60a06040518083038186803b15801561086f57600080fd5b505afa158015610883573d6000803e3d6000fd5b505050506040513d601f19601f820116820180604052508101906108a79190612df0565b60800151115b6108ec576040517f08c379a00000000000000000000000000000000000000000000000000000000081526004016108e39061357b565b60405180910390fd5b62278d00426108fb9190613832565b600760009054906101000a900473ffffffffffffffffffffffffffffffffffffffff1673ffffffffffffffffffffffffffffffffffffffff16631054a824336040518263ffffffff1660e01b815260040161095691906132f3565b60a06040518083038186803b15801561096e57600080fd5b505afa158015610982573d6000803e3d6000fd5b505050506040513d601f19601f820116820180604052508101906109a69190612df0565b60200151106109ea576040517f08c379a00000000000000000000000000000000000000000000000000000000081526004016109e19061345b565b60405180910390fd5b600560009054906101000a900460ff16610a0357600080fd5b610b036040518060400160405280600681526020017f7374616b65200000000000000000000000000000000000000000000000000000815250670de0b6b3a7640000600760009054906101000a900473ffffffffffffffffffffffffffffffffffffffff1673ffffffffffffffffffffffffffffffffffffffff16631054a824336040518263ffffffff1660e01b8152600401610aa091906132f3565b60a06040518083038186803b158015610ab857600080fd5b505afa158015610acc573d6000803e3d6000fd5b505050506040513d601f19601f82011682018060405250810190610af09190612df0565b60000151610afe91906137a7565b6124fe565b610c006040518060400160405280601381526020017f746f74616c20706f6f6c20616d6f756e742c2000000000000000000000000000815250670de0b6b3a7640000600a600760009054906101000a900473ffffffffffffffffffffffffffffffffffffffff1673ffffffffffffffffffffffffffffffffffffffff16638bf7dd306040518163ffffffff1660e01b815260040160206040518083038186803b158015610baf57600080fd5b505afa158015610bc3573d6000803e3d6000fd5b505050506040513d601f19601f82011682018060405250810190610be79190612e42565b610bf191906137a7565b610bfb91906137a7565b6124fe565b600a600760009054906101000a900473ffffffffffffffffffffffffffffffffffffffff1673ffffffffffffffffffffffffffffffffffffffff16638bf7dd306040518163ffffffff1660e01b815260040160206040518083038186803b158015610c6a57600080fd5b505afa158015610c7e573d6000803e3d6000fd5b505050506040513d601f19601f82011682018060405250810190610ca29190612e42565b610cac91906137a7565b600760009054906101000a900473ffffffffffffffffffffffffffffffffffffffff1673ffffffffffffffffffffffffffffffffffffffff16631054a824336040518263ffffffff1660e01b8152600401610d0791906132f3565b60a06040518083038186803b158015610d1f57600080fd5b505afa158015610d33573d6000803e3d6000fd5b505050506040513d601f19601f82011682018060405250810190610d579190612df0565b6000015111610d9b576040517f08c379a0000000000000000000000000000000000000000000000000000000008152600401610d929061349b565b60405180910390fd5b600b6000815480929190610dae9061398c565b91905055506000600b5490506000600c60008381526020019081526020016000209050338160060160006101000a81548173ffffffffffffffffffffffffffffffffffffffff021916908373ffffffffffffffffffffffffffffffffffffffff160217905550428160000181905550848160050160066101000a81548173ffffffffffffffffffffffffffffffffffffffff021916908373ffffffffffffffffffffffffffffffffffffffff160217905550838160050160026101000a81548163ffffffff021916908360e01c021790555082816007019080519060200190610e98929190612a3a565b50600760009054906101000a900473ffffffffffffffffffffffffffffffffffffffff1673ffffffffffffffffffffffffffffffffffffffff166355f3aef0336040518263ffffffff1660e01b8152600401610ef491906132f3565b600060405180830381600087803b158015610f0e57600080fd5b505af1158015610f22573d6000803e3d6000fd5b505050505050505050565b600080610f3861232b565b9050610f4585828561259a565b610f50858585612626565b60019150509392505050565b60006012905090565b600080610f7061232b565b9050610f91818585610f828589611424565b610f8c9190613751565b612333565b600191505092915050565b60008060008373ffffffffffffffffffffffffffffffffffffffff1673ffffffffffffffffffffffffffffffffffffffff168152602001908152602001600020549050919050565b600062015180600a5442610ff89190613832565b61100291906137a7565b9050611045600560019054906101000a900473ffffffffffffffffffffffffffffffffffffffff1682693f870857a3e0e380000061104091906137d8565b6128a7565b611086600660009054906101000a900473ffffffffffffffffffffffffffffffffffffffff1682693f870857a3e0e380000061108191906137d8565b6128a7565b6110c7600860009054906101000a900473ffffffffffffffffffffffffffffffffffffffff1682693f870857a3e0e38000006110c291906137d8565b6128a7565b6110e6308269152d02c7e14af68000006110e191906137d8565b6128a7565b42600a81905550600760009054906101000a900473ffffffffffffffffffffffffffffffffffffffff1673ffffffffffffffffffffffffffffffffffffffff166355f3aef0336040518263ffffffff1660e01b815260040161114891906132f3565b600060405180830381600087803b15801561116257600080fd5b505af1158015611176573d6000803e3d6000fd5b5050505050565b600c6020528060005260406000206000915090508060000154908060010154908060020154908060030154908060040154908060050160009054906101000a900460ff16908060050160019054906101000a900460ff16908060050160029054906101000a900460e01b908060050160069054906101000a900473ffffffffffffffffffffffffffffffffffffffff16908060060160009054906101000a900473ffffffffffffffffffffffffffffffffffffffff169080600701805461124390613929565b80601f016020809104026020016040519081016040528092919081815260200182805461126f90613929565b80156112bc5780601f10611291576101008083540402835291602001916112bc565b820191906000526020600020905b81548152906001019060200180831161129f57829003601f168201915b505050505090508b565b600960009054906101000a900473ffffffffffffffffffffffffffffffffffffffff1681565b600a5481565b60606004805461130190613929565b80601f016020809104026020016040519081016040528092919081815260200182805461132d90613929565b801561137a5780601f1061134f5761010080835404028352916020019161137a565b820191906000526020600020905b81548152906001019060200180831161135d57829003601f168201915b5050505050905090565b60008061138f61232b565b9050600061139d8286611424565b9050838110156113e2576040517f08c379a00000000000000000000000000000000000000000000000000000000081526004016113d99061353b565b60405180910390fd5b6113ef8286868403612333565b60019250505092915050565b60008061140661232b565b9050611413818585612626565b600191505092915050565b600b5481565b6000600160008473ffffffffffffffffffffffffffffffffffffffff1673ffffffffffffffffffffffffffffffffffffffff16815260200190815260200160002060008373ffffffffffffffffffffffffffffffffffffffff1673ffffffffffffffffffffffffffffffffffffffff16815260200190815260200160002054905092915050565b6276a700426114ba9190613832565b600760009054906101000a900473ffffffffffffffffffffffffffffffffffffffff1673ffffffffffffffffffffffffffffffffffffffff16631054a824336040518263ffffffff1660e01b815260040161151591906132f3565b60a06040518083038186803b15801561152d57600080fd5b505afa158015611541573d6000803e3d6000fd5b505050506040513d601f19601f820116820180604052508101906115659190612df0565b60200151118061163057506276a7004261157f9190613832565b600760009054906101000a900473ffffffffffffffffffffffffffffffffffffffff1673ffffffffffffffffffffffffffffffffffffffff16631054a824336040518263ffffffff1660e01b81526004016115da91906132f3565b60a06040518083038186803b1580156115f257600080fd5b505afa158015611606573d6000803e3d6000fd5b505050506040513d601f19601f8201168201806040525081019061162a9190612df0565b60800151115b61166f576040517f08c379a00000000000000000000000000000000000000000000000000000000081526004016116669061357b565b60405180910390fd5b62278d004261167e9190613832565b600760009054906101000a900473ffffffffffffffffffffffffffffffffffffffff1673ffffffffffffffffffffffffffffffffffffffff16631054a824336040518263ffffffff1660e01b81526004016116d991906132f3565b60a06040518083038186803b1580156116f157600080fd5b505afa158015611705573d6000803e3d6000fd5b505050506040513d601f19601f820116820180604052508101906117299190612df0565b602001511061176d576040517f08c379a00000000000000000000000000000000000000000000000000000000081526004016117649061345b565b60405180910390fd5b600560009054906101000a900460ff1661178657600080fd5b600b548311156117cb576040517f08c379a00000000000000000000000000000000000000000000000000000000081526004016117c29061355b565b60405180910390fd5b6000600c600085815260200190815260200160002090506000816001015414611829576040517f08c379a00000000000000000000000000000000000000000000000000000000081526004016118209061339b565b60405180910390fd5b8060080160003373ffffffffffffffffffffffffffffffffffffffff1673ffffffffffffffffffffffffffffffffffffffff16815260200190815260200160002060009054906101000a900460ff16156118b8576040517f08c379a00000000000000000000000000000000000000000000000000000000081526004016118af9061347b565b60405180910390fd5b60018160080160003373ffffffffffffffffffffffffffffffffffffffff1673ffffffffffffffffffffffffffffffffffffffff16815260200190815260200160002060006101000a81548160ff02191690831515021790555081156119405761192133610f9c565b8160040160008282546119349190613751565b92505081905550611993565b821561196e5761194f33610f9c565b8160020160008282546119629190613751565b92505081905550611992565b61197733610f9c565b81600301600082825461198a9190613751565b925050819055505b5b600760009054906101000a900473ffffffffffffffffffffffffffffffffffffffff1673ffffffffffffffffffffffffffffffffffffffff166355f3aef0336040518263ffffffff1660e01b81526004016119ee91906132f3565b600060405180830381600087803b158015611a0857600080fd5b505af1158015611a1c573d6000803e3d6000fd5b5050505050505050565b6276a70042611a359190613832565b600760009054906101000a900473ffffffffffffffffffffffffffffffffffffffff1673ffffffffffffffffffffffffffffffffffffffff16631054a824336040518263ffffffff1660e01b8152600401611a9091906132f3565b60a06040518083038186803b158015611aa857600080fd5b505afa158015611abc573d6000803e3d6000fd5b505050506040513d601f19601f82011682018060405250810190611ae09190612df0565b602001511180611bab57506276a70042611afa9190613832565b600760009054906101000a900473ffffffffffffffffffffffffffffffffffffffff1673ffffffffffffffffffffffffffffffffffffffff16631054a824336040518263ffffffff1660e01b8152600401611b5591906132f3565b60a06040518083038186803b158015611b6d57600080fd5b505afa158015611b81573d6000803e3d6000fd5b505050506040513d601f19601f82011682018060405250810190611ba59190612df0565b60800151115b611bea576040517f08c379a0000000000000000000000000000000000000000000000000000000008152600401611be19061357b565b60405180910390fd5b62278d0042611bf99190613832565b600760009054906101000a900473ffffffffffffffffffffffffffffffffffffffff1673ffffffffffffffffffffffffffffffffffffffff16631054a824336040518263ffffffff1660e01b8152600401611c5491906132f3565b60a06040518083038186803b158015611c6c57600080fd5b505afa158015611c80573d6000803e3d6000fd5b505050506040513d601f19601f82011682018060405250810190611ca49190612df0565b6020015110611ce8576040517f08c379a0000000000000000000000000000000000000000000000000000000008152600401611cdf9061345b565b60405180910390fd5b600560009054906101000a900460ff16611d0157600080fd5b6000600c60008381526020019081526020016000209050611d796040518060400160405280600481526020017f746f702000000000000000000000000000000000000000000000000000000000815250826004015483600301548460020154611d6a9190613751565b611d749190613751565b6124fe565b611e6f6040518060400160405280600781526020017f626f74746f6d200000000000000000000000000000000000000000000000000081525060046003600760009054906101000a900473ffffffffffffffffffffffffffffffffffffffff1673ffffffffffffffffffffffffffffffffffffffff16638bf7dd306040518163ffffffff1660e01b815260040160206040518083038186803b158015611e1e57600080fd5b505afa158015611e32573d6000803e3d6000fd5b505050506040513d601f19601f82011682018060405250810190611e569190612e42565b611e6091906137d8565b611e6a91906137a7565b6124fe565b60046003600760009054906101000a900473ffffffffffffffffffffffffffffffffffffffff1673ffffffffffffffffffffffffffffffffffffffff16638bf7dd306040518163ffffffff1660e01b815260040160206040518083038186803b158015611edb57600080fd5b505afa158015611eef573d6000803e3d6000fd5b505050506040513d601f19601f82011682018060405250810190611f139190612e42565b611f1d91906137d8565b611f2791906137a7565b816004015482600301548360020154611f409190613751565b611f4a9190613751565b11611f8a576040517f08c379a0000000000000000000000000000000000000000000000000000000008152600401611f81906134fb565b60405180910390fd5b8060050160009054906101000a900460ff1615611fdc576040517f08c379a0000000000000000000000000000000000000000000000000000000008152600401611fd3906133db565b60405180910390fd5b6000816001015414612023576040517f08c379a000000000000000000000000000000000000000000000000000000000815260040161201a9061339b565b60405180910390fd5b600b54821115612068576040517f08c379a000000000000000000000000000000000000000000000000000000000815260040161205f9061355b565b60405180910390fd5b60006202a3009050808260000154426120819190613832565b116120c1576040517f08c379a00000000000000000000000000000000000000000000000000000000081526004016120b8906133fb565b60405180910390fd5b60646033600760009054906101000a900473ffffffffffffffffffffffffffffffffffffffff1673ffffffffffffffffffffffffffffffffffffffff16638bf7dd306040518163ffffffff1660e01b815260040160206040518083038186803b15801561212d57600080fd5b505afa158015612141573d6000803e3d6000fd5b505050506040513d601f19601f820116820180604052508101906121659190612e42565b61216f91906137d8565b61217991906137a7565b8260020154111561227b5760018260050160016101000a81548160ff02191690831515021790555060008260050160069054906101000a900473ffffffffffffffffffffffffffffffffffffffff169050600060608273ffffffffffffffffffffffffffffffffffffffff168560050160029054906101000a900460e01b8660070160405160200161220c9291906132b4565b60405160208183030381529060405260405161222891906132dc565b6000604051808303816000865af19150503d8060008114612265576040519150601f19603f3d011682016040523d82523d6000602084013e61226a565b606091505b508092508193505050505050612299565b60008260050160016101000a81548160ff0219169083151502179055505b600760009054906101000a900473ffffffffffffffffffffffffffffffffffffffff1673ffffffffffffffffffffffffffffffffffffffff166355f3aef0336040518263ffffffff1660e01b81526004016122f491906132f3565b600060405180830381600087803b15801561230e57600080fd5b505af1158015612322573d6000803e3d6000fd5b50505050505050565b600033905090565b600073ffffffffffffffffffffffffffffffffffffffff168373ffffffffffffffffffffffffffffffffffffffff1614156123a3576040517f08c379a000000000000000000000000000000000000000000000000000000000815260040161239a906134db565b60405180910390fd5b600073ffffffffffffffffffffffffffffffffffffffff168273ffffffffffffffffffffffffffffffffffffffff161415612413576040517f08c379a000000000000000000000000000000000000000000000000000000000815260040161240a906133bb565b60405180910390fd5b80600160008573ffffffffffffffffffffffffffffffffffffffff1673ffffffffffffffffffffffffffffffffffffffff16815260200190815260200160002060008473ffffffffffffffffffffffffffffffffffffffff1673ffffffffffffffffffffffffffffffffffffffff168152602001908152602001600020819055508173ffffffffffffffffffffffffffffffffffffffff168373ffffffffffffffffffffffffffffffffffffffff167f8c5be1e5ebec7d5bd14f71427d1e84f3dd0314c0f7b2291e5b200ac8c7c3b925836040516124f191906135bb565b60405180910390a3505050565b612596828260405160240161251492919061334b565b6040516020818303038152906040527f9710a9d0000000000000000000000000000000000000000000000000000000007bffffffffffffffffffffffffffffffffffffffffffffffffffffffff19166020820180517bffffffffffffffffffffffffffffffffffffffffffffffffffffffff8381831617835250505050612a07565b5050565b60006125a68484611424565b90507fffffffffffffffffffffffffffffffffffffffffffffffffffffffffffffffff81146126205781811015612612576040517f08c379a00000000000000000000000000000000000000000000000000000000081526004016126099061341b565b60405180910390fd5b61261f8484848403612333565b5b50505050565b600073ffffffffffffffffffffffffffffffffffffffff168373ffffffffffffffffffffffffffffffffffffffff161415612696576040517f08c379a000000000000000000000000000000000000000000000000000000000815260040161268d906134bb565b60405180910390fd5b600073ffffffffffffffffffffffffffffffffffffffff168273ffffffffffffffffffffffffffffffffffffffff161415612706576040517f08c379a00000000000000000000000000000000000000000000000000000000081526004016126fd9061337b565b60405180910390fd5b612711838383612a30565b60008060008573ffffffffffffffffffffffffffffffffffffffff1673ffffffffffffffffffffffffffffffffffffffff16815260200190815260200160002054905081811015612797576040517f08c379a000000000000000000000000000000000000000000000000000000000815260040161278e9061343b565b60405180910390fd5b8181036000808673ffffffffffffffffffffffffffffffffffffffff1673ffffffffffffffffffffffffffffffffffffffff16815260200190815260200160002081905550816000808573ffffffffffffffffffffffffffffffffffffffff1673ffffffffffffffffffffffffffffffffffffffff168152602001908152602001600020600082825461282a9190613751565b925050819055508273ffffffffffffffffffffffffffffffffffffffff168473ffffffffffffffffffffffffffffffffffffffff167fddf252ad1be2c89b69c2b068fc378daa952ba7f163c4a11628f55a4df523b3ef8460405161288e91906135bb565b60405180910390a36128a1848484612a35565b50505050565b600073ffffffffffffffffffffffffffffffffffffffff168273ffffffffffffffffffffffffffffffffffffffff161415612917576040517f08c379a000000000000000000000000000000000000000000000000000000000815260040161290e9061359b565b60405180910390fd5b61292360008383612a30565b80600260008282546129359190613751565b92505081905550806000808473ffffffffffffffffffffffffffffffffffffffff1673ffffffffffffffffffffffffffffffffffffffff168152602001908152602001600020600082825461298a9190613751565b925050819055508173ffffffffffffffffffffffffffffffffffffffff16600073ffffffffffffffffffffffffffffffffffffffff167fddf252ad1be2c89b69c2b068fc378daa952ba7f163c4a11628f55a4df523b3ef836040516129ef91906135bb565b60405180910390a3612a0360008383612a35565b5050565b60008151905060006a636f6e736f6c652e6c6f679050602083016000808483855afa5050505050565b505050565b505050565b828054612a4690613929565b90600052602060002090601f016020900481019282612a685760008555612aaf565b82601f10612a8157805160ff1916838001178555612aaf565b82800160010185558215612aaf579182015b82811115612aae578251825591602001919060010190612a93565b5b509050612abc9190612ac0565b5090565b5b80821115612ad9576000816000905550600101612ac1565b5090565b6000612af0612aeb846136c8565b6136a3565b905082815260208101848484011115612b0857600080fd5b612b138482856138e7565b509392505050565b600081359050612b2a81613f0a565b92915050565b600081359050612b3f81613f21565b92915050565b600081359050612b5481613f38565b92915050565b600082601f830112612b6b57600080fd5b8135612b7b848260208601612add565b91505092915050565b600060a08284031215612b9657600080fd5b612ba060a06136a3565b90506000612bb084828501612c21565b6000830152506020612bc484828501612c21565b6020830152506040612bd884828501612c21565b6040830152506060612bec84828501612c21565b6060830152506080612c0084828501612c21565b60808301525092915050565b600081359050612c1b81613f4f565b92915050565b600081519050612c3081613f4f565b92915050565b600060208284031215612c4857600080fd5b6000612c5684828501612b1b565b91505092915050565b60008060408385031215612c7257600080fd5b6000612c8085828601612b1b565b9250506020612c9185828601612b1b565b9150509250929050565b60008060008060808587031215612cb157600080fd5b6000612cbf87828801612b1b565b9450506020612cd087828801612b1b565b9350506040612ce187828801612b1b565b9250506060612cf287828801612b1b565b91505092959194509250565b600080600060608486031215612d1357600080fd5b6000612d2186828701612b1b565b9350506020612d3286828701612b1b565b9250506040612d4386828701612c0c565b9150509250925092565b600080600060608486031215612d6257600080fd5b6000612d7086828701612b1b565b9350506020612d8186828701612b45565b925050604084013567ffffffffffffffff811115612d9e57600080fd5b612daa86828701612b5a565b9150509250925092565b60008060408385031215612dc757600080fd5b6000612dd585828601612b1b565b9250506020612de685828601612c0c565b9150509250929050565b600060a08284031215612e0257600080fd5b6000612e1084828501612b84565b91505092915050565b600060208284031215612e2b57600080fd5b6000612e3984828501612c0c565b91505092915050565b600060208284031215612e5457600080fd5b6000612e6284828501612c21565b91505092915050565b600080600060608486031215612e8057600080fd5b6000612e8e86828701612c0c565b9350506020612e9f86828701612b30565b9250506040612eb086828701612b30565b9150509250925092565b612ec381613866565b82525050565b612ed281613878565b82525050565b612ee181613884565b82525050565b612ef8612ef382613884565b6139d5565b82525050565b6000612f098261370e565b612f138185613724565b9350612f238185602086016138f6565b612f2c81613a9b565b840191505092915050565b6000612f428261370e565b612f4c8185613735565b9350612f5c8185602086016138f6565b80840191505092915050565b60008154612f7581613929565b612f7f8186613735565b94506001821660008114612f9a5760018114612fab57612fde565b60ff19831686528186019350612fde565b612fb4856136f9565b60005b83811015612fd657815481890152600182019150602081019050612fb7565b838801955050505b50505092915050565b6000612ff282613719565b612ffc8185613740565b935061300c8185602086016138f6565b61301581613a9b565b840191505092915050565b600061302d602383613740565b915061303882613aac565b604082019050919050565b6000613050601d83613740565b915061305b82613afb565b602082019050919050565b6000613073602283613740565b915061307e82613b24565b604082019050919050565b6000613096602183613740565b91506130a182613b73565b604082019050919050565b60006130b9601f83613740565b91506130c482613bc2565b602082019050919050565b60006130dc601d83613740565b91506130e782613beb565b602082019050919050565b60006130ff602683613740565b915061310a82613c14565b604082019050919050565b6000613122602383613740565b915061312d82613c63565b604082019050919050565b6000613145601883613740565b915061315082613cb2565b602082019050919050565b6000613168603683613740565b915061317382613cdb565b604082019050919050565b600061318b602583613740565b915061319682613d2a565b604082019050919050565b60006131ae602483613740565b91506131b982613d79565b604082019050919050565b60006131d1601e83613740565b91506131dc82613dc8565b602082019050919050565b60006131f4601b83613740565b91506131ff82613df1565b602082019050919050565b6000613217602583613740565b915061322282613e1a565b604082019050919050565b600061323a601383613740565b915061324582613e69565b602082019050919050565b600061325d602f83613740565b915061326882613e92565b604082019050919050565b6000613280601f83613740565b915061328b82613ee1565b602082019050919050565b61329f816138d0565b82525050565b6132ae816138da565b82525050565b60006132c08285612ee7565b6004820191506132d08284612f68565b91508190509392505050565b60006132e88284612f37565b915081905092915050565b60006020820190506133086000830184612eba565b92915050565b60006020820190506133236000830184612ec9565b92915050565b600060208201905081810360008301526133438184612fe7565b905092915050565b600060408201905081810360008301526133658185612fe7565b90506133746020830184613296565b9392505050565b6000602082019050818103600083015261339481613020565b9050919050565b600060208201905081810360008301526133b481613043565b9050919050565b600060208201905081810360008301526133d481613066565b9050919050565b600060208201905081810360008301526133f481613089565b9050919050565b60006020820190508181036000830152613414816130ac565b9050919050565b60006020820190508181036000830152613434816130cf565b9050919050565b60006020820190508181036000830152613454816130f2565b9050919050565b6000602082019050818103600083015261347481613115565b9050919050565b6000602082019050818103600083015261349481613138565b9050919050565b600060208201905081810360008301526134b48161315b565b9050919050565b600060208201905081810360008301526134d48161317e565b9050919050565b600060208201905081810360008301526134f4816131a1565b9050919050565b60006020820190508181036000830152613514816131c4565b9050919050565b60006020820190508181036000830152613534816131e7565b9050919050565b600060208201905081810360008301526135548161320a565b9050919050565b600060208201905081810360008301526135748161322d565b9050919050565b6000602082019050818103600083015261359481613250565b9050919050565b600060208201905081810360008301526135b481613273565b9050919050565b60006020820190506135d06000830184613296565b92915050565b6000610160820190506135ec600083018e613296565b6135f9602083018d613296565b613606604083018c613296565b613613606083018b613296565b613620608083018a613296565b61362d60a0830189612ec9565b61363a60c0830188612ec9565b61364760e0830187612ed8565b613655610100830186612eba565b613663610120830185612eba565b8181036101408301526136768184612efe565b90509c9b505050505050505050505050565b600060208201905061369d60008301846132a5565b92915050565b60006136ad6136be565b90506136b9828261395b565b919050565b6000604051905090565b600067ffffffffffffffff8211156136e3576136e2613a6c565b5b6136ec82613a9b565b9050602081019050919050565b60008190508160005260206000209050919050565b600081519050919050565b600081519050919050565b600082825260208201905092915050565b600081905092915050565b600082825260208201905092915050565b600061375c826138d0565b9150613767836138d0565b9250827fffffffffffffffffffffffffffffffffffffffffffffffffffffffffffffffff0382111561379c5761379b6139df565b5b828201905092915050565b60006137b2826138d0565b91506137bd836138d0565b9250826137cd576137cc613a0e565b5b828204905092915050565b60006137e3826138d0565b91506137ee836138d0565b9250817fffffffffffffffffffffffffffffffffffffffffffffffffffffffffffffffff0483118215151615613827576138266139df565b5b828202905092915050565b600061383d826138d0565b9150613848836138d0565b92508282101561385b5761385a6139df565b5b828203905092915050565b6000613871826138b0565b9050919050565b60008115159050919050565b60007fffffffff0000000000000000000000000000000000000000000000000000000082169050919050565b600073ffffffffffffffffffffffffffffffffffffffff82169050919050565b6000819050919050565b600060ff82169050919050565b82818337600083830152505050565b60005b838110156139145780820151818401526020810190506138f9565b83811115613923576000848401525b50505050565b6000600282049050600182168061394157607f821691505b6020821081141561395557613954613a3d565b5b50919050565b61396482613a9b565b810181811067ffffffffffffffff8211171561398357613982613a6c565b5b80604052505050565b6000613997826138d0565b91507fffffffffffffffffffffffffffffffffffffffffffffffffffffffffffffffff8214156139ca576139c96139df565b5b600182019050919050565b6000819050919050565b7f4e487b7100000000000000000000000000000000000000000000000000000000600052601160045260246000fd5b7f4e487b7100000000000000000000000000000000000000000000000000000000600052601260045260246000fd5b7f4e487b7100000000000000000000000000000000000000000000000000000000600052602260045260246000fd5b7f4e487b7100000000000000000000000000000000000000000000000000000000600052604160045260246000fd5b6000601f19601f8301169050919050565b7f45524332303a207472616e7366657220746f20746865207a65726f206164647260008201527f6573730000000000000000000000000000000000000000000000000000000000602082015250565b7f566f74652068617320616c7265616479206265656e2074616c6c696564000000600082015250565b7f45524332303a20617070726f766520746f20746865207a65726f20616464726560008201527f7373000000000000000000000000000000000000000000000000000000000000602082015250565b7f446973707574652068617320616c7265616479206265656e206578656375746560008201527f6400000000000000000000000000000000000000000000000000000000000000602082015250565b7f54696d6520666f7220766f74696e6720686173206e6f7420656c617073656400600082015250565b7f45524332303a20696e73756666696369656e7420616c6c6f77616e6365000000600082015250565b7f45524332303a207472616e7366657220616d6f756e742065786365656473206260008201527f616c616e63650000000000000000000000000000000000000000000000000000602082015250565b7f7374616b65206d757374206265206174206c656173742033302064617973206f60008201527f6c64210000000000000000000000000000000000000000000000000000000000602082015250565b7f53656e6465722068617320616c726561647920766f7465640000000000000000600082015250565b7f75736572206e6565647320746f207374616b65206d6f726520746f6b656e732060008201527f696e20706f6f6c20746f20737461727420766f74652100000000000000000000602082015250565b7f45524332303a207472616e736665722066726f6d20746865207a65726f20616460008201527f6472657373000000000000000000000000000000000000000000000000000000602082015250565b7f45524332303a20617070726f76652066726f6d20746865207a65726f2061646460008201527f7265737300000000000000000000000000000000000000000000000000000000602082015250565b7f373525206f6620706f6f6c20686173206e6f7420766f74656420796574210000600082015250565b7f63616e206f6e6c7920626520696e6974746564206279207465616d0000000000600082015250565b7f45524332303a2064656372656173656420616c6c6f77616e63652062656c6f7760008201527f207a65726f000000000000000000000000000000000000000000000000000000602082015250565b7f566f746520646f6573206e6f7420657869737400000000000000000000000000600082015250565b7f7374616b6520697320696e6163746976652c206861736e2774206265656e207560008201527f73656420696e2033206d6f6e7468730000000000000000000000000000000000602082015250565b7f45524332303a206d696e7420746f20746865207a65726f206164647265737300600082015250565b613f1381613866565b8114613f1e57600080fd5b50565b613f2a81613878565b8114613f3557600080fd5b50565b613f4181613884565b8114613f4c57600080fd5b50565b613f58816138d0565b8114613f6357600080fd5b5056fea264697066735822122043a8a8ed66ec19d517b150c7acabf8376c4bab28a31548f40569d61948da3ef864736f6c63430008040033",
  "linkReferences": {},
  "deployedLinkReferences": {}
}