{
  "_format": "hh-sol-artifact-1",
  "contractName": "Chrysus",
  "sourceName": "contracts/Chrysus.sol",
  "abi": [
    {
      "inputs": [
        {
          "internalType": "address",
          "name": "_daiAddress",
          "type": "address"
        },
        {
          "internalType": "address",
          "name": "_oracleDAI",
          "type": "address"
        },
        {
          "internalType": "address",
          "name": "_oracleETH",
          "type": "address"
        },
        {
          "internalType": "address",
          "name": "_oracleCHC",
          "type": "address"
        },
        {
          "internalType": "address",
          "name": "_oracleXAU",
          "type": "address"
        },
        {
          "internalType": "address",
          "name": "_governance",
          "type": "address"
        },
        {
          "internalType": "address",
          "name": "_treasury",
          "type": "address"
        },
        {
          "internalType": "address",
          "name": "_auction",
          "type": "address"
        },
        {
          "internalType": "contract ISwapRouter",
          "name": "_swapRouter",
          "type": "address"
        },
        {
          "internalType": "address",
          "name": "_swapSolution",
          "type": "address"
        },
        {
          "internalType": "address",
          "name": "_stabilityModule",
          "type": "address"
        }
      ],
      "stateMutability": "nonpayable",
      "type": "constructor"
    },
    {
      "anonymous": false,
      "inputs": [
        {
          "indexed": true,
          "internalType": "address",
          "name": "owner",
          "type": "address"
        },
        {
          "indexed": true,
          "internalType": "address",
          "name": "spender",
          "type": "address"
        },
        {
          "indexed": false,
          "internalType": "uint256",
          "name": "value",
          "type": "uint256"
        }
      ],
      "name": "Approval",
      "type": "event"
    },
    {
      "anonymous": false,
      "inputs": [
        {
          "indexed": true,
          "internalType": "address",
          "name": "from",
          "type": "address"
        },
        {
          "indexed": true,
          "internalType": "address",
          "name": "to",
          "type": "address"
        },
        {
          "indexed": false,
          "internalType": "uint256",
          "name": "value",
          "type": "uint256"
        }
      ],
      "name": "Transfer",
      "type": "event"
    },
    {
      "inputs": [
        {
          "internalType": "address",
          "name": "_collateralType",
          "type": "address"
        },
        {
          "internalType": "uint256",
          "name": "_collateralRequirement",
          "type": "uint256"
        },
        {
          "internalType": "address",
          "name": "_oracleAddress",
          "type": "address"
        }
      ],
      "name": "addCollateralType",
      "outputs": [],
      "stateMutability": "nonpayable",
      "type": "function"
    },
    {
      "inputs": [
        {
          "internalType": "address",
          "name": "owner",
          "type": "address"
        },
        {
          "internalType": "address",
          "name": "spender",
          "type": "address"
        }
      ],
      "name": "allowance",
      "outputs": [
        {
          "internalType": "uint256",
          "name": "",
          "type": "uint256"
        }
      ],
      "stateMutability": "view",
      "type": "function"
    },
    {
      "inputs": [
        {
          "internalType": "address",
          "name": "spender",
          "type": "address"
        },
        {
          "internalType": "uint256",
          "name": "amount",
          "type": "uint256"
        }
      ],
      "name": "approve",
      "outputs": [
        {
          "internalType": "bool",
          "name": "",
          "type": "bool"
        }
      ],
      "stateMutability": "nonpayable",
      "type": "function"
    },
    {
      "inputs": [
        {
          "internalType": "address",
          "name": "",
          "type": "address"
        }
      ],
      "name": "approvedCollateral",
      "outputs": [
        {
          "internalType": "bool",
          "name": "approved",
          "type": "bool"
        },
        {
          "internalType": "uint256",
          "name": "balance",
          "type": "uint256"
        },
        {
          "internalType": "uint256",
          "name": "fees",
          "type": "uint256"
        },
        {
          "internalType": "uint256",
          "name": "collateralRequirement",
          "type": "uint256"
        },
        {
          "internalType": "contract AggregatorV3Interface",
          "name": "oracle",
          "type": "address"
        }
      ],
      "stateMutability": "view",
      "type": "function"
    },
    {
      "inputs": [
        {
          "internalType": "uint256",
          "name": "",
          "type": "uint256"
        }
      ],
      "name": "approvedTokens",
      "outputs": [
        {
          "internalType": "address",
          "name": "",
          "type": "address"
        }
      ],
      "stateMutability": "view",
      "type": "function"
    },
    {
      "inputs": [],
      "name": "auction",
      "outputs": [
        {
          "internalType": "address",
          "name": "",
          "type": "address"
        }
      ],
      "stateMutability": "view",
      "type": "function"
    },
    {
      "inputs": [
        {
          "internalType": "address",
          "name": "account",
          "type": "address"
        }
      ],
      "name": "balanceOf",
      "outputs": [
        {
          "internalType": "uint256",
          "name": "",
          "type": "uint256"
        }
      ],
      "stateMutability": "view",
      "type": "function"
    },
    {
      "inputs": [],
      "name": "collateralRatio",
      "outputs": [
        {
          "internalType": "uint256",
          "name": "",
          "type": "uint256"
        }
      ],
      "stateMutability": "view",
      "type": "function"
    },
    {
      "inputs": [],
      "name": "collateralizationRatio",
      "outputs": [
        {
          "internalType": "uint256",
          "name": "",
          "type": "uint256"
        }
      ],
      "stateMutability": "view",
      "type": "function"
    },
    {
      "inputs": [],
      "name": "decimals",
      "outputs": [
        {
          "internalType": "uint8",
          "name": "",
          "type": "uint8"
        }
      ],
      "stateMutability": "view",
      "type": "function"
    },
    {
      "inputs": [
        {
          "internalType": "address",
          "name": "spender",
          "type": "address"
        },
        {
          "internalType": "uint256",
          "name": "subtractedValue",
          "type": "uint256"
        }
      ],
      "name": "decreaseAllowance",
      "outputs": [
        {
          "internalType": "bool",
          "name": "",
          "type": "bool"
        }
      ],
      "stateMutability": "nonpayable",
      "type": "function"
    },
    {
      "inputs": [
        {
          "internalType": "address",
          "name": "_collateralType",
          "type": "address"
        },
        {
          "internalType": "uint256",
          "name": "_amount",
          "type": "uint256"
        }
      ],
      "name": "depositCollateral",
      "outputs": [],
      "stateMutability": "payable",
      "type": "function"
    },
    {
      "inputs": [],
      "name": "ethBalance",
      "outputs": [
        {
          "internalType": "uint256",
          "name": "",
          "type": "uint256"
        }
      ],
      "stateMutability": "view",
      "type": "function"
    },
    {
      "inputs": [],
      "name": "ethFees",
      "outputs": [
        {
          "internalType": "uint256",
          "name": "",
          "type": "uint256"
        }
      ],
      "stateMutability": "view",
      "type": "function"
    },
    {
      "inputs": [],
      "name": "governance",
      "outputs": [
        {
          "internalType": "address",
          "name": "",
          "type": "address"
        }
      ],
      "stateMutability": "view",
      "type": "function"
    },
    {
      "inputs": [
        {
          "internalType": "address",
          "name": "spender",
          "type": "address"
        },
        {
          "internalType": "uint256",
          "name": "addedValue",
          "type": "uint256"
        }
      ],
      "name": "increaseAllowance",
      "outputs": [
        {
          "internalType": "bool",
          "name": "",
          "type": "bool"
        }
      ],
      "stateMutability": "nonpayable",
      "type": "function"
    },
    {
      "inputs": [
        {
          "internalType": "address",
          "name": "_collateralType",
          "type": "address"
        }
      ],
      "name": "liquidate",
      "outputs": [],
      "stateMutability": "nonpayable",
      "type": "function"
    },
    {
      "inputs": [],
      "name": "liquidationRatio",
      "outputs": [
        {
          "internalType": "uint256",
          "name": "",
          "type": "uint256"
        }
      ],
      "stateMutability": "view",
      "type": "function"
    },
    {
      "inputs": [],
      "name": "name",
      "outputs": [
        {
          "internalType": "string",
          "name": "",
          "type": "string"
        }
      ],
      "stateMutability": "view",
      "type": "function"
    },
    {
      "inputs": [],
      "name": "pair",
      "outputs": [
        {
          "internalType": "contract IUniswapV2Pair",
          "name": "",
          "type": "address"
        }
      ],
      "stateMutability": "view",
      "type": "function"
    },
    {
      "inputs": [],
      "name": "stabilityModule",
      "outputs": [
        {
          "internalType": "contract IStabilityModule",
          "name": "",
          "type": "address"
        }
      ],
      "stateMutability": "view",
      "type": "function"
    },
    {
      "inputs": [],
      "name": "swapRouter",
      "outputs": [
        {
          "internalType": "contract ISwapRouter",
          "name": "",
          "type": "address"
        }
      ],
      "stateMutability": "view",
      "type": "function"
    },
    {
      "inputs": [],
      "name": "swapSolution",
      "outputs": [
        {
          "internalType": "contract ISwap",
          "name": "",
          "type": "address"
        }
      ],
      "stateMutability": "view",
      "type": "function"
    },
    {
      "inputs": [],
      "name": "symbol",
      "outputs": [
        {
          "internalType": "string",
          "name": "",
          "type": "string"
        }
      ],
      "stateMutability": "view",
      "type": "function"
    },
    {
      "inputs": [],
      "name": "totalSupply",
      "outputs": [
        {
          "internalType": "uint256",
          "name": "",
          "type": "uint256"
        }
      ],
      "stateMutability": "view",
      "type": "function"
    },
    {
      "inputs": [
        {
          "internalType": "address",
          "name": "to",
          "type": "address"
        },
        {
          "internalType": "uint256",
          "name": "amount",
          "type": "uint256"
        }
      ],
      "name": "transfer",
      "outputs": [
        {
          "internalType": "bool",
          "name": "",
          "type": "bool"
        }
      ],
      "stateMutability": "nonpayable",
      "type": "function"
    },
    {
      "inputs": [
        {
          "internalType": "address",
          "name": "from",
          "type": "address"
        },
        {
          "internalType": "address",
          "name": "to",
          "type": "address"
        },
        {
          "internalType": "uint256",
          "name": "amount",
          "type": "uint256"
        }
      ],
      "name": "transferFrom",
      "outputs": [
        {
          "internalType": "bool",
          "name": "",
          "type": "bool"
        }
      ],
      "stateMutability": "nonpayable",
      "type": "function"
    },
    {
      "inputs": [],
      "name": "treasury",
      "outputs": [
        {
          "internalType": "address",
          "name": "",
          "type": "address"
        }
      ],
      "stateMutability": "view",
      "type": "function"
    },
    {
      "inputs": [
        {
          "internalType": "address",
          "name": "",
          "type": "address"
        },
        {
          "internalType": "address",
          "name": "",
          "type": "address"
        }
      ],
      "name": "userDeposits",
      "outputs": [
        {
          "internalType": "uint256",
          "name": "deposited",
          "type": "uint256"
        },
        {
          "internalType": "uint256",
          "name": "minted",
          "type": "uint256"
        }
      ],
      "stateMutability": "view",
      "type": "function"
    },
    {
      "inputs": [
        {
          "internalType": "address",
          "name": "_collateralType",
          "type": "address"
        },
        {
          "internalType": "uint256",
          "name": "_amount",
          "type": "uint256"
        }
      ],
      "name": "withdrawCollateral",
      "outputs": [],
      "stateMutability": "nonpayable",
      "type": "function"
    },
    {
      "inputs": [],
      "name": "withdrawFees",
      "outputs": [],
      "stateMutability": "nonpayable",
      "type": "function"
    },
    {
      "stateMutability": "payable",
      "type": "receive"
    }
  ],
  "bytecode": "0x60a06040523480156200001157600080fd5b5060405162005fe938038062005fe98339818101604052810190620000379190620008f2565b6040518060400160405280600781526020017f43687279737573000000000000000000000000000000000000000000000000008152506040518060400160405280600381526020017f43484300000000000000000000000000000000000000000000000000000000008152508160039080519060200190620000bb92919062000814565b508060049080519060200190620000d492919062000814565b505050600073ffffffffffffffffffffffffffffffffffffffff168b73ffffffffffffffffffffffffffffffffffffffff1614156200011257600080fd5b600073ffffffffffffffffffffffffffffffffffffffff168a73ffffffffffffffffffffffffffffffffffffffff1614156200014d57600080fd5b600073ffffffffffffffffffffffffffffffffffffffff168973ffffffffffffffffffffffffffffffffffffffff1614156200018857600080fd5b600073ffffffffffffffffffffffffffffffffffffffff168773ffffffffffffffffffffffffffffffffffffffff161415620001c357600080fd5b600073ffffffffffffffffffffffffffffffffffffffff168673ffffffffffffffffffffffffffffffffffffffff161415620001fe57600080fd5b600073ffffffffffffffffffffffffffffffffffffffff168573ffffffffffffffffffffffffffffffffffffffff1614156200023957600080fd5b600073ffffffffffffffffffffffffffffffffffffffff168473ffffffffffffffffffffffffffffffffffffffff1614156200027457600080fd5b600073ffffffffffffffffffffffffffffffffffffffff168273ffffffffffffffffffffffffffffffffffffffff161415620002af57600080fd5b600073ffffffffffffffffffffffffffffffffffffffff168173ffffffffffffffffffffffffffffffffffffffff161415620002ea57600080fd5b63068e77806005819055506001601360008d73ffffffffffffffffffffffffffffffffffffffff1673ffffffffffffffffffffffffffffffffffffffff16815260200190815260200160002060000160006101000a81548160ff0219169083151502179055506001601360008073ffffffffffffffffffffffffffffffffffffffff1673ffffffffffffffffffffffffffffffffffffffff16815260200190815260200160002060000160006101000a81548160ff02191690831515021790555060098b9080600181540180825580915050600190039060005260206000200160009091909190916101000a81548173ffffffffffffffffffffffffffffffffffffffff021916908373ffffffffffffffffffffffffffffffffffffffff160217905550600960009080600181540180825580915050600190039060005260206000200160009091909190916101000a81548173ffffffffffffffffffffffffffffffffffffffff021916908373ffffffffffffffffffffffffffffffffffffffff16021790555089601360008d73ffffffffffffffffffffffffffffffffffffffff1673ffffffffffffffffffffffffffffffffffffffff16815260200190815260200160002060040160006101000a81548173ffffffffffffffffffffffffffffffffffffffff021916908373ffffffffffffffffffffffffffffffffffffffff16021790555088601360008073ffffffffffffffffffffffffffffffffffffffff1673ffffffffffffffffffffffffffffffffffffffff16815260200190815260200160002060040160006101000a81548173ffffffffffffffffffffffffffffffffffffffff021916908373ffffffffffffffffffffffffffffffffffffffff16021790555061010b601360008d73ffffffffffffffffffffffffffffffffffffffff1673ffffffffffffffffffffffffffffffffffffffff168152602001908152602001600020600301819055506078601360008073ffffffffffffffffffffffffffffffffffffffff1673ffffffffffffffffffffffffffffffffffffffff1681526020019081526020016000206003018190555087600a60006101000a81548173ffffffffffffffffffffffffffffffffffffffff021916908373ffffffffffffffffffffffffffffffffffffffff16021790555086600b60006101000a81548173ffffffffffffffffffffffffffffffffffffffff021916908373ffffffffffffffffffffffffffffffffffffffff16021790555085600f60006101000a81548173ffffffffffffffffffffffffffffffffffffffff021916908373ffffffffffffffffffffffffffffffffffffffff16021790555084601060006101000a81548173ffffffffffffffffffffffffffffffffffffffff021916908373ffffffffffffffffffffffffffffffffffffffff16021790555083601160006101000a81548173ffffffffffffffffffffffffffffffffffffffff021916908373ffffffffffffffffffffffffffffffffffffffff1602179055508273ffffffffffffffffffffffffffffffffffffffff1660808173ffffffffffffffffffffffffffffffffffffffff1660601b8152505081600c60006101000a81548173ffffffffffffffffffffffffffffffffffffffff021916908373ffffffffffffffffffffffffffffffffffffffff16021790555080600d60006101000a81548173ffffffffffffffffffffffffffffffffffffffff021916908373ffffffffffffffffffffffffffffffffffffffff160217905550505050505050505050505062000ada565b828054620008229062000a41565b90600052602060002090601f01602090048101928262000846576000855562000892565b82601f106200086157805160ff191683800117855562000892565b8280016001018555821562000892579182015b828111156200089157825182559160200191906001019062000874565b5b509050620008a19190620008a5565b5090565b5b80821115620008c0576000816000905550600101620008a6565b5090565b600081519050620008d58162000aa6565b92915050565b600081519050620008ec8162000ac0565b92915050565b60008060008060008060008060008060006101608c8e0312156200091557600080fd5b6000620009258e828f01620008c4565b9b50506020620009388e828f01620008c4565b9a505060406200094b8e828f01620008c4565b99505060606200095e8e828f01620008c4565b9850506080620009718e828f01620008c4565b97505060a0620009848e828f01620008c4565b96505060c0620009978e828f01620008c4565b95505060e0620009aa8e828f01620008c4565b945050610100620009be8e828f01620008db565b935050610120620009d28e828f01620008c4565b925050610140620009e68e828f01620008c4565b9150509295989b509295989b9093969950565b600062000a068262000a21565b9050919050565b600062000a1a82620009f9565b9050919050565b600073ffffffffffffffffffffffffffffffffffffffff82169050919050565b6000600282049050600182168062000a5a57607f821691505b6020821081141562000a715762000a7062000a77565b5b50919050565b7f4e487b7100000000000000000000000000000000000000000000000000000000600052602260045260246000fd5b62000ab181620009f9565b811462000abd57600080fd5b50565b62000acb8162000a0d565b811462000ad757600080fd5b50565b60805160601c6154db62000b0e6000396000818161149d01528181611615015281816116ce0152612d9a01526154db6000f3fe6080604052600436106101dc5760003560e01c8063694c755f11610102578063a9059cbb11610095578063dcaf9c4411610064578063dcaf9c44146106fc578063dd62ed3e14610727578063ea061ad414610764578063ef048a781461078f576101ee565b8063a9059cbb14610628578063b050b67214610665578063b4eae1cb146106a6578063c31c9c07146106d1576101ee565b806395d89b41116100d157806395d89b4114610579578063a457c2d7146105a4578063a5d5db0c146105e1578063a8aa1b31146105fd576101ee565b8063694c755f146104bb57806370a08231146104e65780637d9f6db5146105235780638fe447291461054e576101ee565b8063313ce5671161017a578063476343ee11610149578063476343ee146104235780634e6630b01461043a5780635aa6e6751461046557806361d027b314610490576101ee565b8063313ce56714610354578063350c35e91461037f57806339509351146103a8578063436d8039146103e5576101ee565b806318160ddd116101b657806318160ddd146102865780631dafede0146102b157806323b872dd146102ee5780632f8655681461032b576101ee565b806306fdde03146101f3578063095ea7b31461021e5780631775765f1461025b576101ee565b366101ee576101ec6000346107b8565b005b600080fd5b3480156101ff57600080fd5b50610208610e1e565b6040516102159190614841565b60405180910390f35b34801561022a57600080fd5b5061024560048036038101906102409190614013565b610eb0565b604051610252919061471d565b60405180910390f35b34801561026757600080fd5b50610270610ed3565b60405161027d9190614b0f565b60405180910390f35b34801561029257600080fd5b5061029b610ed9565b6040516102a89190614b0f565b60405180910390f35b3480156102bd57600080fd5b506102d860048036038101906102d391906140c7565b610ee3565b6040516102e59190614679565b60405180910390f35b3480156102fa57600080fd5b5061031560048036038101906103109190613fc4565b610f22565b604051610322919061471d565b60405180910390f35b34801561033757600080fd5b50610352600480360381019061034d9190613f36565b610f51565b005b34801561036057600080fd5b506103696119b9565b6040516103769190614b53565b60405180910390f35b34801561038b57600080fd5b506103a660048036038101906103a19190614013565b6119c2565b005b3480156103b457600080fd5b506103cf60048036038101906103ca9190614013565b611f06565b6040516103dc919061471d565b60405180910390f35b3480156103f157600080fd5b5061040c60048036038101906104079190613f88565b611f3d565b60405161041a929190614b2a565b60405180910390f35b34801561042f57600080fd5b50610438611f6e565b005b34801561044657600080fd5b5061044f612828565b60405161045c9190614b0f565b60405180910390f35b34801561047157600080fd5b5061047a61282e565b6040516104879190614679565b60405180910390f35b34801561049c57600080fd5b506104a5612854565b6040516104b29190614679565b60405180910390f35b3480156104c757600080fd5b506104d061287a565b6040516104dd91906147c1565b60405180910390f35b3480156104f257600080fd5b5061050d60048036038101906105089190613f36565b6128a0565b60405161051a9190614b0f565b60405180910390f35b34801561052f57600080fd5b506105386128e8565b6040516105459190614679565b60405180910390f35b34801561055a57600080fd5b5061056361290e565b6040516105709190614b0f565b60405180910390f35b34801561058557600080fd5b5061058e612914565b60405161059b9190614841565b60405180910390f35b3480156105b057600080fd5b506105cb60048036038101906105c69190614013565b6129a6565b6040516105d8919061471d565b60405180910390f35b6105fb60048036038101906105f69190614013565b6107b8565b005b34801561060957600080fd5b50610612612a1d565b60405161061f91906147dc565b60405180910390f35b34801561063457600080fd5b5061064f600480360381019061064a9190614013565b612a43565b60405161065c919061471d565b60405180910390f35b34801561067157600080fd5b5061068c60048036038101906106879190613f36565b612a66565b60405161069d959493929190614738565b60405180910390f35b3480156106b257600080fd5b506106bb612ac9565b6040516106c89190614b0f565b60405180910390f35b3480156106dd57600080fd5b506106e6612d98565b6040516106f391906147a6565b60405180910390f35b34801561070857600080fd5b50610711612dbc565b60405161071e9190614b0f565b60405180910390f35b34801561073357600080fd5b5061074e60048036038101906107499190613f88565b612dc2565b60405161075b9190614b0f565b60405180910390f35b34801561077057600080fd5b50610779612e49565b604051610786919061478b565b60405180910390f35b34801561079b57600080fd5b506107b660048036038101906107b1919061404f565b612e6f565b005b60006107c534600a613120565b905060006107d483600a613120565b905081601360008073ffffffffffffffffffffffffffffffffffffffff1673ffffffffffffffffffffffffffffffffffffffff16815260200190815260200160002060020160008282546108289190614bb1565b92505081905550600073ffffffffffffffffffffffffffffffffffffffff168473ffffffffffffffffffffffffffffffffffffffff16146108bd5780601360008673ffffffffffffffffffffffffffffffffffffffff1673ffffffffffffffffffffffffffffffffffffffff16815260200190815260200160002060020160008282546108b59190614bb1565b925050819055505b80836108c99190614c92565b601260003373ffffffffffffffffffffffffffffffffffffffff1673ffffffffffffffffffffffffffffffffffffffff16815260200190815260200160002060008673ffffffffffffffffffffffffffffffffffffffff1673ffffffffffffffffffffffffffffffffffffffff16815260200190815260200160002060000160008282546109579190614bb1565b92505081905550808361096a9190614c92565b601360008673ffffffffffffffffffffffffffffffffffffffff1673ffffffffffffffffffffffffffffffffffffffff16815260200190815260200160002060010160008282546109bb9190614bb1565b925050819055506000600a60009054906101000a900473ffffffffffffffffffffffffffffffffffffffff1673ffffffffffffffffffffffffffffffffffffffff1663feaf968c6040518163ffffffff1660e01b815260040160a06040518083038186803b158015610a2c57600080fd5b505afa158015610a40573d6000803e3d6000fd5b505050506040513d601f19601f82011682018060405250810190610a649190614119565b5050509150506000600b60009054906101000a900473ffffffffffffffffffffffffffffffffffffffff1673ffffffffffffffffffffffffffffffffffffffff1663feaf968c6040518163ffffffff1660e01b815260040160a06040518083038186803b158015610ad457600080fd5b505afa158015610ae8573d6000803e3d6000fd5b505050506040513d601f19601f82011682018060405250810190610b0c9190614119565b5050509150506000610b1e8383613120565b90506000601360008973ffffffffffffffffffffffffffffffffffffffff1673ffffffffffffffffffffffffffffffffffffffff16815260200190815260200160002060040160009054906101000a900473ffffffffffffffffffffffffffffffffffffffff1673ffffffffffffffffffffffffffffffffffffffff1663feaf968c6040518163ffffffff1660e01b815260040160a06040518083038186803b158015610bca57600080fd5b505afa158015610bde573d6000803e3d6000fd5b505050506040513d601f19601f82011682018060405250810190610c029190614119565b5050509150506000610c2a82878a610c1a9190614c92565b610c249190614c38565b8661316a565b9050610c9061271082610c3d9190614c38565b601360008c73ffffffffffffffffffffffffffffffffffffffff1673ffffffffffffffffffffffffffffffffffffffff1681526020019081526020016000206003015485610c8b9190614c38565b613120565b9050610c9a612ac9565b600681905550610caa33826131a6565b80601260003373ffffffffffffffffffffffffffffffffffffffff1673ffffffffffffffffffffffffffffffffffffffff16815260200190815260200160002060008b73ffffffffffffffffffffffffffffffffffffffff1673ffffffffffffffffffffffffffffffffffffffff1681526020019081526020016000206001016000828254610d399190614bb1565b92505081905550600073ffffffffffffffffffffffffffffffffffffffff168973ffffffffffffffffffffffffffffffffffffffff1614610e135760008973ffffffffffffffffffffffffffffffffffffffff166323b872dd33308c6040518463ffffffff1660e01b8152600401610db3939291906146bd565b602060405180830381600087803b158015610dcd57600080fd5b505af1158015610de1573d6000803e3d6000fd5b505050506040513d601f19601f82011682018060405250810190610e05919061409e565b905080610e1157600080fd5b505b505050505050505050565b606060038054610e2d90614e43565b80601f0160208091040260200160405190810160405280929190818152602001828054610e5990614e43565b8015610ea65780601f10610e7b57610100808354040283529160200191610ea6565b820191906000526020600020905b815481529060010190602001808311610e8957829003601f168201915b5050505050905090565b600080610ebb613306565b9050610ec881858561330e565b600191505092915050565b60055481565b6000600254905090565b60098181548110610ef357600080fd5b906000526020600020016000915054906101000a900473ffffffffffffffffffffffffffffffffffffffff1681565b600080610f2d613306565b9050610f3a8582856134d9565b610f45858585613565565b60019150509392505050565b610f59612ac9565b60068190555060055460065410610fa5576040517f08c379a0000000000000000000000000000000000000000000000000000000008152600401610f9c90614993565b60405180910390fd5b6000601360008373ffffffffffffffffffffffffffffffffffffffff1673ffffffffffffffffffffffffffffffffffffffff16815260200190815260200160002060040160009054906101000a900473ffffffffffffffffffffffffffffffffffffffff1673ffffffffffffffffffffffffffffffffffffffff1663feaf968c6040518163ffffffff1660e01b815260040160a06040518083038186803b15801561104f57600080fd5b505afa158015611063573d6000803e3d6000fd5b505050506040513d601f19601f820116820180604052508101906110879190614119565b5050509150506000600b60009054906101000a900473ffffffffffffffffffffffffffffffffffffffff1673ffffffffffffffffffffffffffffffffffffffff1663feaf968c6040518163ffffffff1660e01b815260040160a06040518083038186803b1580156110f757600080fd5b505afa15801561110b573d6000803e3d6000fd5b505050506040513d601f19601f8201168201806040525081019061112f9190614119565b50505091505060006111c96111c3601260003373ffffffffffffffffffffffffffffffffffffffff1673ffffffffffffffffffffffffffffffffffffffff16815260200190815260200160002060008773ffffffffffffffffffffffffffffffffffffffff1673ffffffffffffffffffffffffffffffffffffffff16815260200190815260200160002060010154856137e6565b8361316a565b90506000601260003373ffffffffffffffffffffffffffffffffffffffff1673ffffffffffffffffffffffffffffffffffffffff16815260200190815260200160002060008673ffffffffffffffffffffffffffffffffffffffff1673ffffffffffffffffffffffffffffffffffffffff16815260200190815260200160002060010154905060008211611292576040517f08c379a000000000000000000000000000000000000000000000000000000000815260040161128990614ab3565b60405180910390fd5b600081116112d5576040517f08c379a00000000000000000000000000000000000000000000000000000000081526004016112cc90614ab3565b60405180910390fd5b6000600c60009054906101000a900473ffffffffffffffffffffffffffffffffffffffff1673ffffffffffffffffffffffffffffffffffffffff1663e6a4390530886040518363ffffffff1660e01b8152600401611334929190614694565b60206040518083038186803b15801561134c57600080fd5b505afa158015611360573d6000803e3d6000fd5b505050506040513d601f19601f820116820180604052508101906113849190613f5f565b90506113d86040518060400160405280600b81526020017f616d6f756e74206f757420000000000000000000000000000000000000000000815250670de0b6b3a7640000856113d39190614c07565b61382a565b61142a6040518060400160405280600a81526020017f616d6f756e7420696e2000000000000000000000000000000000000000000000815250670de0b6b3a7640000846114259190614c07565b61382a565b8073ffffffffffffffffffffffffffffffffffffffff1663022c0d9f600084336040518463ffffffff1660e01b8152600401611468939291906147f7565b600060405180830381600087803b15801561148257600080fd5b505af1925050508015611493575060015b6117ab576114c2307f0000000000000000000000000000000000000000000000000000000000000000846138c6565b61271084606487601260003373ffffffffffffffffffffffffffffffffffffffff1673ffffffffffffffffffffffffffffffffffffffff16815260200190815260200160002060008b73ffffffffffffffffffffffffffffffffffffffff1673ffffffffffffffffffffffffffffffffffffffff168152602001908152602001600020600101546115539190614c38565b61155d9190614c38565b6115679190614c07565b6115719190614c07565b925060006040518061010001604052803073ffffffffffffffffffffffffffffffffffffffff1681526020018873ffffffffffffffffffffffffffffffffffffffff168152602001610bb862ffffff1681526020013373ffffffffffffffffffffffffffffffffffffffff168152602001428152602001858152602001848152602001600073ffffffffffffffffffffffffffffffffffffffff16815250905060007f000000000000000000000000000000000000000000000000000000000000000073ffffffffffffffffffffffffffffffffffffffff1663db3e2198836040518263ffffffff1660e01b815260040161166c9190614af3565b602060405180830381600087803b15801561168657600080fd5b505af115801561169a573d6000803e3d6000fd5b505050506040513d601f19601f820116820180604052508101906116be91906140f0565b90508381101561170e576116f4887f000000000000000000000000000000000000000000000000000000000000000060006138c6565b61170a303383876117059190614c92565b613a1b565b8093505b83601260003373ffffffffffffffffffffffffffffffffffffffff1673ffffffffffffffffffffffffffffffffffffffff16815260200190815260200160002060008a73ffffffffffffffffffffffffffffffffffffffff1673ffffffffffffffffffffffffffffffffffffffff168152602001908152602001600020600101600082825461179d9190614c92565b925050819055505050611842565b81601260003373ffffffffffffffffffffffffffffffffffffffff1673ffffffffffffffffffffffffffffffffffffffff16815260200190815260200160002060008873ffffffffffffffffffffffffffffffffffffffff1673ffffffffffffffffffffffffffffffffffffffff168152602001908152602001600020600101600082825461183a9190614c92565b925050819055505b6000601260003373ffffffffffffffffffffffffffffffffffffffff1673ffffffffffffffffffffffffffffffffffffffff16815260200190815260200160002060008873ffffffffffffffffffffffffffffffffffffffff1673ffffffffffffffffffffffffffffffffffffffff168152602001908152602001600020600101549050600081111561192b576118fb601160009054906101000a900473ffffffffffffffffffffffffffffffffffffffff1682610eb0565b5061192933601160009054906101000a900473ffffffffffffffffffffffffffffffffffffffff1683610f22565b505b6000601260003373ffffffffffffffffffffffffffffffffffffffff1673ffffffffffffffffffffffffffffffffffffffff16815260200190815260200160002060008973ffffffffffffffffffffffffffffffffffffffff1673ffffffffffffffffffffffffffffffffffffffff1681526020019081526020016000206001018190555050505050505050565b60006012905090565b611a896040518060400160405280600781526020017f62616c616e6365000000000000000000000000000000000000000000000000008152508373ffffffffffffffffffffffffffffffffffffffff166370a08231306040518263ffffffff1660e01b8152600401611a349190614679565b60206040518083038186803b158015611a4c57600080fd5b505afa158015611a60573d6000803e3d6000fd5b505050506040513d601f19601f82011682018060405250810190611a8491906140f0565b61382a565b611a933082612a43565b506000600a60009054906101000a900473ffffffffffffffffffffffffffffffffffffffff1673ffffffffffffffffffffffffffffffffffffffff1663feaf968c6040518163ffffffff1660e01b815260040160a06040518083038186803b158015611afe57600080fd5b505afa158015611b12573d6000803e3d6000fd5b505050506040513d601f19601f82011682018060405250810190611b369190614119565b5050509150506000601360008573ffffffffffffffffffffffffffffffffffffffff1673ffffffffffffffffffffffffffffffffffffffff16815260200190815260200160002060040160009054906101000a900473ffffffffffffffffffffffffffffffffffffffff1673ffffffffffffffffffffffffffffffffffffffff1663feaf968c6040518163ffffffff1660e01b815260040160a06040518083038186803b158015611be657600080fd5b505afa158015611bfa573d6000803e3d6000fd5b505050506040513d601f19601f82011682018060405250810190611c1e9190614119565b5050509150506000611c3b8285611c359190614c38565b84613120565b905083601260003373ffffffffffffffffffffffffffffffffffffffff1673ffffffffffffffffffffffffffffffffffffffff16815260200190815260200160002060008773ffffffffffffffffffffffffffffffffffffffff1673ffffffffffffffffffffffffffffffffffffffff1681526020019081526020016000206000016000828254611ccc9190614c92565b92505081905550611cdd3085613b70565b80601260003373ffffffffffffffffffffffffffffffffffffffff1673ffffffffffffffffffffffffffffffffffffffff16815260200190815260200160002060008773ffffffffffffffffffffffffffffffffffffffff1673ffffffffffffffffffffffffffffffffffffffff1681526020019081526020016000206001016000828254611d6c9190614c92565b92505081905550611d7b612ac9565b600681905550600073ffffffffffffffffffffffffffffffffffffffff168573ffffffffffffffffffffffffffffffffffffffff161415611e685760003373ffffffffffffffffffffffffffffffffffffffff1682604051611ddc90614664565b60006040518083038185875af1925050503d8060008114611e19576040519150601f19603f3d011682016040523d82523d6000602084013e611e1e565b606091505b5050905080611e62576040517f08c379a0000000000000000000000000000000000000000000000000000000008152600401611e5990614a73565b60405180910390fd5b50611eff565b8473ffffffffffffffffffffffffffffffffffffffff1663a9059cbb33836040518363ffffffff1660e01b8152600401611ea39291906146f4565b602060405180830381600087803b158015611ebd57600080fd5b505af1158015611ed1573d6000803e3d6000fd5b505050506040513d601f19601f82011682018060405250810190611ef5919061409e565b611efe57600080fd5b5b5050505050565b600080611f11613306565b9050611f32818585611f238589612dc2565b611f2d9190614bb1565b61330e565b600191505092915050565b6012602052816000526040600020602052806000526040600020600091509150508060000154908060010154905082565b6000600f60009054906101000a900473ffffffffffffffffffffffffffffffffffffffff1673ffffffffffffffffffffffffffffffffffffffff166385f2aef26040518163ffffffff1660e01b8152600401602060405180830381600087803b158015611fda57600080fd5b505af1158015611fee573d6000803e3d6000fd5b505050506040513d601f19601f820116820180604052508101906120129190613f5f565b90508073ffffffffffffffffffffffffffffffffffffffff163373ffffffffffffffffffffffffffffffffffffffff161461204c57600080fd5b600080600090505b600980549050811015612823576009818154811061209b577f4e487b7100000000000000000000000000000000000000000000000000000000600052603260045260246000fd5b9060005260206000200160009054906101000a900473ffffffffffffffffffffffffffffffffffffffff1691506000601360008473ffffffffffffffffffffffffffffffffffffffff1673ffffffffffffffffffffffffffffffffffffffff1681526020019081526020016000206002015490506000601360008573ffffffffffffffffffffffffffffffffffffffff1673ffffffffffffffffffffffffffffffffffffffff16815260200190815260200160002060020181905550600073ffffffffffffffffffffffffffffffffffffffff168373ffffffffffffffffffffffffffffffffffffffff16141561237c576000601060009054906101000a900473ffffffffffffffffffffffffffffffffffffffff1673ffffffffffffffffffffffffffffffffffffffff166121de6121d684610bb86137e6565b61271061316a565b6040516121ea90614664565b60006040518083038185875af1925050503d8060008114612227576040519150601f19603f3d011682016040523d82523d6000602084013e61222c565b606091505b505090508061223a57600080fd5b600c60009054906101000a900473ffffffffffffffffffffffffffffffffffffffff1673ffffffffffffffffffffffffffffffffffffffff1661227e836005613120565b60405161228a90614664565b60006040518083038185875af1925050503d80600081146122c7576040519150601f19603f3d011682016040523d82523d6000602084013e6122cc565b606091505b505080915050600d60009054906101000a900473ffffffffffffffffffffffffffffffffffffffff1673ffffffffffffffffffffffffffffffffffffffff1661232261231a846113886137e6565b61271061316a565b60405161232e90614664565b60006040518083038185875af1925050503d806000811461236b576040519150601f19603f3d011682016040523d82523d6000602084013e612370565b606091505b5050809150505061280f565b60008373ffffffffffffffffffffffffffffffffffffffff1663a9059cbb601060009054906101000a900473ffffffffffffffffffffffffffffffffffffffff166123d46123cc86610bb86137e6565b61271061316a565b6040518363ffffffff1660e01b81526004016123f19291906146f4565b602060405180830381600087803b15801561240b57600080fd5b505af115801561241f573d6000803e3d6000fd5b505050506040513d601f19601f82011682018060405250810190612443919061409e565b90508061244f57600080fd5b8373ffffffffffffffffffffffffffffffffffffffff1663095ea7b3600c60009054906101000a900473ffffffffffffffffffffffffffffffffffffffff166124a561249d866107d06137e6565b61271061316a565b6040518363ffffffff1660e01b81526004016124c29291906146f4565b602060405180830381600087803b1580156124dc57600080fd5b505af11580156124f0573d6000803e3d6000fd5b505050506040513d601f19601f82011682018060405250810190612514919061409e565b90508061252057600080fd5b6000600c60009054906101000a900473ffffffffffffffffffffffffffffffffffffffff1673ffffffffffffffffffffffffffffffffffffffff1663e6a4390586306040518363ffffffff1660e01b815260040161257f929190614694565b60206040518083038186803b15801561259757600080fd5b505afa1580156125ab573d6000803e3d6000fd5b505050506040513d601f19601f820116820180604052508101906125cf9190613f5f565b905060006125de846005613120565b90506126326040518060400160405280600881526020017f616d6f756e742c20000000000000000000000000000000000000000000000000815250670de0b6b3a76400008361262d9190614c07565b61382a565b8573ffffffffffffffffffffffffffffffffffffffff1663095ea7b383836040518363ffffffff1660e01b815260040161266d9291906146f4565b602060405180830381600087803b15801561268757600080fd5b505af115801561269b573d6000803e3d6000fd5b505050506040513d601f19601f820116820180604052508101906126bf919061409e565b508573ffffffffffffffffffffffffffffffffffffffff166323b872dd3084846040518463ffffffff1660e01b81526004016126fd939291906146bd565b602060405180830381600087803b15801561271757600080fd5b505af115801561272b573d6000803e3d6000fd5b505050506040513d601f19601f8201168201806040525081019061274f919061409e565b508573ffffffffffffffffffffffffffffffffffffffff1663a9059cbb600d60009054906101000a900473ffffffffffffffffffffffffffffffffffffffff1661279a876002613120565b6040518363ffffffff1660e01b81526004016127b79291906146f4565b602060405180830381600087803b1580156127d157600080fd5b505af11580156127e5573d6000803e3d6000fd5b505050506040513d601f19601f82011682018060405250810190612809919061409e565b92505050505b50808061281b90614e75565b915050612054565b505050565b60075481565b600f60009054906101000a900473ffffffffffffffffffffffffffffffffffffffff1681565b601060009054906101000a900473ffffffffffffffffffffffffffffffffffffffff1681565b600c60009054906101000a900473ffffffffffffffffffffffffffffffffffffffff1681565b60008060008373ffffffffffffffffffffffffffffffffffffffff1673ffffffffffffffffffffffffffffffffffffffff168152602001908152602001600020549050919050565b601160009054906101000a900473ffffffffffffffffffffffffffffffffffffffff1681565b60085481565b60606004805461292390614e43565b80601f016020809104026020016040519081016040528092919081815260200182805461294f90614e43565b801561299c5780601f106129715761010080835404028352916020019161299c565b820191906000526020600020905b81548152906001019060200180831161297f57829003601f168201915b5050505050905090565b6000806129b1613306565b905060006129bf8286612dc2565b905083811015612a04576040517f08c379a00000000000000000000000000000000000000000000000000000000081526004016129fb90614a93565b60405180910390fd5b612a11828686840361330e565b60019250505092915050565b600e60009054906101000a900473ffffffffffffffffffffffffffffffffffffffff1681565b600080612a4e613306565b9050612a5b818585613565565b600191505092915050565b60136020528060005260406000206000915090508060000160009054906101000a900460ff16908060010154908060020154908060030154908060040160009054906101000a900473ffffffffffffffffffffffffffffffffffffffff16905085565b600080600a60009054906101000a900473ffffffffffffffffffffffffffffffffffffffff1673ffffffffffffffffffffffffffffffffffffffff1663feaf968c6040518163ffffffff1660e01b815260040160a06040518083038186803b158015612b3457600080fd5b505afa158015612b48573d6000803e3d6000fd5b505050506040513d601f19601f82011682018060405250810190612b6c9190614119565b5050509150506000612b7c610ed9565b82612b879190614c38565b905060008060008060005b600980549050811015612d665760098181548110612bd9577f4e487b7100000000000000000000000000000000000000000000000000000000600052603260045260246000fd5b9060005260206000200160009054906101000a900473ffffffffffffffffffffffffffffffffffffffff169450601360008673ffffffffffffffffffffffffffffffffffffffff1673ffffffffffffffffffffffffffffffffffffffff16815260200190815260200160002060040160009054906101000a900473ffffffffffffffffffffffffffffffffffffffff1673ffffffffffffffffffffffffffffffffffffffff1663feaf968c6040518163ffffffff1660e01b815260040160a06040518083038186803b158015612cae57600080fd5b505afa158015612cc2573d6000803e3d6000fd5b505050506040513d601f19601f82011682018060405250810190612ce69190614119565b90919293509091509050508094505083601360008773ffffffffffffffffffffffffffffffffffffffff1673ffffffffffffffffffffffffffffffffffffffff16815260200190815260200160002060010154612d439190614c38565b91508183612d519190614bb1565b92508080612d5e90614e75565b915050612b92565b506000851415612d825763068e77809650505050505050612d95565b612d8c828661316a565b96505050505050505b90565b7f000000000000000000000000000000000000000000000000000000000000000081565b60065481565b6000600160008473ffffffffffffffffffffffffffffffffffffffff1673ffffffffffffffffffffffffffffffffffffffff16815260200190815260200160002060008373ffffffffffffffffffffffffffffffffffffffff1673ffffffffffffffffffffffffffffffffffffffff16815260200190815260200160002054905092915050565b600d60009054906101000a900473ffffffffffffffffffffffffffffffffffffffff1681565b600f60009054906101000a900473ffffffffffffffffffffffffffffffffffffffff1673ffffffffffffffffffffffffffffffffffffffff163373ffffffffffffffffffffffffffffffffffffffff1614612eff576040517f08c379a0000000000000000000000000000000000000000000000000000000008152600401612ef690614a53565b60405180910390fd5b60001515601360008573ffffffffffffffffffffffffffffffffffffffff1673ffffffffffffffffffffffffffffffffffffffff16815260200190815260200160002060000160009054906101000a900460ff16151514612f95576040517f08c379a0000000000000000000000000000000000000000000000000000000008152600401612f8c906149f3565b60405180910390fd5b6009839080600181540180825580915050600190039060005260206000200160009091909190916101000a81548173ffffffffffffffffffffffffffffffffffffffff021916908373ffffffffffffffffffffffffffffffffffffffff1602179055506001601360008573ffffffffffffffffffffffffffffffffffffffff1673ffffffffffffffffffffffffffffffffffffffff16815260200190815260200160002060000160006101000a81548160ff02191690831515021790555081601360008573ffffffffffffffffffffffffffffffffffffffff1673ffffffffffffffffffffffffffffffffffffffff1681526020019081526020016000206003018190555080601360008573ffffffffffffffffffffffffffffffffffffffff1673ffffffffffffffffffffffffffffffffffffffff16815260200190815260200160002060040160006101000a81548173ffffffffffffffffffffffffffffffffffffffff021916908373ffffffffffffffffffffffffffffffffffffffff160217905550505050565b600061316283836040518060400160405280601a81526020017f536166654d6174683a206469766973696f6e206279207a65726f000000000000815250613d47565b905092915050565b60008161319461318285670de0b6b3a7640000613daa565b60028561318f9190614c07565b613e17565b61319e9190614c07565b905092915050565b600073ffffffffffffffffffffffffffffffffffffffff168273ffffffffffffffffffffffffffffffffffffffff161415613216576040517f08c379a000000000000000000000000000000000000000000000000000000000815260040161320d90614ad3565b60405180910390fd5b61322260008383613e70565b80600260008282546132349190614bb1565b92505081905550806000808473ffffffffffffffffffffffffffffffffffffffff1673ffffffffffffffffffffffffffffffffffffffff16815260200190815260200160002060008282546132899190614bb1565b925050819055508173ffffffffffffffffffffffffffffffffffffffff16600073ffffffffffffffffffffffffffffffffffffffff167fddf252ad1be2c89b69c2b068fc378daa952ba7f163c4a11628f55a4df523b3ef836040516132ee9190614b0f565b60405180910390a361330260008383613e75565b5050565b600033905090565b600073ffffffffffffffffffffffffffffffffffffffff168373ffffffffffffffffffffffffffffffffffffffff16141561337e576040517f08c379a000000000000000000000000000000000000000000000000000000000815260040161337590614a33565b60405180910390fd5b600073ffffffffffffffffffffffffffffffffffffffff168273ffffffffffffffffffffffffffffffffffffffff1614156133ee576040517f08c379a00000000000000000000000000000000000000000000000000000000081526004016133e5906148f3565b60405180910390fd5b80600160008573ffffffffffffffffffffffffffffffffffffffff1673ffffffffffffffffffffffffffffffffffffffff16815260200190815260200160002060008473ffffffffffffffffffffffffffffffffffffffff1673ffffffffffffffffffffffffffffffffffffffff168152602001908152602001600020819055508173ffffffffffffffffffffffffffffffffffffffff168373ffffffffffffffffffffffffffffffffffffffff167f8c5be1e5ebec7d5bd14f71427d1e84f3dd0314c0f7b2291e5b200ac8c7c3b925836040516134cc9190614b0f565b60405180910390a3505050565b60006134e58484612dc2565b90507fffffffffffffffffffffffffffffffffffffffffffffffffffffffffffffffff811461355f5781811015613551576040517f08c379a000000000000000000000000000000000000000000000000000000000815260040161354890614953565b60405180910390fd5b61355e848484840361330e565b5b50505050565b600073ffffffffffffffffffffffffffffffffffffffff168373ffffffffffffffffffffffffffffffffffffffff1614156135d5576040517f08c379a00000000000000000000000000000000000000000000000000000000081526004016135cc90614a13565b60405180910390fd5b600073ffffffffffffffffffffffffffffffffffffffff168273ffffffffffffffffffffffffffffffffffffffff161415613645576040517f08c379a000000000000000000000000000000000000000000000000000000000815260040161363c90614893565b60405180910390fd5b613650838383613e70565b60008060008573ffffffffffffffffffffffffffffffffffffffff1673ffffffffffffffffffffffffffffffffffffffff168152602001908152602001600020549050818110156136d6576040517f08c379a00000000000000000000000000000000000000000000000000000000081526004016136cd90614973565b60405180910390fd5b8181036000808673ffffffffffffffffffffffffffffffffffffffff1673ffffffffffffffffffffffffffffffffffffffff16815260200190815260200160002081905550816000808573ffffffffffffffffffffffffffffffffffffffff1673ffffffffffffffffffffffffffffffffffffffff16815260200190815260200160002060008282546137699190614bb1565b925050819055508273ffffffffffffffffffffffffffffffffffffffff168473ffffffffffffffffffffffffffffffffffffffff167fddf252ad1be2c89b69c2b068fc378daa952ba7f163c4a11628f55a4df523b3ef846040516137cd9190614b0f565b60405180910390a36137e0848484613e75565b50505050565b6000670de0b6b3a76400006138186137fe8585613daa565b6002670de0b6b3a76400006138139190614c07565b613e17565b6138229190614c07565b905092915050565b6138c28282604051602401613840929190614863565b6040516020818303038152906040527f9710a9d0000000000000000000000000000000000000000000000000000000007bffffffffffffffffffffffffffffffffffffffffffffffffffffffff19166020820180517bffffffffffffffffffffffffffffffffffffffffffffffffffffffff8381831617835250505050613e7a565b5050565b6000808473ffffffffffffffffffffffffffffffffffffffff1663095ea7b360e01b85856040516024016138fb9291906146f4565b604051602081830303815290604052907bffffffffffffffffffffffffffffffffffffffffffffffffffffffff19166020820180517bffffffffffffffffffffffffffffffffffffffffffffffffffffffff8381831617835250505050604051613965919061464d565b6000604051808303816000865af19150503d80600081146139a2576040519150601f19603f3d011682016040523d82523d6000602084013e6139a7565b606091505b50915091508180156139d557506000815114806139d45750808060200190518101906139d3919061409e565b5b5b613a14576040517f08c379a0000000000000000000000000000000000000000000000000000000008152600401613a0b906148b3565b60405180910390fd5b5050505050565b6000808473ffffffffffffffffffffffffffffffffffffffff1663a9059cbb60e01b8585604051602401613a509291906146f4565b604051602081830303815290604052907bffffffffffffffffffffffffffffffffffffffffffffffffffffffff19166020820180517bffffffffffffffffffffffffffffffffffffffffffffffffffffffff8381831617835250505050604051613aba919061464d565b6000604051808303816000865af19150503d8060008114613af7576040519150601f19603f3d011682016040523d82523d6000602084013e613afc565b606091505b5091509150818015613b2a5750600081511480613b29575080806020019051810190613b28919061409e565b5b5b613b69576040517f08c379a0000000000000000000000000000000000000000000000000000000008152600401613b60906149b3565b60405180910390fd5b5050505050565b600073ffffffffffffffffffffffffffffffffffffffff168273ffffffffffffffffffffffffffffffffffffffff161415613be0576040517f08c379a0000000000000000000000000000000000000000000000000000000008152600401613bd7906149d3565b60405180910390fd5b613bec82600083613e70565b60008060008473ffffffffffffffffffffffffffffffffffffffff1673ffffffffffffffffffffffffffffffffffffffff16815260200190815260200160002054905081811015613c72576040517f08c379a0000000000000000000000000000000000000000000000000000000008152600401613c69906148d3565b60405180910390fd5b8181036000808573ffffffffffffffffffffffffffffffffffffffff1673ffffffffffffffffffffffffffffffffffffffff168152602001908152602001600020819055508160026000828254613cc99190614c92565b92505081905550600073ffffffffffffffffffffffffffffffffffffffff168373ffffffffffffffffffffffffffffffffffffffff167fddf252ad1be2c89b69c2b068fc378daa952ba7f163c4a11628f55a4df523b3ef84604051613d2e9190614b0f565b60405180910390a3613d4283600084613e75565b505050565b60008083118290613d8e576040517f08c379a0000000000000000000000000000000000000000000000000000000008152600401613d859190614841565b60405180910390fd5b5060008385613d9d9190614c07565b9050809150509392505050565b600080821480613dd2575082828385613dc39190614c38565b925082613dd09190614c07565b145b613e11576040517f08c379a0000000000000000000000000000000000000000000000000000000008152600401613e0890614913565b60405180910390fd5b92915050565b6000828284613e269190614bb1565b9150811015613e6a576040517f08c379a0000000000000000000000000000000000000000000000000000000008152600401613e6190614933565b60405180910390fd5b92915050565b505050565b505050565b60008151905060006a636f6e736f6c652e6c6f679050602083016000808483855afa5050505050565b600081359050613eb281615432565b92915050565b600081519050613ec781615432565b92915050565b600081519050613edc81615449565b92915050565b600081519050613ef181615460565b92915050565b600081359050613f0681615477565b92915050565b600081519050613f1b81615477565b92915050565b600081519050613f308161548e565b92915050565b600060208284031215613f4857600080fd5b6000613f5684828501613ea3565b91505092915050565b600060208284031215613f7157600080fd5b6000613f7f84828501613eb8565b91505092915050565b60008060408385031215613f9b57600080fd5b6000613fa985828601613ea3565b9250506020613fba85828601613ea3565b9150509250929050565b600080600060608486031215613fd957600080fd5b6000613fe786828701613ea3565b9350506020613ff886828701613ea3565b925050604061400986828701613ef7565b9150509250925092565b6000806040838503121561402657600080fd5b600061403485828601613ea3565b925050602061404585828601613ef7565b9150509250929050565b60008060006060848603121561406457600080fd5b600061407286828701613ea3565b935050602061408386828701613ef7565b925050604061409486828701613ea3565b9150509250925092565b6000602082840312156140b057600080fd5b60006140be84828501613ecd565b91505092915050565b6000602082840312156140d957600080fd5b60006140e784828501613ef7565b91505092915050565b60006020828403121561410257600080fd5b600061411084828501613f0c565b91505092915050565b600080600080600060a0868803121561413157600080fd5b600061413f88828901613f21565b955050602061415088828901613ee2565b945050604061416188828901613f0c565b935050606061417288828901613f0c565b925050608061418388828901613f21565b9150509295509295909350565b61419981614cc6565b82525050565b6141a881614cc6565b82525050565b6141b781614cd8565b82525050565b60006141c882614b6e565b6141d28185614b95565b93506141e2818560208601614e10565b80840191505092915050565b6141f781614d4a565b82525050565b61420681614d6e565b82525050565b61421581614d92565b82525050565b61422481614db6565b82525050565b61423381614dda565b82525050565b61424281614dfe565b82525050565b600061425382614b79565b61425d8185614ba0565b935061426d818560208601614e10565b61427681614f4b565b840191505092915050565b600061428e602383614ba0565b915061429982614f5c565b604082019050919050565b60006142b1600283614ba0565b91506142bc82614fab565b602082019050919050565b60006142d4602283614ba0565b91506142df82614fd4565b604082019050919050565b60006142f7602283614ba0565b915061430282615023565b604082019050919050565b600061431a601483614ba0565b915061432582615072565b602082019050919050565b600061433d601483614ba0565b91506143488261509b565b602082019050919050565b6000614360601d83614ba0565b915061436b826150c4565b602082019050919050565b6000614383602683614ba0565b915061438e826150ed565b604082019050919050565b60006143a6601983614ba0565b91506143b18261513c565b602082019050919050565b60006143c9600283614ba0565b91506143d482615165565b602082019050919050565b60006143ec602183614ba0565b91506143f78261518e565b604082019050919050565b600061440f602583614ba0565b915061441a826151dd565b604082019050919050565b6000614432602583614ba0565b915061443d8261522c565b604082019050919050565b6000614455600083614b84565b91506144608261527b565b600082019050919050565b6000614478600083614b95565b91506144838261527b565b600082019050919050565b600061449b602483614ba0565b91506144a68261527e565b604082019050919050565b60006144be602483614ba0565b91506144c9826152cd565b604082019050919050565b60006144e1602b83614ba0565b91506144ec8261531c565b604082019050919050565b6000614504602583614ba0565b915061450f8261536b565b604082019050919050565b6000614527602283614ba0565b9150614532826153ba565b604082019050919050565b600061454a601f83614ba0565b915061455582615409565b602082019050919050565b610100820160008201516145776000850182614190565b50602082015161458a6020850182614190565b50604082015161459d6040850182614611565b5060608201516145b06060850182614190565b5060808201516145c36080850182614620565b5060a08201516145d660a0850182614620565b5060c08201516145e960c0850182614620565b5060e08201516145fc60e0850182614602565b50505050565b61460b81614cee565b82525050565b61461a81614d0e565b82525050565b61462981614d1d565b82525050565b61463881614d1d565b82525050565b61464781614d27565b82525050565b600061465982846141bd565b915081905092915050565b600061466f8261446b565b9150819050919050565b600060208201905061468e600083018461419f565b92915050565b60006040820190506146a9600083018561419f565b6146b6602083018461419f565b9392505050565b60006060820190506146d2600083018661419f565b6146df602083018561419f565b6146ec604083018461462f565b949350505050565b6000604082019050614709600083018561419f565b614716602083018461462f565b9392505050565b600060208201905061473260008301846141ae565b92915050565b600060a08201905061474d60008301886141ae565b61475a602083018761462f565b614767604083018661462f565b614774606083018561462f565b61478160808301846141ee565b9695505050505050565b60006020820190506147a060008301846141fd565b92915050565b60006020820190506147bb600083018461420c565b92915050565b60006020820190506147d6600083018461421b565b92915050565b60006020820190506147f1600083018461422a565b92915050565b600060808201905061480c6000830186614239565b614819602083018561462f565b614826604083018461419f565b818103606083015261483781614448565b9050949350505050565b6000602082019050818103600083015261485b8184614248565b905092915050565b6000604082019050818103600083015261487d8185614248565b905061488c602083018461462f565b9392505050565b600060208201905081810360008301526148ac81614281565b9050919050565b600060208201905081810360008301526148cc816142a4565b9050919050565b600060208201905081810360008301526148ec816142c7565b9050919050565b6000602082019050818103600083015261490c816142ea565b9050919050565b6000602082019050818103600083015261492c8161430d565b9050919050565b6000602082019050818103600083015261494c81614330565b9050919050565b6000602082019050818103600083015261496c81614353565b9050919050565b6000602082019050818103600083015261498c81614376565b9050919050565b600060208201905081810360008301526149ac81614399565b9050919050565b600060208201905081810360008301526149cc816143bc565b9050919050565b600060208201905081810360008301526149ec816143df565b9050919050565b60006020820190508181036000830152614a0c81614402565b9050919050565b60006020820190508181036000830152614a2c81614425565b9050919050565b60006020820190508181036000830152614a4c8161448e565b9050919050565b60006020820190508181036000830152614a6c816144b1565b9050919050565b60006020820190508181036000830152614a8c816144d4565b9050919050565b60006020820190508181036000830152614aac816144f7565b9050919050565b60006020820190508181036000830152614acc8161451a565b9050919050565b60006020820190508181036000830152614aec8161453d565b9050919050565b600061010082019050614b096000830184614560565b92915050565b6000602082019050614b24600083018461462f565b92915050565b6000604082019050614b3f600083018561462f565b614b4c602083018461462f565b9392505050565b6000602082019050614b68600083018461463e565b92915050565b600081519050919050565b600081519050919050565b600082825260208201905092915050565b600081905092915050565b600082825260208201905092915050565b6000614bbc82614d1d565b9150614bc783614d1d565b9250827fffffffffffffffffffffffffffffffffffffffffffffffffffffffffffffffff03821115614bfc57614bfb614ebe565b5b828201905092915050565b6000614c1282614d1d565b9150614c1d83614d1d565b925082614c2d57614c2c614eed565b5b828204905092915050565b6000614c4382614d1d565b9150614c4e83614d1d565b9250817fffffffffffffffffffffffffffffffffffffffffffffffffffffffffffffffff0483118215151615614c8757614c86614ebe565b5b828202905092915050565b6000614c9d82614d1d565b9150614ca883614d1d565b925082821015614cbb57614cba614ebe565b5b828203905092915050565b6000614cd182614cee565b9050919050565b60008115159050919050565b6000819050919050565b600073ffffffffffffffffffffffffffffffffffffffff82169050919050565b600062ffffff82169050919050565b6000819050919050565b600060ff82169050919050565b600069ffffffffffffffffffff82169050919050565b6000614d5582614d5c565b9050919050565b6000614d6782614cee565b9050919050565b6000614d7982614d80565b9050919050565b6000614d8b82614cee565b9050919050565b6000614d9d82614da4565b9050919050565b6000614daf82614cee565b9050919050565b6000614dc182614dc8565b9050919050565b6000614dd382614cee565b9050919050565b6000614de582614dec565b9050919050565b6000614df782614cee565b9050919050565b6000614e0982614d1d565b9050919050565b60005b83811015614e2e578082015181840152602081019050614e13565b83811115614e3d576000848401525b50505050565b60006002820490506001821680614e5b57607f821691505b60208210811415614e6f57614e6e614f1c565b5b50919050565b6000614e8082614d1d565b91507fffffffffffffffffffffffffffffffffffffffffffffffffffffffffffffffff821415614eb357614eb2614ebe565b5b600182019050919050565b7f4e487b7100000000000000000000000000000000000000000000000000000000600052601160045260246000fd5b7f4e487b7100000000000000000000000000000000000000000000000000000000600052601260045260246000fd5b7f4e487b7100000000000000000000000000000000000000000000000000000000600052602260045260246000fd5b6000601f19601f8301169050919050565b7f45524332303a207472616e7366657220746f20746865207a65726f206164647260008201527f6573730000000000000000000000000000000000000000000000000000000000602082015250565b7f5341000000000000000000000000000000000000000000000000000000000000600082015250565b7f45524332303a206275726e20616d6f756e7420657863656564732062616c616e60008201527f6365000000000000000000000000000000000000000000000000000000000000602082015250565b7f45524332303a20617070726f766520746f20746865207a65726f20616464726560008201527f7373000000000000000000000000000000000000000000000000000000000000602082015250565b7f64732d6d6174682d6d756c2d6f766572666c6f77000000000000000000000000600082015250565b7f64732d6d6174682d6164642d6f766572666c6f77000000000000000000000000600082015250565b7f45524332303a20696e73756666696369656e7420616c6c6f77616e6365000000600082015250565b7f45524332303a207472616e7366657220616d6f756e742065786365656473206260008201527f616c616e63650000000000000000000000000000000000000000000000000000602082015250565b7f63616e6e6f74206c697175696461746520706f736974696f6e00000000000000600082015250565b7f5354000000000000000000000000000000000000000000000000000000000000600082015250565b7f45524332303a206275726e2066726f6d20746865207a65726f2061646472657360008201527f7300000000000000000000000000000000000000000000000000000000000000602082015250565b7f7468697320636f6c6c61746572616c207479706520616c72656164792061707060008201527f726f766564000000000000000000000000000000000000000000000000000000602082015250565b7f45524332303a207472616e736665722066726f6d20746865207a65726f20616460008201527f6472657373000000000000000000000000000000000000000000000000000000602082015250565b50565b7f45524332303a20617070726f76652066726f6d20746865207a65726f2061646460008201527f7265737300000000000000000000000000000000000000000000000000000000602082015250565b7f63616e206f6e6c792062652063616c6c65642062792043475420676f7665726e60008201527f616e636500000000000000000000000000000000000000000000000000000000602082015250565b7f72657475726e206f6620657468657220636f6c6c61746572616c20776173207560008201527f6e7375636365737366756c000000000000000000000000000000000000000000602082015250565b7f45524332303a2064656372656173656420616c6c6f77616e63652062656c6f7760008201527f207a65726f000000000000000000000000000000000000000000000000000000602082015250565b7f7573657220686173206e6f20706f736974696f6e7320746f206c69717569646160008201527f7465000000000000000000000000000000000000000000000000000000000000602082015250565b7f45524332303a206d696e7420746f20746865207a65726f206164647265737300600082015250565b61543b81614cc6565b811461544657600080fd5b50565b61545281614cd8565b811461545d57600080fd5b50565b61546981614ce4565b811461547457600080fd5b50565b61548081614d1d565b811461548b57600080fd5b50565b61549781614d34565b81146154a257600080fd5b5056fea26469706673582212203677e85f846ac6be34495f7898a0c2585edc19c35fd967cfe7465642512219b064736f6c63430008040033",
  "linkReferences": {},
  "deployedLinkReferences": {}
}