{
  "_format": "hh-sol-artifact-1",
  "contractName": "Chrysus",
  "sourceName": "contracts/Chrysus.sol",
  "abi": [
    {
      "inputs": [
        {
          "internalType": "address",
          "name": "_daiAddress",
          "type": "address"
        },
        {
          "internalType": "address",
          "name": "_oracleDAI",
          "type": "address"
        },
        {
          "internalType": "address",
          "name": "_oracleETH",
          "type": "address"
        },
        {
          "internalType": "address",
          "name": "_oracleCHC",
          "type": "address"
        },
        {
          "internalType": "address",
          "name": "_oracleXAU",
          "type": "address"
        },
        {
          "internalType": "address",
          "name": "_governance",
          "type": "address"
        },
        {
          "internalType": "address",
          "name": "_treasury",
          "type": "address"
        },
        {
          "internalType": "address",
          "name": "_auction",
          "type": "address"
        },
        {
          "internalType": "contract ISwapRouter",
          "name": "_swapRouter",
          "type": "address"
        },
        {
          "internalType": "address",
          "name": "_swapSolution",
          "type": "address"
        },
        {
          "internalType": "address",
          "name": "_stabilityModule",
          "type": "address"
        }
      ],
      "stateMutability": "nonpayable",
      "type": "constructor"
    },
    {
      "anonymous": false,
      "inputs": [
        {
          "indexed": true,
          "internalType": "address",
          "name": "owner",
          "type": "address"
        },
        {
          "indexed": true,
          "internalType": "address",
          "name": "spender",
          "type": "address"
        },
        {
          "indexed": false,
          "internalType": "uint256",
          "name": "value",
          "type": "uint256"
        }
      ],
      "name": "Approval",
      "type": "event"
    },
    {
      "anonymous": false,
      "inputs": [
        {
          "indexed": true,
          "internalType": "address",
          "name": "from",
          "type": "address"
        },
        {
          "indexed": true,
          "internalType": "address",
          "name": "to",
          "type": "address"
        },
        {
          "indexed": false,
          "internalType": "uint256",
          "name": "value",
          "type": "uint256"
        }
      ],
      "name": "Transfer",
      "type": "event"
    },
    {
      "inputs": [
        {
          "internalType": "address",
          "name": "_collateralType",
          "type": "address"
        },
        {
          "internalType": "uint256",
          "name": "_collateralRequirement",
          "type": "uint256"
        },
        {
          "internalType": "address",
          "name": "_oracleAddress",
          "type": "address"
        }
      ],
      "name": "addCollateralType",
      "outputs": [],
      "stateMutability": "nonpayable",
      "type": "function"
    },
    {
      "inputs": [
        {
          "internalType": "address",
          "name": "owner",
          "type": "address"
        },
        {
          "internalType": "address",
          "name": "spender",
          "type": "address"
        }
      ],
      "name": "allowance",
      "outputs": [
        {
          "internalType": "uint256",
          "name": "",
          "type": "uint256"
        }
      ],
      "stateMutability": "view",
      "type": "function"
    },
    {
      "inputs": [
        {
          "internalType": "address",
          "name": "spender",
          "type": "address"
        },
        {
          "internalType": "uint256",
          "name": "amount",
          "type": "uint256"
        }
      ],
      "name": "approve",
      "outputs": [
        {
          "internalType": "bool",
          "name": "",
          "type": "bool"
        }
      ],
      "stateMutability": "nonpayable",
      "type": "function"
    },
    {
      "inputs": [
        {
          "internalType": "address",
          "name": "",
          "type": "address"
        }
      ],
      "name": "approvedCollateral",
      "outputs": [
        {
          "internalType": "bool",
          "name": "approved",
          "type": "bool"
        },
        {
          "internalType": "uint256",
          "name": "balance",
          "type": "uint256"
        },
        {
          "internalType": "uint256",
          "name": "fees",
          "type": "uint256"
        },
        {
          "internalType": "uint256",
          "name": "collateralRequirement",
          "type": "uint256"
        },
        {
          "internalType": "contract AggregatorV3Interface",
          "name": "oracle",
          "type": "address"
        }
      ],
      "stateMutability": "view",
      "type": "function"
    },
    {
      "inputs": [
        {
          "internalType": "uint256",
          "name": "",
          "type": "uint256"
        }
      ],
      "name": "approvedTokens",
      "outputs": [
        {
          "internalType": "address",
          "name": "",
          "type": "address"
        }
      ],
      "stateMutability": "view",
      "type": "function"
    },
    {
      "inputs": [],
      "name": "auction",
      "outputs": [
        {
          "internalType": "address",
          "name": "",
          "type": "address"
        }
      ],
      "stateMutability": "view",
      "type": "function"
    },
    {
      "inputs": [
        {
          "internalType": "address",
          "name": "account",
          "type": "address"
        }
      ],
      "name": "balanceOf",
      "outputs": [
        {
          "internalType": "uint256",
          "name": "",
          "type": "uint256"
        }
      ],
      "stateMutability": "view",
      "type": "function"
    },
    {
      "inputs": [],
      "name": "collateralRatio",
      "outputs": [
        {
          "internalType": "uint256",
          "name": "",
          "type": "uint256"
        }
      ],
      "stateMutability": "view",
      "type": "function"
    },
    {
      "inputs": [],
      "name": "collateralizationRatio",
      "outputs": [
        {
          "internalType": "uint256",
          "name": "",
          "type": "uint256"
        }
      ],
      "stateMutability": "view",
      "type": "function"
    },
    {
      "inputs": [],
      "name": "decimals",
      "outputs": [
        {
          "internalType": "uint8",
          "name": "",
          "type": "uint8"
        }
      ],
      "stateMutability": "view",
      "type": "function"
    },
    {
      "inputs": [
        {
          "internalType": "address",
          "name": "spender",
          "type": "address"
        },
        {
          "internalType": "uint256",
          "name": "subtractedValue",
          "type": "uint256"
        }
      ],
      "name": "decreaseAllowance",
      "outputs": [
        {
          "internalType": "bool",
          "name": "",
          "type": "bool"
        }
      ],
      "stateMutability": "nonpayable",
      "type": "function"
    },
    {
      "inputs": [
        {
          "internalType": "address",
          "name": "_collateralType",
          "type": "address"
        },
        {
          "internalType": "uint256",
          "name": "_amount",
          "type": "uint256"
        }
      ],
      "name": "depositCollateral",
      "outputs": [],
      "stateMutability": "payable",
      "type": "function"
    },
    {
      "inputs": [],
      "name": "ethBalance",
      "outputs": [
        {
          "internalType": "uint256",
          "name": "",
          "type": "uint256"
        }
      ],
      "stateMutability": "view",
      "type": "function"
    },
    {
      "inputs": [],
      "name": "ethFees",
      "outputs": [
        {
          "internalType": "uint256",
          "name": "",
          "type": "uint256"
        }
      ],
      "stateMutability": "view",
      "type": "function"
    },
    {
      "inputs": [],
      "name": "governance",
      "outputs": [
        {
          "internalType": "address",
          "name": "",
          "type": "address"
        }
      ],
      "stateMutability": "view",
      "type": "function"
    },
    {
      "inputs": [
        {
          "internalType": "address",
          "name": "spender",
          "type": "address"
        },
        {
          "internalType": "uint256",
          "name": "addedValue",
          "type": "uint256"
        }
      ],
      "name": "increaseAllowance",
      "outputs": [
        {
          "internalType": "bool",
          "name": "",
          "type": "bool"
        }
      ],
      "stateMutability": "nonpayable",
      "type": "function"
    },
    {
      "inputs": [
        {
          "internalType": "address",
          "name": "_collateralType",
          "type": "address"
        }
      ],
      "name": "liquidate",
      "outputs": [],
      "stateMutability": "nonpayable",
      "type": "function"
    },
    {
      "inputs": [],
      "name": "liquidationRatio",
      "outputs": [
        {
          "internalType": "uint256",
          "name": "",
          "type": "uint256"
        }
      ],
      "stateMutability": "view",
      "type": "function"
    },
    {
      "inputs": [],
      "name": "name",
      "outputs": [
        {
          "internalType": "string",
          "name": "",
          "type": "string"
        }
      ],
      "stateMutability": "view",
      "type": "function"
    },
    {
      "inputs": [],
      "name": "pair",
      "outputs": [
        {
          "internalType": "contract IUniswapV2Pair",
          "name": "",
          "type": "address"
        }
      ],
      "stateMutability": "view",
      "type": "function"
    },
    {
      "inputs": [],
      "name": "stabilityModule",
      "outputs": [
        {
          "internalType": "contract IStabilityModule",
          "name": "",
          "type": "address"
        }
      ],
      "stateMutability": "view",
      "type": "function"
    },
    {
      "inputs": [],
      "name": "swapRouter",
      "outputs": [
        {
          "internalType": "contract ISwapRouter",
          "name": "",
          "type": "address"
        }
      ],
      "stateMutability": "view",
      "type": "function"
    },
    {
      "inputs": [],
      "name": "swapSolution",
      "outputs": [
        {
          "internalType": "contract ISwap",
          "name": "",
          "type": "address"
        }
      ],
      "stateMutability": "view",
      "type": "function"
    },
    {
      "inputs": [],
      "name": "symbol",
      "outputs": [
        {
          "internalType": "string",
          "name": "",
          "type": "string"
        }
      ],
      "stateMutability": "view",
      "type": "function"
    },
    {
      "inputs": [],
      "name": "totalSupply",
      "outputs": [
        {
          "internalType": "uint256",
          "name": "",
          "type": "uint256"
        }
      ],
      "stateMutability": "view",
      "type": "function"
    },
    {
      "inputs": [
        {
          "internalType": "address",
          "name": "to",
          "type": "address"
        },
        {
          "internalType": "uint256",
          "name": "amount",
          "type": "uint256"
        }
      ],
      "name": "transfer",
      "outputs": [
        {
          "internalType": "bool",
          "name": "",
          "type": "bool"
        }
      ],
      "stateMutability": "nonpayable",
      "type": "function"
    },
    {
      "inputs": [
        {
          "internalType": "address",
          "name": "from",
          "type": "address"
        },
        {
          "internalType": "address",
          "name": "to",
          "type": "address"
        },
        {
          "internalType": "uint256",
          "name": "amount",
          "type": "uint256"
        }
      ],
      "name": "transferFrom",
      "outputs": [
        {
          "internalType": "bool",
          "name": "",
          "type": "bool"
        }
      ],
      "stateMutability": "nonpayable",
      "type": "function"
    },
    {
      "inputs": [],
      "name": "treasury",
      "outputs": [
        {
          "internalType": "address",
          "name": "",
          "type": "address"
        }
      ],
      "stateMutability": "view",
      "type": "function"
    },
    {
      "inputs": [
        {
          "internalType": "address",
          "name": "",
          "type": "address"
        },
        {
          "internalType": "address",
          "name": "",
          "type": "address"
        }
      ],
      "name": "userDeposits",
      "outputs": [
        {
          "internalType": "uint256",
          "name": "deposited",
          "type": "uint256"
        },
        {
          "internalType": "uint256",
          "name": "minted",
          "type": "uint256"
        }
      ],
      "stateMutability": "view",
      "type": "function"
    },
    {
      "inputs": [
        {
          "internalType": "address",
          "name": "_collateralType",
          "type": "address"
        },
        {
          "internalType": "uint256",
          "name": "_amount",
          "type": "uint256"
        }
      ],
      "name": "withdrawCollateral",
      "outputs": [],
      "stateMutability": "nonpayable",
      "type": "function"
    },
    {
      "inputs": [],
      "name": "withdrawFees",
      "outputs": [],
      "stateMutability": "nonpayable",
      "type": "function"
    },
    {
      "stateMutability": "payable",
      "type": "receive"
    }
  ],
  "bytecode": "0x60a06040523480156200001157600080fd5b5060405162005f0a38038062005f0a8339818101604052810190620000379190620008f2565b6040518060400160405280600781526020017f43687279737573000000000000000000000000000000000000000000000000008152506040518060400160405280600381526020017f43484300000000000000000000000000000000000000000000000000000000008152508160039080519060200190620000bb92919062000814565b508060049080519060200190620000d492919062000814565b505050600073ffffffffffffffffffffffffffffffffffffffff168b73ffffffffffffffffffffffffffffffffffffffff1614156200011257600080fd5b600073ffffffffffffffffffffffffffffffffffffffff168a73ffffffffffffffffffffffffffffffffffffffff1614156200014d57600080fd5b600073ffffffffffffffffffffffffffffffffffffffff168973ffffffffffffffffffffffffffffffffffffffff1614156200018857600080fd5b600073ffffffffffffffffffffffffffffffffffffffff168773ffffffffffffffffffffffffffffffffffffffff161415620001c357600080fd5b600073ffffffffffffffffffffffffffffffffffffffff168673ffffffffffffffffffffffffffffffffffffffff161415620001fe57600080fd5b600073ffffffffffffffffffffffffffffffffffffffff168573ffffffffffffffffffffffffffffffffffffffff1614156200023957600080fd5b600073ffffffffffffffffffffffffffffffffffffffff168473ffffffffffffffffffffffffffffffffffffffff1614156200027457600080fd5b600073ffffffffffffffffffffffffffffffffffffffff168273ffffffffffffffffffffffffffffffffffffffff161415620002af57600080fd5b600073ffffffffffffffffffffffffffffffffffffffff168173ffffffffffffffffffffffffffffffffffffffff161415620002ea57600080fd5b63068e77806005819055506001601360008d73ffffffffffffffffffffffffffffffffffffffff1673ffffffffffffffffffffffffffffffffffffffff16815260200190815260200160002060000160006101000a81548160ff0219169083151502179055506001601360008073ffffffffffffffffffffffffffffffffffffffff1673ffffffffffffffffffffffffffffffffffffffff16815260200190815260200160002060000160006101000a81548160ff02191690831515021790555060098b9080600181540180825580915050600190039060005260206000200160009091909190916101000a81548173ffffffffffffffffffffffffffffffffffffffff021916908373ffffffffffffffffffffffffffffffffffffffff160217905550600960009080600181540180825580915050600190039060005260206000200160009091909190916101000a81548173ffffffffffffffffffffffffffffffffffffffff021916908373ffffffffffffffffffffffffffffffffffffffff16021790555089601360008d73ffffffffffffffffffffffffffffffffffffffff1673ffffffffffffffffffffffffffffffffffffffff16815260200190815260200160002060040160006101000a81548173ffffffffffffffffffffffffffffffffffffffff021916908373ffffffffffffffffffffffffffffffffffffffff16021790555088601360008073ffffffffffffffffffffffffffffffffffffffff1673ffffffffffffffffffffffffffffffffffffffff16815260200190815260200160002060040160006101000a81548173ffffffffffffffffffffffffffffffffffffffff021916908373ffffffffffffffffffffffffffffffffffffffff16021790555061010b601360008d73ffffffffffffffffffffffffffffffffffffffff1673ffffffffffffffffffffffffffffffffffffffff168152602001908152602001600020600301819055506078601360008073ffffffffffffffffffffffffffffffffffffffff1673ffffffffffffffffffffffffffffffffffffffff1681526020019081526020016000206003018190555087600a60006101000a81548173ffffffffffffffffffffffffffffffffffffffff021916908373ffffffffffffffffffffffffffffffffffffffff16021790555086600b60006101000a81548173ffffffffffffffffffffffffffffffffffffffff021916908373ffffffffffffffffffffffffffffffffffffffff16021790555085600f60006101000a81548173ffffffffffffffffffffffffffffffffffffffff021916908373ffffffffffffffffffffffffffffffffffffffff16021790555084601060006101000a81548173ffffffffffffffffffffffffffffffffffffffff021916908373ffffffffffffffffffffffffffffffffffffffff16021790555083601160006101000a81548173ffffffffffffffffffffffffffffffffffffffff021916908373ffffffffffffffffffffffffffffffffffffffff1602179055508273ffffffffffffffffffffffffffffffffffffffff1660808173ffffffffffffffffffffffffffffffffffffffff1660601b8152505081600c60006101000a81548173ffffffffffffffffffffffffffffffffffffffff021916908373ffffffffffffffffffffffffffffffffffffffff16021790555080600d60006101000a81548173ffffffffffffffffffffffffffffffffffffffff021916908373ffffffffffffffffffffffffffffffffffffffff160217905550505050505050505050505062000ada565b828054620008229062000a41565b90600052602060002090601f01602090048101928262000846576000855562000892565b82601f106200086157805160ff191683800117855562000892565b8280016001018555821562000892579182015b828111156200089157825182559160200191906001019062000874565b5b509050620008a19190620008a5565b5090565b5b80821115620008c0576000816000905550600101620008a6565b5090565b600081519050620008d58162000aa6565b92915050565b600081519050620008ec8162000ac0565b92915050565b60008060008060008060008060008060006101608c8e0312156200091557600080fd5b6000620009258e828f01620008c4565b9b50506020620009388e828f01620008c4565b9a505060406200094b8e828f01620008c4565b99505060606200095e8e828f01620008c4565b9850506080620009718e828f01620008c4565b97505060a0620009848e828f01620008c4565b96505060c0620009978e828f01620008c4565b95505060e0620009aa8e828f01620008c4565b945050610100620009be8e828f01620008db565b935050610120620009d28e828f01620008c4565b925050610140620009e68e828f01620008c4565b9150509295989b509295989b9093969950565b600062000a068262000a21565b9050919050565b600062000a1a82620009f9565b9050919050565b600073ffffffffffffffffffffffffffffffffffffffff82169050919050565b6000600282049050600182168062000a5a57607f821691505b6020821081141562000a715762000a7062000a77565b5b50919050565b7f4e487b7100000000000000000000000000000000000000000000000000000000600052602260045260246000fd5b62000ab181620009f9565b811462000abd57600080fd5b50565b62000acb8162000a0d565b811462000ad757600080fd5b50565b60805160601c6153fc62000b0e6000396000818161149d01528181611615015281816116ce0152612cbb01526153fc6000f3fe6080604052600436106101dc5760003560e01c8063694c755f11610102578063a9059cbb11610095578063dcaf9c4411610064578063dcaf9c44146106fc578063dd62ed3e14610727578063ea061ad414610764578063ef048a781461078f576101ee565b8063a9059cbb14610628578063b050b67214610665578063b4eae1cb146106a6578063c31c9c07146106d1576101ee565b806395d89b41116100d157806395d89b4114610579578063a457c2d7146105a4578063a5d5db0c146105e1578063a8aa1b31146105fd576101ee565b8063694c755f146104bb57806370a08231146104e65780637d9f6db5146105235780638fe447291461054e576101ee565b8063313ce5671161017a578063476343ee11610149578063476343ee146104235780634e6630b01461043a5780635aa6e6751461046557806361d027b314610490576101ee565b8063313ce56714610354578063350c35e91461037f57806339509351146103a8578063436d8039146103e5576101ee565b806318160ddd116101b657806318160ddd146102865780631dafede0146102b157806323b872dd146102ee5780632f8655681461032b576101ee565b806306fdde03146101f3578063095ea7b31461021e5780631775765f1461025b576101ee565b366101ee576101ec6000346107b8565b005b600080fd5b3480156101ff57600080fd5b50610208610e1e565b6040516102159190614762565b60405180910390f35b34801561022a57600080fd5b5061024560048036038101906102409190613f34565b610eb0565b604051610252919061463e565b60405180910390f35b34801561026757600080fd5b50610270610ed3565b60405161027d9190614a30565b60405180910390f35b34801561029257600080fd5b5061029b610ed9565b6040516102a89190614a30565b60405180910390f35b3480156102bd57600080fd5b506102d860048036038101906102d39190613fe8565b610ee3565b6040516102e5919061459a565b60405180910390f35b3480156102fa57600080fd5b5061031560048036038101906103109190613ee5565b610f22565b604051610322919061463e565b60405180910390f35b34801561033757600080fd5b50610352600480360381019061034d9190613e57565b610f51565b005b34801561036057600080fd5b506103696119b9565b6040516103769190614a74565b60405180910390f35b34801561038b57600080fd5b506103a660048036038101906103a19190613f34565b6119c2565b005b3480156103b457600080fd5b506103cf60048036038101906103ca9190613f34565b611f06565b6040516103dc919061463e565b60405180910390f35b3480156103f157600080fd5b5061040c60048036038101906104079190613ea9565b611f3d565b60405161041a929190614a4b565b60405180910390f35b34801561042f57600080fd5b50610438611f6e565b005b34801561044657600080fd5b5061044f612749565b60405161045c9190614a30565b60405180910390f35b34801561047157600080fd5b5061047a61274f565b604051610487919061459a565b60405180910390f35b34801561049c57600080fd5b506104a5612775565b6040516104b2919061459a565b60405180910390f35b3480156104c757600080fd5b506104d061279b565b6040516104dd91906146e2565b60405180910390f35b3480156104f257600080fd5b5061050d60048036038101906105089190613e57565b6127c1565b60405161051a9190614a30565b60405180910390f35b34801561052f57600080fd5b50610538612809565b604051610545919061459a565b60405180910390f35b34801561055a57600080fd5b5061056361282f565b6040516105709190614a30565b60405180910390f35b34801561058557600080fd5b5061058e612835565b60405161059b9190614762565b60405180910390f35b3480156105b057600080fd5b506105cb60048036038101906105c69190613f34565b6128c7565b6040516105d8919061463e565b60405180910390f35b6105fb60048036038101906105f69190613f34565b6107b8565b005b34801561060957600080fd5b5061061261293e565b60405161061f91906146fd565b60405180910390f35b34801561063457600080fd5b5061064f600480360381019061064a9190613f34565b612964565b60405161065c919061463e565b60405180910390f35b34801561067157600080fd5b5061068c60048036038101906106879190613e57565b612987565b60405161069d959493929190614659565b60405180910390f35b3480156106b257600080fd5b506106bb6129ea565b6040516106c89190614a30565b60405180910390f35b3480156106dd57600080fd5b506106e6612cb9565b6040516106f391906146c7565b60405180910390f35b34801561070857600080fd5b50610711612cdd565b60405161071e9190614a30565b60405180910390f35b34801561073357600080fd5b5061074e60048036038101906107499190613ea9565b612ce3565b60405161075b9190614a30565b60405180910390f35b34801561077057600080fd5b50610779612d6a565b60405161078691906146ac565b60405180910390f35b34801561079b57600080fd5b506107b660048036038101906107b19190613f70565b612d90565b005b60006107c534600a613041565b905060006107d483600a613041565b905081601360008073ffffffffffffffffffffffffffffffffffffffff1673ffffffffffffffffffffffffffffffffffffffff16815260200190815260200160002060020160008282546108289190614ad2565b92505081905550600073ffffffffffffffffffffffffffffffffffffffff168473ffffffffffffffffffffffffffffffffffffffff16146108bd5780601360008673ffffffffffffffffffffffffffffffffffffffff1673ffffffffffffffffffffffffffffffffffffffff16815260200190815260200160002060020160008282546108b59190614ad2565b925050819055505b80836108c99190614bb3565b601260003373ffffffffffffffffffffffffffffffffffffffff1673ffffffffffffffffffffffffffffffffffffffff16815260200190815260200160002060008673ffffffffffffffffffffffffffffffffffffffff1673ffffffffffffffffffffffffffffffffffffffff16815260200190815260200160002060000160008282546109579190614ad2565b92505081905550808361096a9190614bb3565b601360008673ffffffffffffffffffffffffffffffffffffffff1673ffffffffffffffffffffffffffffffffffffffff16815260200190815260200160002060010160008282546109bb9190614ad2565b925050819055506000600a60009054906101000a900473ffffffffffffffffffffffffffffffffffffffff1673ffffffffffffffffffffffffffffffffffffffff1663feaf968c6040518163ffffffff1660e01b815260040160a06040518083038186803b158015610a2c57600080fd5b505afa158015610a40573d6000803e3d6000fd5b505050506040513d601f19601f82011682018060405250810190610a64919061403a565b5050509150506000600b60009054906101000a900473ffffffffffffffffffffffffffffffffffffffff1673ffffffffffffffffffffffffffffffffffffffff1663feaf968c6040518163ffffffff1660e01b815260040160a06040518083038186803b158015610ad457600080fd5b505afa158015610ae8573d6000803e3d6000fd5b505050506040513d601f19601f82011682018060405250810190610b0c919061403a565b5050509150506000610b1e8383613041565b90506000601360008973ffffffffffffffffffffffffffffffffffffffff1673ffffffffffffffffffffffffffffffffffffffff16815260200190815260200160002060040160009054906101000a900473ffffffffffffffffffffffffffffffffffffffff1673ffffffffffffffffffffffffffffffffffffffff1663feaf968c6040518163ffffffff1660e01b815260040160a06040518083038186803b158015610bca57600080fd5b505afa158015610bde573d6000803e3d6000fd5b505050506040513d601f19601f82011682018060405250810190610c02919061403a565b5050509150506000610c2a82878a610c1a9190614bb3565b610c249190614b59565b8661308b565b9050610c9061271082610c3d9190614b59565b601360008c73ffffffffffffffffffffffffffffffffffffffff1673ffffffffffffffffffffffffffffffffffffffff1681526020019081526020016000206003015485610c8b9190614b59565b613041565b9050610c9a6129ea565b600681905550610caa33826130c7565b80601260003373ffffffffffffffffffffffffffffffffffffffff1673ffffffffffffffffffffffffffffffffffffffff16815260200190815260200160002060008b73ffffffffffffffffffffffffffffffffffffffff1673ffffffffffffffffffffffffffffffffffffffff1681526020019081526020016000206001016000828254610d399190614ad2565b92505081905550600073ffffffffffffffffffffffffffffffffffffffff168973ffffffffffffffffffffffffffffffffffffffff1614610e135760008973ffffffffffffffffffffffffffffffffffffffff166323b872dd33308c6040518463ffffffff1660e01b8152600401610db3939291906145de565b602060405180830381600087803b158015610dcd57600080fd5b505af1158015610de1573d6000803e3d6000fd5b505050506040513d601f19601f82011682018060405250810190610e059190613fbf565b905080610e1157600080fd5b505b505050505050505050565b606060038054610e2d90614d64565b80601f0160208091040260200160405190810160405280929190818152602001828054610e5990614d64565b8015610ea65780601f10610e7b57610100808354040283529160200191610ea6565b820191906000526020600020905b815481529060010190602001808311610e8957829003601f168201915b5050505050905090565b600080610ebb613227565b9050610ec881858561322f565b600191505092915050565b60055481565b6000600254905090565b60098181548110610ef357600080fd5b906000526020600020016000915054906101000a900473ffffffffffffffffffffffffffffffffffffffff1681565b600080610f2d613227565b9050610f3a8582856133fa565b610f45858585613486565b60019150509392505050565b610f596129ea565b60068190555060055460065410610fa5576040517f08c379a0000000000000000000000000000000000000000000000000000000008152600401610f9c906148b4565b60405180910390fd5b6000601360008373ffffffffffffffffffffffffffffffffffffffff1673ffffffffffffffffffffffffffffffffffffffff16815260200190815260200160002060040160009054906101000a900473ffffffffffffffffffffffffffffffffffffffff1673ffffffffffffffffffffffffffffffffffffffff1663feaf968c6040518163ffffffff1660e01b815260040160a06040518083038186803b15801561104f57600080fd5b505afa158015611063573d6000803e3d6000fd5b505050506040513d601f19601f82011682018060405250810190611087919061403a565b5050509150506000600b60009054906101000a900473ffffffffffffffffffffffffffffffffffffffff1673ffffffffffffffffffffffffffffffffffffffff1663feaf968c6040518163ffffffff1660e01b815260040160a06040518083038186803b1580156110f757600080fd5b505afa15801561110b573d6000803e3d6000fd5b505050506040513d601f19601f8201168201806040525081019061112f919061403a565b50505091505060006111c96111c3601260003373ffffffffffffffffffffffffffffffffffffffff1673ffffffffffffffffffffffffffffffffffffffff16815260200190815260200160002060008773ffffffffffffffffffffffffffffffffffffffff1673ffffffffffffffffffffffffffffffffffffffff1681526020019081526020016000206001015485613707565b8361308b565b90506000601260003373ffffffffffffffffffffffffffffffffffffffff1673ffffffffffffffffffffffffffffffffffffffff16815260200190815260200160002060008673ffffffffffffffffffffffffffffffffffffffff1673ffffffffffffffffffffffffffffffffffffffff16815260200190815260200160002060010154905060008211611292576040517f08c379a0000000000000000000000000000000000000000000000000000000008152600401611289906149d4565b60405180910390fd5b600081116112d5576040517f08c379a00000000000000000000000000000000000000000000000000000000081526004016112cc906149d4565b60405180910390fd5b6000600c60009054906101000a900473ffffffffffffffffffffffffffffffffffffffff1673ffffffffffffffffffffffffffffffffffffffff1663e6a4390530886040518363ffffffff1660e01b81526004016113349291906145b5565b60206040518083038186803b15801561134c57600080fd5b505afa158015611360573d6000803e3d6000fd5b505050506040513d601f19601f820116820180604052508101906113849190613e80565b90506113d86040518060400160405280600b81526020017f616d6f756e74206f757420000000000000000000000000000000000000000000815250670de0b6b3a7640000856113d39190614b28565b61374b565b61142a6040518060400160405280600a81526020017f616d6f756e7420696e2000000000000000000000000000000000000000000000815250670de0b6b3a7640000846114259190614b28565b61374b565b8073ffffffffffffffffffffffffffffffffffffffff1663022c0d9f600084336040518463ffffffff1660e01b815260040161146893929190614718565b600060405180830381600087803b15801561148257600080fd5b505af1925050508015611493575060015b6117ab576114c2307f0000000000000000000000000000000000000000000000000000000000000000846137e7565b61271084606487601260003373ffffffffffffffffffffffffffffffffffffffff1673ffffffffffffffffffffffffffffffffffffffff16815260200190815260200160002060008b73ffffffffffffffffffffffffffffffffffffffff1673ffffffffffffffffffffffffffffffffffffffff168152602001908152602001600020600101546115539190614b59565b61155d9190614b59565b6115679190614b28565b6115719190614b28565b925060006040518061010001604052803073ffffffffffffffffffffffffffffffffffffffff1681526020018873ffffffffffffffffffffffffffffffffffffffff168152602001610bb862ffffff1681526020013373ffffffffffffffffffffffffffffffffffffffff168152602001428152602001858152602001848152602001600073ffffffffffffffffffffffffffffffffffffffff16815250905060007f000000000000000000000000000000000000000000000000000000000000000073ffffffffffffffffffffffffffffffffffffffff1663db3e2198836040518263ffffffff1660e01b815260040161166c9190614a14565b602060405180830381600087803b15801561168657600080fd5b505af115801561169a573d6000803e3d6000fd5b505050506040513d601f19601f820116820180604052508101906116be9190614011565b90508381101561170e576116f4887f000000000000000000000000000000000000000000000000000000000000000060006137e7565b61170a303383876117059190614bb3565b61393c565b8093505b83601260003373ffffffffffffffffffffffffffffffffffffffff1673ffffffffffffffffffffffffffffffffffffffff16815260200190815260200160002060008a73ffffffffffffffffffffffffffffffffffffffff1673ffffffffffffffffffffffffffffffffffffffff168152602001908152602001600020600101600082825461179d9190614bb3565b925050819055505050611842565b81601260003373ffffffffffffffffffffffffffffffffffffffff1673ffffffffffffffffffffffffffffffffffffffff16815260200190815260200160002060008873ffffffffffffffffffffffffffffffffffffffff1673ffffffffffffffffffffffffffffffffffffffff168152602001908152602001600020600101600082825461183a9190614bb3565b925050819055505b6000601260003373ffffffffffffffffffffffffffffffffffffffff1673ffffffffffffffffffffffffffffffffffffffff16815260200190815260200160002060008873ffffffffffffffffffffffffffffffffffffffff1673ffffffffffffffffffffffffffffffffffffffff168152602001908152602001600020600101549050600081111561192b576118fb601160009054906101000a900473ffffffffffffffffffffffffffffffffffffffff1682610eb0565b5061192933601160009054906101000a900473ffffffffffffffffffffffffffffffffffffffff1683610f22565b505b6000601260003373ffffffffffffffffffffffffffffffffffffffff1673ffffffffffffffffffffffffffffffffffffffff16815260200190815260200160002060008973ffffffffffffffffffffffffffffffffffffffff1673ffffffffffffffffffffffffffffffffffffffff1681526020019081526020016000206001018190555050505050505050565b60006012905090565b611a896040518060400160405280600781526020017f62616c616e6365000000000000000000000000000000000000000000000000008152508373ffffffffffffffffffffffffffffffffffffffff166370a08231306040518263ffffffff1660e01b8152600401611a34919061459a565b60206040518083038186803b158015611a4c57600080fd5b505afa158015611a60573d6000803e3d6000fd5b505050506040513d601f19601f82011682018060405250810190611a849190614011565b61374b565b611a933082612964565b506000600a60009054906101000a900473ffffffffffffffffffffffffffffffffffffffff1673ffffffffffffffffffffffffffffffffffffffff1663feaf968c6040518163ffffffff1660e01b815260040160a06040518083038186803b158015611afe57600080fd5b505afa158015611b12573d6000803e3d6000fd5b505050506040513d601f19601f82011682018060405250810190611b36919061403a565b5050509150506000601360008573ffffffffffffffffffffffffffffffffffffffff1673ffffffffffffffffffffffffffffffffffffffff16815260200190815260200160002060040160009054906101000a900473ffffffffffffffffffffffffffffffffffffffff1673ffffffffffffffffffffffffffffffffffffffff1663feaf968c6040518163ffffffff1660e01b815260040160a06040518083038186803b158015611be657600080fd5b505afa158015611bfa573d6000803e3d6000fd5b505050506040513d601f19601f82011682018060405250810190611c1e919061403a565b5050509150506000611c3b8285611c359190614b59565b84613041565b905083601260003373ffffffffffffffffffffffffffffffffffffffff1673ffffffffffffffffffffffffffffffffffffffff16815260200190815260200160002060008773ffffffffffffffffffffffffffffffffffffffff1673ffffffffffffffffffffffffffffffffffffffff1681526020019081526020016000206000016000828254611ccc9190614bb3565b92505081905550611cdd3085613a91565b80601260003373ffffffffffffffffffffffffffffffffffffffff1673ffffffffffffffffffffffffffffffffffffffff16815260200190815260200160002060008773ffffffffffffffffffffffffffffffffffffffff1673ffffffffffffffffffffffffffffffffffffffff1681526020019081526020016000206001016000828254611d6c9190614bb3565b92505081905550611d7b6129ea565b600681905550600073ffffffffffffffffffffffffffffffffffffffff168573ffffffffffffffffffffffffffffffffffffffff161415611e685760003373ffffffffffffffffffffffffffffffffffffffff1682604051611ddc90614585565b60006040518083038185875af1925050503d8060008114611e19576040519150601f19603f3d011682016040523d82523d6000602084013e611e1e565b606091505b5050905080611e62576040517f08c379a0000000000000000000000000000000000000000000000000000000008152600401611e5990614994565b60405180910390fd5b50611eff565b8473ffffffffffffffffffffffffffffffffffffffff1663a9059cbb33836040518363ffffffff1660e01b8152600401611ea3929190614615565b602060405180830381600087803b158015611ebd57600080fd5b505af1158015611ed1573d6000803e3d6000fd5b505050506040513d601f19601f82011682018060405250810190611ef59190613fbf565b611efe57600080fd5b5b5050505050565b600080611f11613227565b9050611f32818585611f238589612ce3565b611f2d9190614ad2565b61322f565b600191505092915050565b6012602052816000526040600020602052806000526040600020600091509150508060000154908060010154905082565b600080600090505b6009805490508110156127455760098181548110611fbd577f4e487b7100000000000000000000000000000000000000000000000000000000600052603260045260246000fd5b9060005260206000200160009054906101000a900473ffffffffffffffffffffffffffffffffffffffff1691506000601360008473ffffffffffffffffffffffffffffffffffffffff1673ffffffffffffffffffffffffffffffffffffffff1681526020019081526020016000206002015490506000601360008573ffffffffffffffffffffffffffffffffffffffff1673ffffffffffffffffffffffffffffffffffffffff16815260200190815260200160002060020181905550600073ffffffffffffffffffffffffffffffffffffffff168373ffffffffffffffffffffffffffffffffffffffff16141561229e576000601060009054906101000a900473ffffffffffffffffffffffffffffffffffffffff1673ffffffffffffffffffffffffffffffffffffffff166121006120f884610bb8613707565b61271061308b565b60405161210c90614585565b60006040518083038185875af1925050503d8060008114612149576040519150601f19603f3d011682016040523d82523d6000602084013e61214e565b606091505b505090508061215c57600080fd5b600c60009054906101000a900473ffffffffffffffffffffffffffffffffffffffff1673ffffffffffffffffffffffffffffffffffffffff166121a0836005613041565b6040516121ac90614585565b60006040518083038185875af1925050503d80600081146121e9576040519150601f19603f3d011682016040523d82523d6000602084013e6121ee565b606091505b505080915050600d60009054906101000a900473ffffffffffffffffffffffffffffffffffffffff1673ffffffffffffffffffffffffffffffffffffffff1661224461223c84611388613707565b61271061308b565b60405161225090614585565b60006040518083038185875af1925050503d806000811461228d576040519150601f19603f3d011682016040523d82523d6000602084013e612292565b606091505b50508091505050612731565b60008373ffffffffffffffffffffffffffffffffffffffff1663a9059cbb601060009054906101000a900473ffffffffffffffffffffffffffffffffffffffff166122f66122ee86610bb8613707565b61271061308b565b6040518363ffffffff1660e01b8152600401612313929190614615565b602060405180830381600087803b15801561232d57600080fd5b505af1158015612341573d6000803e3d6000fd5b505050506040513d601f19601f820116820180604052508101906123659190613fbf565b90508061237157600080fd5b8373ffffffffffffffffffffffffffffffffffffffff1663095ea7b3600c60009054906101000a900473ffffffffffffffffffffffffffffffffffffffff166123c76123bf866107d0613707565b61271061308b565b6040518363ffffffff1660e01b81526004016123e4929190614615565b602060405180830381600087803b1580156123fe57600080fd5b505af1158015612412573d6000803e3d6000fd5b505050506040513d601f19601f820116820180604052508101906124369190613fbf565b90508061244257600080fd5b6000600c60009054906101000a900473ffffffffffffffffffffffffffffffffffffffff1673ffffffffffffffffffffffffffffffffffffffff1663e6a4390586306040518363ffffffff1660e01b81526004016124a19291906145b5565b60206040518083038186803b1580156124b957600080fd5b505afa1580156124cd573d6000803e3d6000fd5b505050506040513d601f19601f820116820180604052508101906124f19190613e80565b90506000612500846005613041565b90506125546040518060400160405280600881526020017f616d6f756e742c20000000000000000000000000000000000000000000000000815250670de0b6b3a76400008361254f9190614b28565b61374b565b8573ffffffffffffffffffffffffffffffffffffffff1663095ea7b383836040518363ffffffff1660e01b815260040161258f929190614615565b602060405180830381600087803b1580156125a957600080fd5b505af11580156125bd573d6000803e3d6000fd5b505050506040513d601f19601f820116820180604052508101906125e19190613fbf565b508573ffffffffffffffffffffffffffffffffffffffff166323b872dd3084846040518463ffffffff1660e01b815260040161261f939291906145de565b602060405180830381600087803b15801561263957600080fd5b505af115801561264d573d6000803e3d6000fd5b505050506040513d601f19601f820116820180604052508101906126719190613fbf565b508573ffffffffffffffffffffffffffffffffffffffff1663a9059cbb600d60009054906101000a900473ffffffffffffffffffffffffffffffffffffffff166126bc876002613041565b6040518363ffffffff1660e01b81526004016126d9929190614615565b602060405180830381600087803b1580156126f357600080fd5b505af1158015612707573d6000803e3d6000fd5b505050506040513d601f19601f8201168201806040525081019061272b9190613fbf565b92505050505b50808061273d90614d96565b915050611f76565b5050565b60075481565b600f60009054906101000a900473ffffffffffffffffffffffffffffffffffffffff1681565b601060009054906101000a900473ffffffffffffffffffffffffffffffffffffffff1681565b600c60009054906101000a900473ffffffffffffffffffffffffffffffffffffffff1681565b60008060008373ffffffffffffffffffffffffffffffffffffffff1673ffffffffffffffffffffffffffffffffffffffff168152602001908152602001600020549050919050565b601160009054906101000a900473ffffffffffffffffffffffffffffffffffffffff1681565b60085481565b60606004805461284490614d64565b80601f016020809104026020016040519081016040528092919081815260200182805461287090614d64565b80156128bd5780601f10612892576101008083540402835291602001916128bd565b820191906000526020600020905b8154815290600101906020018083116128a057829003601f168201915b5050505050905090565b6000806128d2613227565b905060006128e08286612ce3565b905083811015612925576040517f08c379a000000000000000000000000000000000000000000000000000000000815260040161291c906149b4565b60405180910390fd5b612932828686840361322f565b60019250505092915050565b600e60009054906101000a900473ffffffffffffffffffffffffffffffffffffffff1681565b60008061296f613227565b905061297c818585613486565b600191505092915050565b60136020528060005260406000206000915090508060000160009054906101000a900460ff16908060010154908060020154908060030154908060040160009054906101000a900473ffffffffffffffffffffffffffffffffffffffff16905085565b600080600a60009054906101000a900473ffffffffffffffffffffffffffffffffffffffff1673ffffffffffffffffffffffffffffffffffffffff1663feaf968c6040518163ffffffff1660e01b815260040160a06040518083038186803b158015612a5557600080fd5b505afa158015612a69573d6000803e3d6000fd5b505050506040513d601f19601f82011682018060405250810190612a8d919061403a565b5050509150506000612a9d610ed9565b82612aa89190614b59565b905060008060008060005b600980549050811015612c875760098181548110612afa577f4e487b7100000000000000000000000000000000000000000000000000000000600052603260045260246000fd5b9060005260206000200160009054906101000a900473ffffffffffffffffffffffffffffffffffffffff169450601360008673ffffffffffffffffffffffffffffffffffffffff1673ffffffffffffffffffffffffffffffffffffffff16815260200190815260200160002060040160009054906101000a900473ffffffffffffffffffffffffffffffffffffffff1673ffffffffffffffffffffffffffffffffffffffff1663feaf968c6040518163ffffffff1660e01b815260040160a06040518083038186803b158015612bcf57600080fd5b505afa158015612be3573d6000803e3d6000fd5b505050506040513d601f19601f82011682018060405250810190612c07919061403a565b90919293509091509050508094505083601360008773ffffffffffffffffffffffffffffffffffffffff1673ffffffffffffffffffffffffffffffffffffffff16815260200190815260200160002060010154612c649190614b59565b91508183612c729190614ad2565b92508080612c7f90614d96565b915050612ab3565b506000851415612ca35763068e77809650505050505050612cb6565b612cad828661308b565b96505050505050505b90565b7f000000000000000000000000000000000000000000000000000000000000000081565b60065481565b6000600160008473ffffffffffffffffffffffffffffffffffffffff1673ffffffffffffffffffffffffffffffffffffffff16815260200190815260200160002060008373ffffffffffffffffffffffffffffffffffffffff1673ffffffffffffffffffffffffffffffffffffffff16815260200190815260200160002054905092915050565b600d60009054906101000a900473ffffffffffffffffffffffffffffffffffffffff1681565b600f60009054906101000a900473ffffffffffffffffffffffffffffffffffffffff1673ffffffffffffffffffffffffffffffffffffffff163373ffffffffffffffffffffffffffffffffffffffff1614612e20576040517f08c379a0000000000000000000000000000000000000000000000000000000008152600401612e1790614974565b60405180910390fd5b60001515601360008573ffffffffffffffffffffffffffffffffffffffff1673ffffffffffffffffffffffffffffffffffffffff16815260200190815260200160002060000160009054906101000a900460ff16151514612eb6576040517f08c379a0000000000000000000000000000000000000000000000000000000008152600401612ead90614914565b60405180910390fd5b6009839080600181540180825580915050600190039060005260206000200160009091909190916101000a81548173ffffffffffffffffffffffffffffffffffffffff021916908373ffffffffffffffffffffffffffffffffffffffff1602179055506001601360008573ffffffffffffffffffffffffffffffffffffffff1673ffffffffffffffffffffffffffffffffffffffff16815260200190815260200160002060000160006101000a81548160ff02191690831515021790555081601360008573ffffffffffffffffffffffffffffffffffffffff1673ffffffffffffffffffffffffffffffffffffffff1681526020019081526020016000206003018190555080601360008573ffffffffffffffffffffffffffffffffffffffff1673ffffffffffffffffffffffffffffffffffffffff16815260200190815260200160002060040160006101000a81548173ffffffffffffffffffffffffffffffffffffffff021916908373ffffffffffffffffffffffffffffffffffffffff160217905550505050565b600061308383836040518060400160405280601a81526020017f536166654d6174683a206469766973696f6e206279207a65726f000000000000815250613c68565b905092915050565b6000816130b56130a385670de0b6b3a7640000613ccb565b6002856130b09190614b28565b613d38565b6130bf9190614b28565b905092915050565b600073ffffffffffffffffffffffffffffffffffffffff168273ffffffffffffffffffffffffffffffffffffffff161415613137576040517f08c379a000000000000000000000000000000000000000000000000000000000815260040161312e906149f4565b60405180910390fd5b61314360008383613d91565b80600260008282546131559190614ad2565b92505081905550806000808473ffffffffffffffffffffffffffffffffffffffff1673ffffffffffffffffffffffffffffffffffffffff16815260200190815260200160002060008282546131aa9190614ad2565b925050819055508173ffffffffffffffffffffffffffffffffffffffff16600073ffffffffffffffffffffffffffffffffffffffff167fddf252ad1be2c89b69c2b068fc378daa952ba7f163c4a11628f55a4df523b3ef8360405161320f9190614a30565b60405180910390a361322360008383613d96565b5050565b600033905090565b600073ffffffffffffffffffffffffffffffffffffffff168373ffffffffffffffffffffffffffffffffffffffff16141561329f576040517f08c379a000000000000000000000000000000000000000000000000000000000815260040161329690614954565b60405180910390fd5b600073ffffffffffffffffffffffffffffffffffffffff168273ffffffffffffffffffffffffffffffffffffffff16141561330f576040517f08c379a000000000000000000000000000000000000000000000000000000000815260040161330690614814565b60405180910390fd5b80600160008573ffffffffffffffffffffffffffffffffffffffff1673ffffffffffffffffffffffffffffffffffffffff16815260200190815260200160002060008473ffffffffffffffffffffffffffffffffffffffff1673ffffffffffffffffffffffffffffffffffffffff168152602001908152602001600020819055508173ffffffffffffffffffffffffffffffffffffffff168373ffffffffffffffffffffffffffffffffffffffff167f8c5be1e5ebec7d5bd14f71427d1e84f3dd0314c0f7b2291e5b200ac8c7c3b925836040516133ed9190614a30565b60405180910390a3505050565b60006134068484612ce3565b90507fffffffffffffffffffffffffffffffffffffffffffffffffffffffffffffffff81146134805781811015613472576040517f08c379a000000000000000000000000000000000000000000000000000000000815260040161346990614874565b60405180910390fd5b61347f848484840361322f565b5b50505050565b600073ffffffffffffffffffffffffffffffffffffffff168373ffffffffffffffffffffffffffffffffffffffff1614156134f6576040517f08c379a00000000000000000000000000000000000000000000000000000000081526004016134ed90614934565b60405180910390fd5b600073ffffffffffffffffffffffffffffffffffffffff168273ffffffffffffffffffffffffffffffffffffffff161415613566576040517f08c379a000000000000000000000000000000000000000000000000000000000815260040161355d906147b4565b60405180910390fd5b613571838383613d91565b60008060008573ffffffffffffffffffffffffffffffffffffffff1673ffffffffffffffffffffffffffffffffffffffff168152602001908152602001600020549050818110156135f7576040517f08c379a00000000000000000000000000000000000000000000000000000000081526004016135ee90614894565b60405180910390fd5b8181036000808673ffffffffffffffffffffffffffffffffffffffff1673ffffffffffffffffffffffffffffffffffffffff16815260200190815260200160002081905550816000808573ffffffffffffffffffffffffffffffffffffffff1673ffffffffffffffffffffffffffffffffffffffff168152602001908152602001600020600082825461368a9190614ad2565b925050819055508273ffffffffffffffffffffffffffffffffffffffff168473ffffffffffffffffffffffffffffffffffffffff167fddf252ad1be2c89b69c2b068fc378daa952ba7f163c4a11628f55a4df523b3ef846040516136ee9190614a30565b60405180910390a3613701848484613d96565b50505050565b6000670de0b6b3a764000061373961371f8585613ccb565b6002670de0b6b3a76400006137349190614b28565b613d38565b6137439190614b28565b905092915050565b6137e38282604051602401613761929190614784565b6040516020818303038152906040527f9710a9d0000000000000000000000000000000000000000000000000000000007bffffffffffffffffffffffffffffffffffffffffffffffffffffffff19166020820180517bffffffffffffffffffffffffffffffffffffffffffffffffffffffff8381831617835250505050613d9b565b5050565b6000808473ffffffffffffffffffffffffffffffffffffffff1663095ea7b360e01b858560405160240161381c929190614615565b604051602081830303815290604052907bffffffffffffffffffffffffffffffffffffffffffffffffffffffff19166020820180517bffffffffffffffffffffffffffffffffffffffffffffffffffffffff8381831617835250505050604051613886919061456e565b6000604051808303816000865af19150503d80600081146138c3576040519150601f19603f3d011682016040523d82523d6000602084013e6138c8565b606091505b50915091508180156138f657506000815114806138f55750808060200190518101906138f49190613fbf565b5b5b613935576040517f08c379a000000000000000000000000000000000000000000000000000000000815260040161392c906147d4565b60405180910390fd5b5050505050565b6000808473ffffffffffffffffffffffffffffffffffffffff1663a9059cbb60e01b8585604051602401613971929190614615565b604051602081830303815290604052907bffffffffffffffffffffffffffffffffffffffffffffffffffffffff19166020820180517bffffffffffffffffffffffffffffffffffffffffffffffffffffffff83818316178352505050506040516139db919061456e565b6000604051808303816000865af19150503d8060008114613a18576040519150601f19603f3d011682016040523d82523d6000602084013e613a1d565b606091505b5091509150818015613a4b5750600081511480613a4a575080806020019051810190613a499190613fbf565b5b5b613a8a576040517f08c379a0000000000000000000000000000000000000000000000000000000008152600401613a81906148d4565b60405180910390fd5b5050505050565b600073ffffffffffffffffffffffffffffffffffffffff168273ffffffffffffffffffffffffffffffffffffffff161415613b01576040517f08c379a0000000000000000000000000000000000000000000000000000000008152600401613af8906148f4565b60405180910390fd5b613b0d82600083613d91565b60008060008473ffffffffffffffffffffffffffffffffffffffff1673ffffffffffffffffffffffffffffffffffffffff16815260200190815260200160002054905081811015613b93576040517f08c379a0000000000000000000000000000000000000000000000000000000008152600401613b8a906147f4565b60405180910390fd5b8181036000808573ffffffffffffffffffffffffffffffffffffffff1673ffffffffffffffffffffffffffffffffffffffff168152602001908152602001600020819055508160026000828254613bea9190614bb3565b92505081905550600073ffffffffffffffffffffffffffffffffffffffff168373ffffffffffffffffffffffffffffffffffffffff167fddf252ad1be2c89b69c2b068fc378daa952ba7f163c4a11628f55a4df523b3ef84604051613c4f9190614a30565b60405180910390a3613c6383600084613d96565b505050565b60008083118290613caf576040517f08c379a0000000000000000000000000000000000000000000000000000000008152600401613ca69190614762565b60405180910390fd5b5060008385613cbe9190614b28565b9050809150509392505050565b600080821480613cf3575082828385613ce49190614b59565b925082613cf19190614b28565b145b613d32576040517f08c379a0000000000000000000000000000000000000000000000000000000008152600401613d2990614834565b60405180910390fd5b92915050565b6000828284613d479190614ad2565b9150811015613d8b576040517f08c379a0000000000000000000000000000000000000000000000000000000008152600401613d8290614854565b60405180910390fd5b92915050565b505050565b505050565b60008151905060006a636f6e736f6c652e6c6f679050602083016000808483855afa5050505050565b600081359050613dd381615353565b92915050565b600081519050613de881615353565b92915050565b600081519050613dfd8161536a565b92915050565b600081519050613e1281615381565b92915050565b600081359050613e2781615398565b92915050565b600081519050613e3c81615398565b92915050565b600081519050613e51816153af565b92915050565b600060208284031215613e6957600080fd5b6000613e7784828501613dc4565b91505092915050565b600060208284031215613e9257600080fd5b6000613ea084828501613dd9565b91505092915050565b60008060408385031215613ebc57600080fd5b6000613eca85828601613dc4565b9250506020613edb85828601613dc4565b9150509250929050565b600080600060608486031215613efa57600080fd5b6000613f0886828701613dc4565b9350506020613f1986828701613dc4565b9250506040613f2a86828701613e18565b9150509250925092565b60008060408385031215613f4757600080fd5b6000613f5585828601613dc4565b9250506020613f6685828601613e18565b9150509250929050565b600080600060608486031215613f8557600080fd5b6000613f9386828701613dc4565b9350506020613fa486828701613e18565b9250506040613fb586828701613dc4565b9150509250925092565b600060208284031215613fd157600080fd5b6000613fdf84828501613dee565b91505092915050565b600060208284031215613ffa57600080fd5b600061400884828501613e18565b91505092915050565b60006020828403121561402357600080fd5b600061403184828501613e2d565b91505092915050565b600080600080600060a0868803121561405257600080fd5b600061406088828901613e42565b955050602061407188828901613e03565b945050604061408288828901613e2d565b935050606061409388828901613e2d565b92505060806140a488828901613e42565b9150509295509295909350565b6140ba81614be7565b82525050565b6140c981614be7565b82525050565b6140d881614bf9565b82525050565b60006140e982614a8f565b6140f38185614ab6565b9350614103818560208601614d31565b80840191505092915050565b61411881614c6b565b82525050565b61412781614c8f565b82525050565b61413681614cb3565b82525050565b61414581614cd7565b82525050565b61415481614cfb565b82525050565b61416381614d1f565b82525050565b600061417482614a9a565b61417e8185614ac1565b935061418e818560208601614d31565b61419781614e6c565b840191505092915050565b60006141af602383614ac1565b91506141ba82614e7d565b604082019050919050565b60006141d2600283614ac1565b91506141dd82614ecc565b602082019050919050565b60006141f5602283614ac1565b915061420082614ef5565b604082019050919050565b6000614218602283614ac1565b915061422382614f44565b604082019050919050565b600061423b601483614ac1565b915061424682614f93565b602082019050919050565b600061425e601483614ac1565b915061426982614fbc565b602082019050919050565b6000614281601d83614ac1565b915061428c82614fe5565b602082019050919050565b60006142a4602683614ac1565b91506142af8261500e565b604082019050919050565b60006142c7601983614ac1565b91506142d28261505d565b602082019050919050565b60006142ea600283614ac1565b91506142f582615086565b602082019050919050565b600061430d602183614ac1565b9150614318826150af565b604082019050919050565b6000614330602583614ac1565b915061433b826150fe565b604082019050919050565b6000614353602583614ac1565b915061435e8261514d565b604082019050919050565b6000614376600083614aa5565b91506143818261519c565b600082019050919050565b6000614399600083614ab6565b91506143a48261519c565b600082019050919050565b60006143bc602483614ac1565b91506143c78261519f565b604082019050919050565b60006143df602483614ac1565b91506143ea826151ee565b604082019050919050565b6000614402602b83614ac1565b915061440d8261523d565b604082019050919050565b6000614425602583614ac1565b91506144308261528c565b604082019050919050565b6000614448602283614ac1565b9150614453826152db565b604082019050919050565b600061446b601f83614ac1565b91506144768261532a565b602082019050919050565b6101008201600082015161449860008501826140b1565b5060208201516144ab60208501826140b1565b5060408201516144be6040850182614532565b5060608201516144d160608501826140b1565b5060808201516144e46080850182614541565b5060a08201516144f760a0850182614541565b5060c082015161450a60c0850182614541565b5060e082015161451d60e0850182614523565b50505050565b61452c81614c0f565b82525050565b61453b81614c2f565b82525050565b61454a81614c3e565b82525050565b61455981614c3e565b82525050565b61456881614c48565b82525050565b600061457a82846140de565b915081905092915050565b60006145908261438c565b9150819050919050565b60006020820190506145af60008301846140c0565b92915050565b60006040820190506145ca60008301856140c0565b6145d760208301846140c0565b9392505050565b60006060820190506145f360008301866140c0565b61460060208301856140c0565b61460d6040830184614550565b949350505050565b600060408201905061462a60008301856140c0565b6146376020830184614550565b9392505050565b600060208201905061465360008301846140cf565b92915050565b600060a08201905061466e60008301886140cf565b61467b6020830187614550565b6146886040830186614550565b6146956060830185614550565b6146a2608083018461410f565b9695505050505050565b60006020820190506146c1600083018461411e565b92915050565b60006020820190506146dc600083018461412d565b92915050565b60006020820190506146f7600083018461413c565b92915050565b6000602082019050614712600083018461414b565b92915050565b600060808201905061472d600083018661415a565b61473a6020830185614550565b61474760408301846140c0565b818103606083015261475881614369565b9050949350505050565b6000602082019050818103600083015261477c8184614169565b905092915050565b6000604082019050818103600083015261479e8185614169565b90506147ad6020830184614550565b9392505050565b600060208201905081810360008301526147cd816141a2565b9050919050565b600060208201905081810360008301526147ed816141c5565b9050919050565b6000602082019050818103600083015261480d816141e8565b9050919050565b6000602082019050818103600083015261482d8161420b565b9050919050565b6000602082019050818103600083015261484d8161422e565b9050919050565b6000602082019050818103600083015261486d81614251565b9050919050565b6000602082019050818103600083015261488d81614274565b9050919050565b600060208201905081810360008301526148ad81614297565b9050919050565b600060208201905081810360008301526148cd816142ba565b9050919050565b600060208201905081810360008301526148ed816142dd565b9050919050565b6000602082019050818103600083015261490d81614300565b9050919050565b6000602082019050818103600083015261492d81614323565b9050919050565b6000602082019050818103600083015261494d81614346565b9050919050565b6000602082019050818103600083015261496d816143af565b9050919050565b6000602082019050818103600083015261498d816143d2565b9050919050565b600060208201905081810360008301526149ad816143f5565b9050919050565b600060208201905081810360008301526149cd81614418565b9050919050565b600060208201905081810360008301526149ed8161443b565b9050919050565b60006020820190508181036000830152614a0d8161445e565b9050919050565b600061010082019050614a2a6000830184614481565b92915050565b6000602082019050614a456000830184614550565b92915050565b6000604082019050614a606000830185614550565b614a6d6020830184614550565b9392505050565b6000602082019050614a89600083018461455f565b92915050565b600081519050919050565b600081519050919050565b600082825260208201905092915050565b600081905092915050565b600082825260208201905092915050565b6000614add82614c3e565b9150614ae883614c3e565b9250827fffffffffffffffffffffffffffffffffffffffffffffffffffffffffffffffff03821115614b1d57614b1c614ddf565b5b828201905092915050565b6000614b3382614c3e565b9150614b3e83614c3e565b925082614b4e57614b4d614e0e565b5b828204905092915050565b6000614b6482614c3e565b9150614b6f83614c3e565b9250817fffffffffffffffffffffffffffffffffffffffffffffffffffffffffffffffff0483118215151615614ba857614ba7614ddf565b5b828202905092915050565b6000614bbe82614c3e565b9150614bc983614c3e565b925082821015614bdc57614bdb614ddf565b5b828203905092915050565b6000614bf282614c0f565b9050919050565b60008115159050919050565b6000819050919050565b600073ffffffffffffffffffffffffffffffffffffffff82169050919050565b600062ffffff82169050919050565b6000819050919050565b600060ff82169050919050565b600069ffffffffffffffffffff82169050919050565b6000614c7682614c7d565b9050919050565b6000614c8882614c0f565b9050919050565b6000614c9a82614ca1565b9050919050565b6000614cac82614c0f565b9050919050565b6000614cbe82614cc5565b9050919050565b6000614cd082614c0f565b9050919050565b6000614ce282614ce9565b9050919050565b6000614cf482614c0f565b9050919050565b6000614d0682614d0d565b9050919050565b6000614d1882614c0f565b9050919050565b6000614d2a82614c3e565b9050919050565b60005b83811015614d4f578082015181840152602081019050614d34565b83811115614d5e576000848401525b50505050565b60006002820490506001821680614d7c57607f821691505b60208210811415614d9057614d8f614e3d565b5b50919050565b6000614da182614c3e565b91507fffffffffffffffffffffffffffffffffffffffffffffffffffffffffffffffff821415614dd457614dd3614ddf565b5b600182019050919050565b7f4e487b7100000000000000000000000000000000000000000000000000000000600052601160045260246000fd5b7f4e487b7100000000000000000000000000000000000000000000000000000000600052601260045260246000fd5b7f4e487b7100000000000000000000000000000000000000000000000000000000600052602260045260246000fd5b6000601f19601f8301169050919050565b7f45524332303a207472616e7366657220746f20746865207a65726f206164647260008201527f6573730000000000000000000000000000000000000000000000000000000000602082015250565b7f5341000000000000000000000000000000000000000000000000000000000000600082015250565b7f45524332303a206275726e20616d6f756e7420657863656564732062616c616e60008201527f6365000000000000000000000000000000000000000000000000000000000000602082015250565b7f45524332303a20617070726f766520746f20746865207a65726f20616464726560008201527f7373000000000000000000000000000000000000000000000000000000000000602082015250565b7f64732d6d6174682d6d756c2d6f766572666c6f77000000000000000000000000600082015250565b7f64732d6d6174682d6164642d6f766572666c6f77000000000000000000000000600082015250565b7f45524332303a20696e73756666696369656e7420616c6c6f77616e6365000000600082015250565b7f45524332303a207472616e7366657220616d6f756e742065786365656473206260008201527f616c616e63650000000000000000000000000000000000000000000000000000602082015250565b7f63616e6e6f74206c697175696461746520706f736974696f6e00000000000000600082015250565b7f5354000000000000000000000000000000000000000000000000000000000000600082015250565b7f45524332303a206275726e2066726f6d20746865207a65726f2061646472657360008201527f7300000000000000000000000000000000000000000000000000000000000000602082015250565b7f7468697320636f6c6c61746572616c207479706520616c72656164792061707060008201527f726f766564000000000000000000000000000000000000000000000000000000602082015250565b7f45524332303a207472616e736665722066726f6d20746865207a65726f20616460008201527f6472657373000000000000000000000000000000000000000000000000000000602082015250565b50565b7f45524332303a20617070726f76652066726f6d20746865207a65726f2061646460008201527f7265737300000000000000000000000000000000000000000000000000000000602082015250565b7f63616e206f6e6c792062652063616c6c65642062792043475420676f7665726e60008201527f616e636500000000000000000000000000000000000000000000000000000000602082015250565b7f72657475726e206f6620657468657220636f6c6c61746572616c20776173207560008201527f6e7375636365737366756c000000000000000000000000000000000000000000602082015250565b7f45524332303a2064656372656173656420616c6c6f77616e63652062656c6f7760008201527f207a65726f000000000000000000000000000000000000000000000000000000602082015250565b7f7573657220686173206e6f20706f736974696f6e7320746f206c69717569646160008201527f7465000000000000000000000000000000000000000000000000000000000000602082015250565b7f45524332303a206d696e7420746f20746865207a65726f206164647265737300600082015250565b61535c81614be7565b811461536757600080fd5b50565b61537381614bf9565b811461537e57600080fd5b50565b61538a81614c05565b811461539557600080fd5b50565b6153a181614c3e565b81146153ac57600080fd5b50565b6153b881614c55565b81146153c357600080fd5b5056fea264697066735822122093e26f383e661120098a68aa6775ea41eb8d8d5263a19eed5fad54dcf8299a2864736f6c63430008040033",
  "linkReferences": {},
  "deployedLinkReferences": {}
}