{
  "_format": "hh-sol-artifact-1",
  "contractName": "MockLending",
  "sourceName": "contracts/mocks/MockLending.sol",
  "abi": [
    {
      "inputs": [
        {
          "internalType": "address",
          "name": "_governance",
          "type": "address"
        }
      ],
      "stateMutability": "nonpayable",
      "type": "constructor"
    },
    {
      "inputs": [],
      "name": "getAssets",
      "outputs": [
        {
          "internalType": "address[]",
          "name": "",
          "type": "address[]"
        }
      ],
      "stateMutability": "view",
      "type": "function"
    }
  ],
  "bytecode": "0x608060405234801561001057600080fd5b506040516103323803806103328339818101604052810190610032919061008d565b806000806101000a81548173ffffffffffffffffffffffffffffffffffffffff021916908373ffffffffffffffffffffffffffffffffffffffff160217905550506100ff565b600081519050610087816100e8565b92915050565b60006020828403121561009f57600080fd5b60006100ad84828501610078565b91505092915050565b60006100c1826100c8565b9050919050565b600073ffffffffffffffffffffffffffffffffffffffff82169050919050565b6100f1816100b6565b81146100fc57600080fd5b50565b6102248061010e6000396000f3fe608060405234801561001057600080fd5b506004361061002b5760003560e01c806367e4ac2c14610030575b600080fd5b61003861004e565b6040516100459190610161565b60405180910390f35b606060018054806020026020016040519081016040528092919081815260200182805480156100d257602002820191906000526020600020905b8160009054906101000a900473ffffffffffffffffffffffffffffffffffffffff1673ffffffffffffffffffffffffffffffffffffffff1681526020019060010190808311610088575b5050505050905090565b60006100e883836100f4565b60208301905092915050565b6100fd816101bc565b82525050565b600061010e82610193565b61011881856101ab565b935061012383610183565b8060005b8381101561015457815161013b88826100dc565b97506101468361019e565b925050600181019050610127565b5085935050505092915050565b6000602082019050818103600083015261017b8184610103565b905092915050565b6000819050602082019050919050565b600081519050919050565b6000602082019050919050565b600082825260208201905092915050565b60006101c7826101ce565b9050919050565b600073ffffffffffffffffffffffffffffffffffffffff8216905091905056fea26469706673582212206864ca109e3d480a5c608c55f946c63afa8809e32d705fa0b56771148210b3b464736f6c63430008040033",
  "linkReferences": {},
  "deployedLinkReferences": {}
}