{
  "_format": "hh-sol-artifact-1",
  "contractName": "DSMath",
  "sourceName": "contracts/libraries/Math.sol",
  "abi": [
    {
      "inputs": [],
      "name": "RAY",
      "outputs": [
        {
          "internalType": "uint256",
          "name": "",
          "type": "uint256"
        }
      ],
      "stateMutability": "view",
      "type": "function"
    },
    {
      "inputs": [],
      "name": "WAD",
      "outputs": [
        {
          "internalType": "uint256",
          "name": "",
          "type": "uint256"
        }
      ],
      "stateMutability": "view",
      "type": "function"
    }
  ],
  "bytecode": "0x60f8610052600b82828239805160001a607314610045577f4e487b7100000000000000000000000000000000000000000000000000000000600052600060045260246000fd5b30600052607381538281f3fe7300000000000000000000000000000000000000003014608060405260043610603d5760003560e01c8063552033c41460425780636a14602414605c575b600080fd5b60486076565b60405160539190609f565b60405180910390f35b60626086565b604051606d9190609f565b60405180910390f35b6b033b2e3c9fd0803ce800000081565b670de0b6b3a764000081565b60998160b8565b82525050565b600060208201905060b260008301846092565b92915050565b600081905091905056fea26469706673582212202bdbe89b92c097bbd7524c584ea6c726c6e250db2efe35bc623ffe6f0783305164736f6c63430008040033",
  "linkReferences": {},
  "deployedLinkReferences": {}
}